:020000025000AC
:100000006FD0717500000000001801180028012849
:100010000228032800290129022903290429052986
:10002000062907290829002A012A022A032A042A64
:10003000052AA62ACCE506004E0F05003A11050058
:100040007A110500EA100500D81005007A39002061
:100050009E11050082120500AA1205000414050075
:100060009C1405005E0E05008E0D0500F80D0500C0
:10007000BA0D05009A180500B63900209811050040
:1000800010160500B4AA06006EAC0600E0AC06002F
:1000900016690600266906008203060032F705008D
:1000A00004A106003E1605005C6F060036B405008C
:1000B000BCB4050014B50500DC20050028210500AE
:1000C0009E1F050008730500C86D0500227C050011
:1000D000EE7F0500968305000A600500A85F050015
:1000E00088630500566005007E5F0500026005001C
:1000F000305F0500D26005002A610500DA60050066
:10010000DE6005007A61050032610500646105006A
:100110008066050088660500CE600500D660050093
:10012000766105008466050022620500F667050019
:10013000949105001C9205004A9205001C7505006B
:100140003475050070750500EC590500B45A0500BA
:100150000C5B0500D23C0500483805009C530500A7
:10016000BA380500F0520500A0C90600C4C2060056
:1001700024C7060072DA0600A6D90600F0DC0600E5
:10018000ECDC060032B6060084DD0600A4B30600EF
:1001900014DD060014D306002ED3060052D3060049
:1001A000F4DD0600DED7060074D7060064DE060024
:1001B000B2B506003AB606005EB6060000B6060006
:1001C000788606005C750600947B06003C76060087
:1001D0008A800600A4A106009AA00600D4B30600F7
:1001E0001C1A0500FE690600406F0600127006002A
:1001F000689C0600A29C06001A9D0600FC7805007B
:100200003886060002810600967806002E830600D6
:100210001875060010150500746B0600D8880600D6
:100220003E8B06009E8B0600EC890600D613050067
:100230006A760500DCF6050062C70600223D002054
:10024000344000200000000000000000000000001A
:10025000000000000000000000000000000000009E
:10026000000000000000000000000000000000008E
:10027000000000000000000000000000000000007E
:100280006373B60082801C419105110523AEF5FE13
:10029000C5BF938781B7138741026373F7008280DC
:0802A00023A007009107D5BF60
:1002A80049C5AA870145C1C58D07C207C183F19B0E
:1002B800C207C183130740036366F70203A501B8A9
:1002C80083A681B76393A60203A781D7014525C3F7
:1002D8004111C20706C60545DD8D0297B2400145AA
:1002E8004101828003A5C1B7E1BF0357650005EF4F
:1002F800035745006369F702B306F7402146637068
:10030800D6021041938687001D8FAA96611790C266
:100318002392E6002393060014C12312F500231349
:10032800B50021058280084171BF01458280828025
:1003380009C903A801B883A581B70147C28763E348
:10034800B70082809443636DF50663EBA6061386B7
:100358008700E368C5FE03D56700216605066317B5
:10036800C50003C681C405062384C1C423930700BE
:100378006383070303A6C1B7630FF600035667003C
:1003880019EA83D7470014C383564700B697A107D5
:100398002312F700BA879843E305B7FA83A6C1B7D3
:1003A800E301D7FA83566700C9FE83D64700035690
:1003B80047001843A106B2962392D70098C38280BB
:1003C8003E87B687ADBF09CDB71700401307700544
:1003D8002380E704130780FA2380E7042396A70203
:1003E800828019C1814799E982803387F500834665
:1003F80007003307F50085072300D700E397C7FEFA
:10040800E5B719C1FD5781E98280910503A7C5FFAA
:100418001105232EE5FE7D16E319F6FEF5B7797171
:1004280026D283A781DA06D622D44AD04ECE52CC21
:1004380056CA938481DA81C7829723A00400DC40DE
:1004480089CB03D5C1B84137DC40829703D5E1B8E1
:100458009D3F9C40639C07149387C1F683C7570050
:100468001389C1F6858B85C303477900A302090068
:10047800914763FAE700352383477900F9178A071C
:10048800A6979C43829783C7C1FB918B89C79740E6
:1004980006E0E78000949C4491C38297938641D8F4
:1004A80003A781B803C61600138A81B8138441D8FC
:1004B8008347040093961700BA9683D60600638F85
:1004C800060C8347040063FBC70686073E978355DF
:1004D80007002310070003D5C1B8938941B92EC678
:1004E80023900900CD350345040083A701BA1317EB
:1004F8002500B245BA979C438297AA8A03D5E1B8EA
:10050800D9358347040003D50900139717008327BB
:100518000A001345F5FF33755501BA9703D707004D
:10052800598D2390A70083470400034714008507CB
:1005380093F7F70F2300F40063E4E70023000400B7
:100548009C40ADE703A781B9938481B925C383474C
:10055800B90081CB8347790089E7973006E0E780C7
:10056800601E9C408297AA8431C11C48AA971CC867
:1005780083A7C1B985CF03D5C1B8B135268597D032
:1005880004E0E780C06A2254B25092540259F249FA
:10059800624AD24A03D5E1B8456135B5850793F774
:1005A800F70F2300F400E3E5C7F021BFB25022544F
:1005B80092540259F249624AD24A4561828091674F
:1005C800B7C600409387373023A6F6200F100000E7
:1005D800938741D8884F83A741CA316713073730BB
:1005E800F053B7071000FD17918F99833A0523A69A
:1005F800E6205D8D82804111B7170040985F3AC6AA
:10060800945F3247E39CE6FE324541018280411106
:1006180006C6D53703C6C1D5058A15CA9307303330
:100628003307F502B337F5023983CA07938541D8F2
:10063800D98FD849938641D801456307F70063707D
:10064800F7023385E740DCC9B24041018280E547C3
:100658003307F502B337F5022583DE07C1BF3765D7
:100668003D0809C637856F0813050590198D3E9515
:10067800DCCAD9BF0327C50F8346B50083A741F855
:1006880058439386160295829043FD1693F6F60F0B
:1006980010C3D04350C3904710C7D04750C7904BA2
:1006A80010CBD04B50CB904F10CFD04F50CF91C6DE
:1006B8001307070293870702C1BF82808347E501BA
:1006C80093F7E70FE1E32A870345F50145ED034674
:1006D80007018346870019C68345A70283C7D1D57A
:1006E80063E7F50093F70601C5C3814709C6C18AC8
:1006F8008357071581C603574715BA97D1C703A76C
:1007080081F0411122C406C67D548326070863F38D
:1007180086003684184375FB938681D483C64601C8
:10072800138781D4139686016186635606029387E0
:10073800C71395830347E701BA97635F06021D8CC9
:1007480083A741BA82973335A400B24022441345A7
:10075800150041018280858A9387C71289CA8A0752
:100768009387F7031305D007B3D7A702E1B7860726
:10077800FD071305D003CDBFE373F4FC3705C0A80C
:100788002A9475BF014582808280011126CA03A779
:1007980041C94EC606CE1C5F22CC4AC89983858BB8
:1007A800938441C9B9CF1C5F1384C1F693F7F7F955
:1007B8001CDF83C7C1F693F7070499CB83A741BA17
:1007C800829708C883C7C1F693F7F70B2386F1F61B
:1007D8008547A302F4008347440093F7070489EB95
:1007E80083A741CA5844B8D3930700FC2302F400F6
:1007F8008307640063D7070083A701C99C432303C9
:10080800F40098401C5F8583858BC1CBF5571CDFAE
:1008180001000100010001000100010001000100C8
:1008280001000100010001000100010001000100B8
:1008380001000100010001000100010001000100A8
:100848000100010001000100010001000100010098
:100858000100010001000100010001000100010088
:100868000100010001000100010001000100010078
:100878000100010001000100010001000100010068
:100888000100010001000100010001000100010058
:1008980083A741CA13075004B8CB98401C5F9183C3
:1008A800858B81CFBD571CDF83A741CA054723A885
:1008B80007049387C1F62382E70083A701C9D843B9
:1008C8000583058B19C7D843759BD8C3D843799B33
:1008D800D8C3F2406244D2444249B2490561828099
:1008E800397106DE16DC1ADA1ED82AD62ED432D290
:1008F80036D03ACE3ECC42CA46C872C676C47AC210
:100908007EC06135F250E2525253C2533255A2555D
:10091800125682567247E2475248C248324EA24E99
:10092800124F824F21617300203083A641CA9387FA
:10093800C1F6B85219CB03C72700058B19E703C7BF
:100948003700058B7DD723820700828083A701CAE1
:1009580099CB944BD04B9842518F98C294439C4763
:100968009842D98F9CC283A741CAB7C60040A8CB7A
:100978009305C003130620031387C1F683A78620B7
:10098800C18393F7F70363E9F50083A78620C18342
:1009980093F7F7036366F60083474700858BF9DF13
:1009A800828083A641CA9387C1F6B85219C703C784
:1009B8000700058B11C723820700A38207008280E6
:1009C80003C71700058B75D3FDB783A701CA99CB59
:1009D800944BD04B9842518F98C294439C4798426D
:1009E800D98F9CC283A641CA37C70040C145A8CA4F
:1009F800654683278720C18393F7F70363FBF500D8
:100A080083278720C18393F7F7036364F600BC52FA
:100A1800EDF3828003A741C9AA87185F1583058B68
:100A280025EF0345150015051377C51F19C6B386AD
:100A3800E70083C626002300D60085C583C621F7B4
:100A4800094593F60604B1CAB386E70083C63600A3
:100A5800054693F5F6066392C504E206E18663CE81
:100A680006023385E7008347150003470500A20700
:100A780093F70770D98F93960701C18213F6064042
:100A88001387C1C919C693E606802310D70001450C
:100A980082802310F700E5BF0545828083A541CAFF
:100AA800138841CA94459387C1F613970601418379
:100AB80093F816203A86638F080293F60620CDC66F
:100AC80083C62700B708001093E616002381D700D5
:100AD80093060019B4D1930600F82382D70083A5A2
:100AE80041C9D455F19A93E62600D4D59441B3E68A
:100AF800160194C19376261081CE1376061041C252
:100B080083C6C1F693E616002386D1F62394070020
:100B180003C647001347F7FF420762066186418311
:100B280083260800635F0600131617016350060644
:100B3800AC520D466367B60005462382C700BC5217
:100B4800FDFF8387C1D563DD070093170701C187C0
:100B580063D20704F052894763E4C700FC52FDFFE3
:100B68009C467D8F98C6828083C617002394070011
:100B780093E61600A380D70023820700A5BF83C68B
:100B8800370093E61600A381D70049B705462382AC
:100B9800C70045BFDC4613960701635C0600B7072C
:100BA8001000FD17FCD2938741D8904F050690CFCF
:100BB80045BFA1675D8F6DB7397106DE16DC1ADA9D
:100BC8001ED82AD62ED432D236D03ACE3ECC42CAFD
:100BD80046C872C676C47AC27EC0C935F250E2529F
:100BE8005253C2533255A255125682567247E247A3
:100BF8005248C248324EA24E124F824F21617300B2
:100C08002030938781FA138681F80346B60183C79B
:100C18005701938681FA138781F8B29793F7F70FF4
:100C28007D466361F604A300F70083471700484B2D
:100C380005463316F600A38AF600698E05EE03C64C
:100C4800960113080002814633F6C7028147B3555F
:100C5800F500858993F8F70F99C96317D600A300A3
:100C6800170182808117C1B7850693F6F60F8507AD
:100C7800E39F07FD828003A701CBB7570200938744
:100C8800279F832607091396560063580600832674
:100C980007091396660063440600FD17FDF382807A
:100CA80083A581D4938781D41386052223A0C1B854
:100CB80003D74700938785FFBA97056523ACF1B63C
:100CC8001D05930600206364E5009356370033073B
:100CD800D60023AEE1B623A0E522E1162312D60002
:100CE800231306001CC3998FE1172312F70023135F
:100CF8000700828083A701B803A781B70145631362
:100D0800F700828083D6670081E683D64700369550
:100D18009C43F5B783A701B883A681B701456393C0
:100D2800F600828003D7670011E703D74700637393
:100D3800E5003A859C43E5B783A701B803A681B7C8
:100D48002A87B305B5406314F6003A8529A8938627
:100D580087009C43E369D7FEE377F7FE2E85E3E43B
:100D6800D5FEE3F2F5FE828023AC05FE1C4191E737
:100D7800010001000CC18280BA8703A787FF6DFFBD
:100D880023ACB7FE82801DC18346E5FF1307F00F31
:100D98009147639EE600411106C69730FB1FE78026
:100DA80060B2B24081473E854101828095473E85C9
:100DB800828001E9014582800145B2402244410117
:100DC8008280411122C42A84210542059305D0045A
:100DD800418106C69730FB1FE780C0A571DDFD572E
:100DE80023200500231285002303F5002105F1B710
:100DF800411126C222C44AC083A741B806C601448D
:100E08000149938441B889E7A165CD2B05C401A8A0
:100E180003C7E7FF6317A70215C8A165AD2E984061
:100E2800832784FF6316E4029CC0FD57232C04FE2D
:100E3800230FF4FE2285B240224492440249410124
:100E4800828011E03E8983A787FF75BF3E84E5BF96
:100E5800232CF9FED9BFB9C583C751D8411122C483
:100E680006C62A842E856368F400313F0D45B240DA
:100E780022444101828083A785FF99E703C7E5FFE4
:100E88009307F00F6305F700FD3D1545CDB7238F98
:100E980085FE138541B8C93D22852244B240A1652B
:100EA8004101D5AC1545828023A201B8828083A771
:100EB800C1B999E33E85828003D727006316B7003E
:100EC80003C70700E308A7FEDC47E5B7411193977E
:100ED80005014AC006C622C426C2C1872E8963DE20
:100EE8000700393711C1453521653345A900B2409E
:100EF80022449244024941018280AA860145E5D9EB
:100F080001443D47B3578940858B8DCB83A401B9F4
:100F1800BD4791E28147A2978E070545BE943315D8
:100F28008500131405019C40C8404180829723A086
:100F3800040023A204003345240155BF0504E3132C
:100F4800E4FC0144CDBF83A781D6411122C406C663
:100F5800138481B385C7829708C00840B747030048
:100F68009387D73F3305F502B7A72600938737EC59
:100F7800B2403E9508C0224441018280184083A7B0
:100F880041D9BA971CC0D1BF011122CC938741D84F
:100F980006CE26CA4AC883C6170003A681B813849A
:100FA80041D8814713F7F70F6362D7089387C1F6D3
:100FB80003C7770091471389C1F663E0E70883C741
:100FC800C1FB918BBDEB6800EFF06029FD56630013
:100FD800D50C938781D483C737013247938481D452
:100FE80063FDE704404403C744016304D406058B4A
:100FF80039CB51473304E40263F187049730FB1F70
:10100800E780A0B8B2476373F400A28703C734012E
:10101800998F3E958387440163C20704B707C0A828
:10102800636EF502B70740573E950DA885071397DD
:10103800170032970357E7FF35D7F2406244D2448E
:10104800424905618280130790023304E402058057
:1010580065B762076187635707001D8D19E9370572
:10106800C0A801A8E37BF5FE3707C0A8B307F7407F
:101078003E9583A7C1D6829769F183278901D5DF79
:10108800EF50D123EF60410AEF50D1177DB75C4490
:10109800E385A7FA138781D403474701938481D452
:1010A800058B0DC351443384870283C73401E3F6AB
:1010B80087F89730FB1FE78040AD83C734011D8C4C
:1010C800229589BF13049002338487020580F1BFFB
:1010D8002A9609E582800505A30FB5FEE31DC5FE26
:1010E800D5BF81473307F5000307070019E33E859D
:1010F80082808507C5BF01112E8626CAAA841315CA
:1011080006019305F004418122CC06CE32C6972011
:10111800FB1FE78020722A8419C53246A6859730BE
:10112800FB1FE78040852285F2406244D244056176
:10113800828081476314F600054582803307F500F5
:101148008507B386F5000347070083C6F6FFE383E8
:10115800E6FE014582809307F6FFBE952A96631343
:10116800C5008280FD1583C715000505A30FF5FE90
:10117800FDB7814711E9014582803307F500034730
:101188000700E31AB7FE8507E319F6FE05458280D6
:1011980003A541D9828083C751D8637EF500931790
:1011A800150003A581B83E9583570500DD8D2310F2
:1011B800B500014582800D458280011126CA9387BA
:1011C80041D822CC4AC84EC652C456C206CE5AC0CE
:1011D8007D57D8C703A4C1B92A8A8149938441D8C5
:1011E800938AC1B9138981D4184481476374EA008A
:1011F800B3074741032749021CC409C7D84463F30E
:10120800E700DCC4A9E78355240085ED5C446399B5
:10121800090423A0FA00032BC40022859720FB1F92
:10122800E780406A5A8469F0832749028DCF624477
:10123800F240D2444249B249224A924A024B0561DD
:10124800A1B303450400813F5C4081CB1CC4835794
:101258002400CDDFA2894044F9B71C44C5DBC5BFD3
:1012680023A6F9004DBFF2406244D2444249B24934
:10127800224A924A024B0561828083C751D8637023
:10128800F5029317150003A581B893C5F5FF3E95A0
:1012980083570500FD8D2310B500014582800D455B
:1012A800828083C751D86364F5000145828041116B
:1012B80022C426C24AC006C62A842E89B284C53EE4
:1012C80001C504C5054515A0936504F0C205C18193
:1012D80041459720FB1FE780E05511ED83A781D793
:1012E80081C7A285114582970145B24022449244A4
:1012F8000249410182801387C1B91C4385E308C3B1
:1013080085472326050004C52311250123008500F0
:10131800A300F5002322050075B7BA87D84775FFE3
:10132800C8C7F9BF5DC1397122DC26DA4AD84ED662
:1013380052D45AD05ECE66CA6AC806DE56D262CC8D
:101348006EC63689328AAE89AA840144394D854BE6
:10135800F94C03A701B9131C3400937AF40F629770
:101368001C43938D01B9A9EF13B5FA001345150075
:10137800B3978B0063765D01930714FFB397FB0067
:1013880093950701C1815286293F1DC983A70D0086
:101398000145E29784C323A23701630409002300AF
:1013A8005901F2506254D2544259B259225A925AAF
:1013B800025BF24B624CD24C424DB24D21618280AD
:1013C8000504E31894F92145E9BF094582804111D4
:1013D80022C426C24AC006C6AA842E893284D135C0
:1013E800CA852685E93409C940C10145B24022446D
:1013F80092440249410182802145CDBF411122C456
:1014080026C24AC006C6AA842E8955342A8419C120
:101418002311050083C741D863949700239A21B903
:10142800CA852685993D014511E01945B2402244F7
:1014380092440249410182807547636BA70483A6E1
:1014480001B9411126C293143500A696944222C4CC
:1014580006C6AA87138401B9094595C613B5F700CE
:101468003947134515006373F700C5178545B395CC
:10147800F500C205C18159371C400145A69723A034
:10148800070023A20700B24022449244410182800F
:1014980009458280411106C6193C09C50845B24074
:1014A800410182800145E5BFF54763ECA70483A7A6
:1014B80001B913173500BA979843894721C7011115
:1014C80026CA06CE9334F50022CCB94793C414003B
:1014D80063F3A700451505443314A4004204418072
:1014E8002EC62685A2857D378947324609C5A2853D
:1014F8002685453B8147F2406244D2443E850561DA
:10150800828089473E8582802396A1B82397B1B807
:101518008280411106C623ACA1B80295B24023AC23
:10152800A1D8014541018280994763E8B7009397A4
:101538002500938581DABE9588C18280411106C64F
:1015480022C426C2EFF0CFF571468145138581DAB2
:101558004136138441D8130640028145138541D88A
:10156800853E23AE01B823AC01B883C741D69305A5
:10157800101013D527008D8B3E958D473305F50246
:101588009947938401B935051375F50F2301A40014
:101598003305F5021305050F9720FB1FE780802907
:1015A80088C031CD03462400994781453306F602A9
:1015B8001306060F313E9C40034724009387070F0C
:1015C800938401BA0A079CC0BA9723A4F1B8EFF034
:1015D800BF8D292E834714009840B716050013962F
:1015E80027003A96938646ED14C21386270085078E
:1015F80093F7F70F8A07A300C400BA9794C3B240C1
:101608002244924441018280138741D883471700BE
:101618008346270063FED70083A601BA1386170006
:10162800A300C70013972700369708C33E8582801A
:101638009307F00FE5BF1C41638F071241777D8F39
:10164800B706002089476319D71203574500630579
:101658000712411126C21946AA849305F00F5905AD
:1016680006C622C44AC0313605478D47630EE50ECB
:101678009C4499C7D85899476308070E985C6DC76A
:101688001306C0038145138581D499341306C0031A
:10169800A685138581D49720FB1FE780C02D138969
:1016A80081D40357C900938781D409E71307001031
:1016B8002396E70003C7E70001E705472387E7000C
:1016C80003C7F70001E76D47A387E70003C70701D2
:1016D80001E715472388E70003C7170101E7054716
:1016E800A388E70003C7570109E703C70701A38ACF
:1016F800E70003C7270101E751472389E70003C72C
:10170800E70115E383C647011307C0021396860154
:1017180061866348060013F716001337170013078E
:10172800D702238FE70003C7370115E383C64701B4
:101738001307C0021396860161866348060013F7F3
:101748001600133717001307D702A389E70003C74A
:10175800D40101E70947A38EE7009C5781C7829708
:101768002395A1D8E13B8147B240224492440249E3
:101778003E854101828089473E858280011122CCC5
:1017880006CE2A842EC6EFF00FFCB245F240818DBA
:1017980033A5A502229562441375F50F0561828071
:1017A800011122CC06CE2A842EC6EFF0CFF9B2451D
:1017B800F240818D33A5A5022295624442054181FC
:1017C80005618280011122CC06CE2A842EC6EFF054
:1017D8008FF7B245F240818D33B5A5022295624458
:1017E80005618280138781D41857011122CC06CE57
:1017F80026CA4AC84EC61384C1F631CF138981D48C
:101808000297138741D803576700AA84938941D860
:101818002DCFBA876373A700AA87C207C183BA8688
:1018280063F3E400A686C206C182958F5147635EC2
:10183800F7048327C90291C3829785472304F400DC
:10184800EF50A17C23939900F2406244D24442496C
:10185800B24905618280834784008DE783479400FD
:10186800850793F7F70FA304F400A18BF1DF8547F1
:101878002314F4006244F240D2444249B24905615B
:101888006F50217EA3040400F5B783478400CDDFA1
:10189800D5B7138781D45857011122CC06CE1384AB
:1018A80081D401C72AC602973245938741BA01CD30
:1018B80088C337450020130565BAA139F240624450
:1018C80001450561828003074401635C07001387B3
:1018D80041D8232C070037470020130767B598C362
:1018E800C9BF374700201307E7B8D5BF011122CC7D
:1018F800938781D4884706CE26CA4AC801E9054598
:10190800F2406244D244424905618280138481D402
:101918005C58F5D7185C65D77000854582971844E0
:10192800B247E30EF7FC0355C4009305E004972083
:10193800FB1FE78020F0138741D848CF938441D814
:101948005DDD0356C4009305F00F0149EFF04FF831
:101958008347E400D04C634DF90032859720FB1F84
:10196800E78040F6014523AE040023A0040249BFE6
:101978008355C4000844185CB38725038981050989
:101988003E9508C20297E9B7411122C4938781D4D2
:101998009C4726C206C64AC0938441D891EBC84CDE
:1019A8002DE1B2402244924402490145410182801E
:1019B800138481D41C5CE5D7DC4C91EB0355C4003F
:1019C8009305E0049720FB1FE780C0E6C8CCC84C0D
:1019D80079D50356C4009305F00F0149EFF04FEF96
:1019E8008347E400D04CE35CF9FA8355C4001C44F7
:1019F80033852503898105093E951C5C08C28297B9
:101A0800C5B79720FB1FE780E0EB23AE040023A0B7
:101A1800040241BF01114EC6938781D49C4726CA50
:101A28004AC852C406CE22CC56C25AC02A8AAE84AC
:101A380032896388071E938981D403A74903630009
:101A480007127D47636FA710138741D8832AC70100
:101A5800138441D8639A0A0803D5C900956593850C
:101A680015E09720FB1FE780E0DC48CC2A8665C993
:101A780083D5C90083A7490303A589008981829773
:101A880083A78900832AC4011CD089476316FA08F2
:101A9800C1476396F40C83D5C9009147938505FC2B
:101AA800B3C5F5028A05D69503C705009307A005B7
:101AB8006313F70A83C71500639F47094A8526867B
:101AC80091059720FB1FE78000EB5C4C56856391DE
:101AD80057130145F2406244D2444249B249224A6E
:101AE800924A024B056182801850E380E7FA03D5D9
:101AF800C9009565938525E09720FB1FE78080D373
:101B0800AA8A31CD83D5C9002A8683A7490303A5AC
:101B180089008981829795BF8D47631BFA00C14769
:101B2800639FF40283D5C900938545FDF199A5BF4C
:101B380091476318FA006394440383D5C900A1153B
:101B4800F5B7C147631DFA00A14763EA970083D53B
:101B5800C900C115E1BF5C4C5685639F570B2945E9
:101B680095BF1307F006636AA708930A05FE19478D
:101B7800B3CAEA0203D7C900B38AEA02BE9A9387B6
:101B880041D89C53138B41D8639557010324CB014B
:101B98001DE003D5C9009305E0049720FB1FE780EB
:101BA80060C92A844DDD83D5C90083A749032A86E5
:101BB80089815685829791451307A0058981939756
:101BC8002500A29783C607006393E60483C617001F
:101BD800639C460385058A052686A2954A85972033
:101BE800FB1FE78040D98327CB01E38487EE22855A
:101BF8009720FB1FE78000CDE9BD1307E007E360EE
:101C0800A7F6930A05F9BDB783D5270045BF8327F3
:101C1800CB01E38687F422859720FB1FE78080CAE3
:101C28003DBF83A501DA85DD91479306A005898329
:101C3800139727002E9703460700E312D6F20346B0
:101C48001700631C460185078A072686BE954A85C4
:101C58009720FB1FE78020D2ADBD83572700C1BF67
:101C6800938781D498471DCF985F0DCF8546631B16
:101C7800D502411122C4138441D8504C06C619CE4E
:101C880083D5C700085089810297484C9720FB1FCD
:101C9800E78040C3232E040023200402B2402244DC
:101CA800410182808280011122CC938781D456C25F
:101CB80083AA870026CA4AC84EC606CE52C42A89B5
:101CC800AE84B289138481D463870A1C1C5C99EBA7
:101CD8002945F2406244D2444249B249224A924AD2
:101CE800056182805C58EDD7FD4763E5A70C9387B3
:101CF80041D8DC4F138A41D8B9C7084483270A0260
:101D0800639FA70489476317F906C147E392F4FC68
:101D18000355C4009147130505FC3345F502931795
:101D280025000325CA012686CE853E959307A00582
:101D38002300F500A300250111059720FB1FE7806C
:101D480080C3014579B70355C4009305E004972083
:101D5800FB1FE78020AE232EAA0045F195BF8355CF
:101D6800C4005C580326CA01898182971C44232039
:101D7800FA0249BF8D47631CF900C147E39AF4F49E
:101D88000355C400130545FD9377C5FF59BF914717
:101D98006318F900E39E24F30355C4002115EDB739
:101DA800C147E317F9F2A147E3E497F20355C400EA
:101DB8004115D9BF9307F00663E7A706930705FE09
:101DC8001947B3C7E7020357C400B387E702BE9AAF
:101DD800938741D8DC4F138A41D8A9CF83270A02B9
:101DE800639657070325CA0191461308A005FD55B8
:101DF80093D72600C207C183139727002A97034663
:101E08000700631406078348170003562700639CDE
:101E18002805B306D64063C6960485078A07268632
:101E2800CE853E9519BF9307E007E3E3A7EA93073A
:101E380005F951BF0355C4009305E0049720FB1F23
:101E4800E780409F232EAA0051F959B58355C40055
:101E58005C580326CA0189815685829723205A0334
:101E680051B7A300B700B28661B70356C400B38563
:101E780096009105130606FCE3FCC5E413863400BE
:101E88001376C60F1106B29623000701A300270197
:101E98002311D70059B7938741D8DC4F138A41D80B
:101EA800A1C30325CA0191461308A005FD5593D780
:101EB8002600C207C183139727002A970346070005
:101EC8006312060583481700035627006398280104
:101ED800B306D640E3D396F4A300B700B286C1BFD9
:101EE8000345E4008357C4009305E0043305F50275
:101EF800420541819720FB1FE780C093232EAA004B
:101F08004DF1F9B30356C4008345E400B385C50217
:101F1800338696001106E3EDC5DA8DB70145828058
:101F280083C705002300F50083D72500A300F5002B
:101F380083D72500A1832301F50083C74500A301AA
:101F4800F5001145828023A601BA23A401BA828034
:101F580029C1411126C206C622C4AA8401458DC5DD
:101F68002E84B7E506002285414693854541972092
:101F7800FB1FE78040A083C7040005452306F40043
:101F880083C71400A306F400B240224492444101DE
:101F9800828001458280011122CC26CA06CE0947DB
:101FA800AA8432846381E50441468147639BC50066
:101FB800638FE6006397B6000DA841478147638E9B
:101FC800E600F2406244D2443E85056182808A85FB
:101FD8002285BD3F41468A8519A88A85953F414695
:101FE8008A85228531A0E39AB6FC2E86A2852685AD
:101FF800EFF02F94AA87F1B723A4A1BA828023A671
:10200800A1BA8280011122CC0354650006CE26CAEB
:102018004AC84EC641C083298500AE842A8803C9B0
:102028000900814713178901618763550702B14782
:10203800054563FA8704511442040355280041807A
:1020480033878900A2864E868545EFB0F045B337C1
:10205800A00085077D14135569004204058913798A
:10206800F90341802380F400A380A4002381240184
:1020780023928400014719C01387190098C409479F
:102088006383E7000145F2406244D2444249B249C1
:10209800056182800545C5BFC167F917630AF50266
:1020A800D94763F7B702011122CC2EC606CE2A847F
:1020B800EF70D033B2456368B50022856244F240C0
:1020C80005616F902042F2406244054505618280B7
:1020D80005458280C167F9176314F5006F701031E8
:1020E800411106C6EF90003011E15D45B240410153
:1020F800828091476394F502834705002300F60028
:102108008347250003471500A207D98F2311F6003E
:102118008347350001452302F600828011458280FD
:102128004111814522C426C206C6AA84392D2A84B3
:1021380019E583A781BA81C7F94526858297228543
:10214800B240224492444101828039714ED656D21F
:102158005AD006DE22DC26DA4AD852D4AA8A2E8B36
:10216800B28941EF36C6BD37CD45EF707038AA84C5
:102178004D492DC9B246054A238034010544630AF6
:102188000B00B68513851400029B05051314050181
:102198004180E20993D9894163D30902C145568533
:1021A800EF904031654905E933868400A28526858C
:1021B800EFB000742A8905E1310442044180914757
:1021C8002C085685231CF10026CE231D8100EF80A4
:1021D800F03D2A8901C963070A0026859710FB1F6D
:1021E800E780406EF25062544A85D2544259B2593F
:1021F800225A925A025B21618280BA84014AADBF99
:10220800011122CC26CA4AC84EC606CE2A89328473
:10221800B689253FAA8419ED83A7C1BA81CF05479E
:102228006317E40003C4090005041374F40FA285BE
:102238004A858297F240624426854249D244B2498F
:1022480005618280AE86B72505000147054693855E
:1022580085F27DB783D705002300F50083D70500F5
:10226800A183A300F5000945828083D705002300D8
:10227800F50083D70500A183A300F50083D72500C7
:102288002301F50083D72500A183A301F50011459B
:10229800828083D705002300F50083D70500A1833A
:1022A800A300F50083D725002301F50083D7250077
:1022B800A183A301F50083C755002302F50083C756
:1022C8006500A302F50003D5850019054205418183
:1022D800828083D705002300F50083D70500A183FA
:1022E800A300F5000945828083D705002300F50087
:1022F80083D70500A183A300F50083D72500230118
:10230800F50083D72500A183A301F500114582803C
:1023180003D54500060542054181828083D7050023
:102328002300F50083D70500A183A300F50003D59A
:102338002500090542054181828083D705002300D5
:10234800F50083D70500A183A300F50083D72500F6
:102358002301F50083D72500A183A301F50003D548
:102368004500110542054181828083C7050023008D
:10237800F5000545828083D70500411122C406C6B1
:102388002300F50083D705002E841105A183A30E31
:10239800F5FE83D725009505230FF5FE83D7D5FFD6
:1023A800A183A30FF5FE03C6F5FF9710FB1FE78077
:1023B800805C03454400B2402244110541018280FB
:1023C8008947639CF50083471500034705000145CD
:1023D800A207D98F2310F60082801145828003D787
:1023E8000500D94763FEE702011122CC06CE2EC6AE
:1023F8002A84EF70A07FB24683D70600636DF5008C
:1024080022856244F240B7250500014709469385B5
:10241800C52505611DBBF2406244094505618280FE
:102428000945828091479DC583460500FD15C20573
:102438008547C1816392F60213D725008D8991479C
:1024480091E9914701CB05052301D6002310E60049
:1024580048C281473E85828009479147E39CE6FE52
:10246800C94733D7F502B3F5F502D1BFAE86B72514
:1024780005000147114693852527C1B993F7350013
:1024880091EB8981914789C52310B60048C28147DD
:102498003E8582809147EDBF03C745008947631A8F
:1024A800F702011122CC2A84C84506CEAE86014720
:1024B80019C52EC69D45EFE03F88B2462A8722857A
:1024C8006244F240B725050019469385A5290561A0
:1024D800ADB90945828099E111458280834705009D
:1024E80005472311F600E379F7FEFD1593F5F50F7F
:1024F80033D7F502B387E702E390F5FE050548C236
:102508002310E6000145828083C745000947AE864F
:102518006385E70041476399E700B7250500014750
:1025280021469385E53715B1094582802310B60009
:1025380091E1014548C201458280AE86B725050074
:10254800014729469385A52D09B12310B60091E1CD
:10255800014548C201458280AE86B725050001477E
:1025680031469385052FD5B62310B60091E1014574
:1025780048C20145828003D74500854763FDE702CD
:10258800011122CC2A84884106CE0DC12EC685456C
:10259800EFE08FFA2A8722856244B246F240B725D7
:1025A8000500394693858531056145B6F240624498
:1025B8000945056182800945828091479DC5034789
:1025C80005008D46914763F2E602FD15C205C181FB
:1025D800B3C6E5023308D702639905010505231040
:1025E800D6002311E60048C281473E85828083C712
:1025F80045000947AE866385E70041476399E700D0
:10260800B7250500014741469385E5373DBE094595
:102618008280B335B000139525008280011122CC49
:1026280026CA06CE03C785008547AA842E84494654
:102638006311F702EFF01FAA835724004915130608
:10264800200963C8A700F2406244D24409450561E5
:1026580082800347940085476314F70013660604D5
:10266800484011C58D4532C6EFE00FED3246A286CF
:102678006244F2402A872685D244B725050093850F
:1026880045320561D9B48D4763FFB702834715000A
:1026980003470500F115A207D98F2310F6008347D9
:1026A800350003472500C205A207C181D98F231130
:1026B800F6002312B60089C5110508C601458280B7
:1026C80023240600E5BF11458280011122CC2A840B
:1026D800884506CEAE8611C52EC69545EFE0CFE5F6
:1026E800B2462A8722856244F240B725050059463A
:1026F8009385253405616FF05FA5B335B000139558
:1027080025008280AE86B72505000147614693857E
:1027180025376FF09FA38547114563F4D702834798
:10272800160083450600A207CD8F2310F700938774
:10273800E6FF2311F70089476386F600090650C3B0
:102748000145828023220700E5BF0147814679467B
:1027580081456FF09F9F83D705002300F50083D73D
:102768000500A183A300F5000945828083C72500E1
:1027780005472300F50003D505006397E7000A0520
:102788000505420541818280C9473305F502CDBF61
:1027980003D505000A0542054181828083D72500BB
:1027A8002300F50003D5050083D725003305F5027E
:1027B800050542054181828003D50500828003D545
:1027C8000500828003D50500828083D72500230079
:1027D800F50003D5050083D725003305F502050567
:1027E80042054181828083D705002300F50083D705
:1027F8000500A183A300F50083D725002301F50078
:1028080083D72500A183A301F50003D54500110551
:1028180042054181828083D705002300F50083D7D4
:102828000500A183A300F50003D52500090542058D
:102838004181828089471145639BF60083471600D2
:10284800834606000145A207D58F2310F700828032
:1028580003D70500D947AE8663FAE700B725050018
:1028680001470D469385E5756FF09F99094582806C
:1028780011456393A6028347160083460600014567
:10288800A207D58F2310F70083473600834626001A
:10289800A207D58F2311F700828083C7250005473B
:1028A800FD1793F7F70F6361F70483D705008DCF02
:1028B800011122CC2A84C84106CE15C12EC68945ED
:1028C800EFE08FC72A8722856244B246F240B725D7
:1028D800050015469385457705616FF07F92F240B4
:1028E8006244094505618280094582809547114502
:1028F80063F9D706411122C426C24AC006C68347D7
:102908001600BA8403470600A2073284D98F2390A1
:10291800F400834736000347260093054400A207C6
:10292800D98F2391F40089472382F400094613853F
:10293800540036899710FB1FE780E0039307A9FF2F
:102948002394F4009947631BF90023A60400B240BE
:102958002244924402490145410182801904C0C4BD
:10296800FDB7828083D705008DCF011122CC2A8440
:10297800C84106CE15C12EC68545EFE0EFBB2A87B4
:1029880022856244B246F240B72505001D4693856C
:10299800857905616FF0DF86F2406244094505617B
:1029A80082800945828099476395F60489474111D9
:1029B80006C62302F7008347160083460600B28541
:1029C800A207D58F2310F7008347360083462600D9
:1029D80003464700A207D58F130557002311F700B8
:1029E80091059710FB1FE78000F9B24001454101AE
:1029F8008280D14711456394F600C1474DBF82805C
:102A080083D705008DCF011122CC2A84C84106CE78
:102A180015C12EC68945EFE02FB22A872285624468
:102A2800B246F240B725050025469385457A0561EB
:102A38006FF00FFDF2406244094505618280094547
:102A4800828089471145639BF600834716008346B9
:102A580006000145A207D58F2310F70082800111D7
:102A680022CC2A84C84106CEAE86014719C52EC697
:102A78008545EFE06FACB2462A8722856244F24072
:102A8800B72505002D469385057C05616FF04FF746
:102A980011456393A6028347160083460600014545
:102AA800A207D58F2310F7008347360083462600F8
:102AB800A207D58F2311F7008280011122CC2A8426
:102AC800C84106CEAE8611C52EC68545EFE0CFA615
:102AD800B2462A8722856244F240B725050035466A
:102AE8009385657C05616FF0AFF193F7160011458A
:102AF80089EB89476387F60085822312D70010C3C4
:102B080001458280011122CC2A84C84106CE15C114
:102B18002EC68545EFE04FA22A8722856244B24639
:102B2800F240B72505003D469385C57C05616FF0E9
:102B38002FEDF240624409450561828083D7050084
:102B48008DCF011122CC2A84C84106CE15C12EC6CC
:102B58008945EFE06F9E2A8722856244B246F2409B
:102B6800B725050045469385257D05616FF04FE93A
:102B7800F2406244094505618280094582808547A3
:102B880063FCD7022304A700A304B70083471600F9
:102B980083450600A207CD8F2310F7009387E6FF31
:102BA8002311F70089476386F600090650C30145DB
:102BB800828023220700E5BF1145828001478146B4
:102BC8004D4681456FF0CFE38D47114563FBD70232
:102BD8008347160083450600A207CD8F2310F70010
:102BE8008347360083452600A207CD8F2311F700BF
:102BF8009387C6FF2312F7006386A600110610C745
:102C08000145828023240700E5BF011122CC2A84D4
:102C1800884506CEAE8611C52EC69545EFE0CF9104
:102C2800B2462A8722856244F240B72505005D46F0
:102C38009385E57E05616FF0AFDC854711456397A5
:102C4800F6008347060001452300F700828001470C
:102C58008146654681456FF0AFDA011122CC2A849E
:102C6800C84106CEAE86014719C52EC68D45EFE090
:102C7800AF8CB2462A8722856244F240B7350500F8
:102C88006D469385E58105616FF02FCC011122CC4B
:102C98002A84C84106CEAE86014719C52EC68D4581
:102CA800EFE08F89B2462A8722856244F240B73521
:102CB800050075469385E58105616FF00FC901111F
:102CC80006CE2EC6EF80A06E01C9B245F24003556C
:102CD800250005616FB09026F24049450561828064
:102CE800A38C01BC238C01BC23A001BC23A201BC82
:102CF80023A401BC23A601BC23AE01BA23AC01BAAC
:102D0800938741DC3707B40098C33747A000D8C37E
:102D1800370710009306070A94C7B7065000C10684
:102D2800D4C7930607054107D8CB3707D007410713
:102D380098CF3707840398D337C70700130707B816
:102D4800D8D3416794CB93060701130717F8D8D750
:102D5800417723AE070094D798DB8280011126CAF9
:102D6800AA84214522CC06CE2E8432C636C43AC265
:102D7800EFE02F841DC9A24612473246930700FD93
:102D88002300F5009947A30095002301F5002303CC
:102D9800D500A303E5002312C500AA852285624455
:102DA800F240D24405616FE00F8BF2406244D24496
:102DB8000561828023A0A1BC828023A2A1BC82805D
:102DC80023A4A1BC828023A6A1BC8280011122CCAD
:102DD8004AC806CE26CA2A890144B3048900636812
:102DE800B400F2406244D2444249056182802EC652
:102DF800EFE06F9593170501C183A183B245238046
:102E0800F4009307140093F7F70F850463F9B700EC
:102E1800CA9709042380A7001374F40F7DBF3E846A
:102E28007DBF411122C4138481DF03556400C1674B
:102E380006C6FD17630BF50003C6C1C6938501BD21
:102E4800EF80E037FD572313F400B24022444101DC
:102E5800828009C925151375F50F1335850E13459D
:102E6800150082800145828023800500F94763E2CE
:102E7800C708797122D426D24ECE56CA5AC806D669
:102E88004AD052CC5EC63684B289AE8A2A8B814437
:102E980063FF3405B307940003CA070013891400BD
:102EA8001379F90F63050A04B3072A0163C1F9040A
:102EB800B307240183CB07005E85613F0DC99307E3
:102EC800FAFF2380FA0063906B031305190022951B
:102ED800B250225492540259F249624AD24A424BA1
:102EE800B24B45618280D29493F4F40F55B70145F3
:102EF800C5B701458280011122CC26CA4AC84EC6F0
:102F0800938781DF06CE2E89D0CB8CCBC8C7AA8405
:102F180041469305F00F4A85EFE0AFA58549138434
:102F280081DF631735030848C1454D354146930590
:102F3800F00F2685EFE0EFA3054963132503484406
:102F48006244F240D2444249B249C1450561BDBD1F
:102F5800414681454A85EFE0CFA1E31935FDE1B748
:102F6800414681452685EFE0CFA0E30A25FDF240E2
:102F78006244D2444249B24905618280011122CC9F
:102F880026CA4EC6AE84AA8913060002138581DFBD
:102F9800814506CE4AC8EFE0AF93138981DFA38746
:102FA80091C6A3013901EFB0207B138481DF8547E7
:102FB80019C1814749452300F400F2406244D244D4
:102FC8004249B24905618280814781CD19C9854747
:102FD800631BF50083C7550093E707FCA382F50040
:102FE80085473E85828089476317F50083C755006A
:102FF80093F7F703E5B70D478547E314E5FE03C7E5
:1030080055001377F70313670704A382E500D1BFC0
:1030180081478DC105C103C755009306000C85473C
:103028001377070C6308D700930600048D476303E2
:10303800D70089473E858280411122C4005D06C6BB
:1030480026C21DC8AA84085009C59710FB1FE7802F
:103058006087485009C59710FB1FE780A086085471
:1030680009C59710FB1FE780E08522859710FB1F95
:10307800E780408523AC0402B240224492444101D7
:103088008280938781DF09E903C7270013858701B9
:1030980011C7138501BB828013858701828003C510
:1030A800A1DF828003A541E0828003A581E08280C0
:1030B80083A7C1E088438280938781DFD44B9842FD
:1030C800050798C203C537009307F00F6305F5009D
:1030D80091656FE04F8C8280011122CC06CE2E8440
:1030E80032C6EF80A03B9147B245631EF50083A727
:1030F800C1BC85C303A30700630D03002285624496
:10310800F2400561028383A741BC81C703A347003E
:10311800E5B7F2406244054505618280011122CC81
:103128002A840355450006CE26CA4AC84EC6EF80F3
:10313800001835C52A89834405008349C500ED3D3B
:103148004A85EF90200E03554400EF80A030138984
:1031580081BD83470900A1CB6397970483C591BDBF
:103168002685EFF0DFB519E1230009000355440077
:10317800EF80C0329147631DF500938781DF835646
:10318800440003D767006395E6007D572393E70063
:10319800F2406244D2444249B24905618280814981
:1031A8009304F00F6DB79307F00FE381F4FC8346A7
:1031B800640003564400034524004E87A685EFF0BB
:1031C800FFB96DB779715EC6AA8B2E8552CC56CAE7
:1031D8005AC806D622D426D24AD04ECEAE8A328BD0
:1031E800368AEF80C00C79CD045D2A89E1CC9C50E9
:1031F800614599C3130540039C5481C75105420595
:10320800418163050A00710542054181DC5081C78F
:10321800590542054181EFD0DFB92A8445C5614689
:103228008145EFD0FFEA83C941DF639409008349F0
:103238000900930700FD2300F400A947A3007401C7
:103248002301F400230364018C5023125401130555
:10325800840191C908C47146930A44039700FB1F6F
:10326800E780607156858C5491C948C45146930AC9
:1032780045019700FB1FE78000705685630C0A0024
:1032880008C87146D285930AC5019700FB1FE780DD
:10329800806E5685CC5099C548C859469700FB1F83
:1032A800E780606DA2854E85EFD0FFBA2254B250F8
:1032B8009254F249624AD24A424BB24B4A85025969
:1032C80045619DBBB250225492540259F249624A58
:1032D800D24A424BB24B4561828001114EC6AA893F
:1032E8002E854AC806CE22CC26CA2E89EF70307C9D
:1032F80021C583C441DF99E0834405001945EFD017
:103308005FAB2A8415C981451946EFD07FDC930746
:1033180000FD2300F400B947A30034012301F400A1
:1033280023122401A2856244F2404249B24926850B
:10333800D24405616FD03FB2F2406244D244424960
:10334800B2490561828039715ECEAA8B2E8526DA54
:103358004ED652D456D25AD006DE22DC4AD8AE8493
:10336800328BB68A3A8ABE8942C6EF70507421C938
:103378002A894145EFD0FFA32A8431C141468145BE
:10338800EFD01FD503C541DF19E1034509009307B5
:1033980000FD2300F400BD472301F400B247A30059
:1033A80074012312940023046401A3045401230527
:1033B8004401A30534015CC4A285EFD0DFA9F25013
:1033C8006254D2544259B259225A925A025BF24B71
:1033D80021618280797126D2AA8439454AD04ECE9D
:1033E80006D622D42EC6B2893689EFD09F9C21C139
:1033F800B2459307000D2310F500B1472A84231224
:10340800B5002301F500CE85190519469700FB1F65
:10341800E780605623062401A2852254B25002593F
:10342800F24913F5F40F925445616FD0DFA2B25000
:10343800225492540259F24945618280411126C2B0
:10344800938481DF03C7340006C622C44AC09307A9
:10345800F00F630AF7042A893945EFD09F952A842B
:1034680039C1930700FD2300F500A30025012301BE
:103478000500938584010D0519469700FB1FE78019
:10348800804F83D78400A28503C534002315F40038
:1034980083C714002306F4002244B2409244024930
:1034A80041016FD05F9BB2402244924402494101DE
:1034B8008280011156C2AA8A314526CA4AC84EC618
:1034C80052C406CE22CCAE84328AB6893A89EFD06D
:1034D8005F8E39C52A842685EF70705D1DCD034542
:1034E8000500930700FD2300F4009D47A300540145
:1034F8002301F400231294002313440123143401FC
:1035080023152401A2856244F240D2444249B249BB
:10351800224A924A05616FD01F9403C5B1DFD1B723
:10352800F2406244D2444249B249224A924A056171
:103538008280397162CC2A8C594526DA4AD84ED60F
:1035480052D456D25AD05ECE06DE22DCAE8432C6C3
:1035580036C4BA8B3E8BC28A468A83590104034912
:103568004104EFD01F8535C53246930700FDA246BA
:103578002300F5009547A301C500A3008501230199
:10358800F5002A8419461105A9C2B6859700FB1FC4
:10359800E780603E23066401230A24012315740191
:1035A800231754012318440123193401A2856254B6
:1035B800F2504259B259225A925A025BF24B624C6B
:1035C8002685D25421616FD01F898145EFD05FB025
:1035D800D1B7F2506254D2544259B259225A925A2F
:1035E800025BF24B624C21618280411122C4138438
:1035F80081DF8347240006C626C29DC7AA851946CF
:10360800138501BB9700FB1FE780E03603452400C4
:10361800938501BBEFF05F9B2244B240138501BB49
:10362800924441016FB00014B240224492440145D3
:1036380041018280411126C2938781DF06C622C4D8
:103648004AC003C737009307F00F938481DF6302F2
:10365800F7042A892945EFD0CFF52A841DC9930795
:1036680000FD2300F500A147A30025012301F50073
:1036780083C72400938501BBA301F50019461105F2
:103688009700FB1FE780202F03C53400A285EFD0E9
:103698008FFC03C724008D47631FF70083A781BCF5
:1036A80099CB03A38700630803002244B2409244E5
:1036B800024941010283B240224492440249410135
:1036C8008280797122D406D626D24AD04ECE52CCE8
:1036D80056CA09445DC92A8903550500AE89514473
:1036E800EF70F03CAA8455C19387C1C683C73700E1
:1036F8008546BA8AFD1793F7F70F494463F7F6082A
:103708000347C500A1476314F700639009089C5C50
:103718004544A5EF9165938545711305C00297004F
:10372800FB1FE780201188DC2A8A4D4439CD130617
:10373800C0028145EFD0DF998357090093064A00FC
:1037480036852311FA0071469305490036C697005D
:10375800FB1FE780402289472300FA0003C5C40005
:10376800B2460356090083C5C1C661151335150055
:10377800EFA0C0462A8463860900CE852685EF809F
:10378800505501C42685EFF03F8B2285B250225454
:1037980092540259F249624AD24A4561828083C7EB
:1037A800F1C60547FD1793F7F70F6378F7088947C0
:1037B80051C6011122CC26CA4AC84EC652C406CEEA
:1037C800AA89368AB2842E89EF70702E2A84D1474E
:1037D80029C9485509C59700FB1FE780A00EF14588
:1037E8002685EFD05F9148D4CD4705CD8346C400E8
:1037F80021478147639FE600630D0A000347A5013F
:103808000356050193062501AA854E85EF80C0441D
:10381800AA8703474400630F090013676700230260
:10382800E400F2406244D2444249B249224A3E8509
:103838000561828013674700DDB7C9473E858280EE
:10384800E14763EAA70093171500138541DC3E950D
:1038580003550500828041657D158280011122CCC7
:103868002A842E8526CA06CEAE84EF7050240DCD4C
:10387800B7470F009387F723094563E2870281451D
:103888000A854146EFD0DF84A685231081000A858A
:10389800418023018100A3010100EFA0A016F2409E
:1038A8006244D244056182804945D5BFA386A1C63A
:1038B80082806FA0C02B797152CC2A8A328522D49B
:1038C80026D24AD04ECE56CA5AC85EC606D662C45A
:1038D800AE8BB28A368BBA843E89C2894684EF7031
:1038E800101D15C92A8C63140A0213774B008347ED
:1038F800450015CF93E727012302FC008DEC631CDC
:103908000902639A090205E8ED9B2302FC00832B58
:103918008C03639F0B06B250225492540259F24909
:10392800624AD24A424BB24B224C45618280F59B97
:1039380093E70701D1B793E747002302FC0001CCC6
:103948001C484146A2852324FC0213058C019700DC
:10395800FB1FE780400263910B02D5D80325CC02F8
:1039680009C59700FB1FE780E0F5F1452685EFD0F4
:103978008FF82326AC0261BFE30B09F80325CC02BC
:1039880009C59700FB1FE780E0F3F1454A85C5B7F5
:103998009DC483A70B0299EB916593853571714599
:1039A8009700FB1FE78000E923A0AB0203A50B02E9
:1039B80019C57146A6859700FB1FE780C0FB638881
:1039C800090283A74B0299EB9165938525715945A7
:1039D8009700FB1FE78000E623A2AB0203A54B027A
:1039E80019C55946CE859700FB1FE780C0F81DC44E
:1039F80083A78B0299EB91659385157151459700C3
:103A0800FB1FE78020E323A4AB0203A58B0219C5A3
:103A18005146A2859700FB1FE780E0F52254B2507B
:103A28009254F249B24B224CCA865A860259424BEA
:103A3800D6855285D24A624A45616FF0AFF80111C6
:103A480026CA52C406CE22CC4AC84EC62A8AAE849A
:103A5800EF70F00535C1AA893945EFD08FB52A84B2
:103A680021CD03C941DF6314090003C90900930785
:103A7800000D2310F400AD472301F400938569007D
:103A88001305340019469700FB1FE780C0EE93F733
:103A98001400858085882306F400A3069400231566
:103AA8004401A2856244F240D244B249224A4A857E
:103AB800424905616FD02FBAF2406244D24442496C
:103AC800B249224A05618280411122C4138481BB14
:103AD800084006C619C59700FB1FE780A0DE232013
:103AE8000400B240224441018280011106CE22CC5A
:103AF80026CA4AC82EC6EF70807B29CDB24503C9B5
:103B080041DF0CD5AA846314090003490500414527
:103B1800EFD02FAA2A841DCD9307000D2310F5009E
:103B2800A5472301F50083C7540093856400110558
:103B3800A30FF5FE19469700FB1FE780C0E39C54CE
:103B4800A285F2405CC46244D2444A854249056178
:103B58006FD06FB0F2406244D2444249056182801E
:103B6800797122D406D62A842EC6EF7040740DCD02
:103B78008346C5001147AA8749456393E6029C5FBF
:103B8800B24599C383C567010808EF80701DB7D691
:103B98000500938626DE100889452285EF8060108F
:103BA800B2502254456182805145DDBF83C7F1C6BA
:103BB8000547FD1793F7F70F637AF704894721CA7A
:103BC800411122C426C24AC006C6B2842E89EF70AB
:103BD800006E2A84D14705C563080900834745005C
:103BE80093E727002302F5004146A68513058401C3
:103BF8009700FB1FE78020D89C481CD48147B2401F
:103C08002244924402493E8541018280C9473E854B
:103C18008280797122D406D62A842EC6EF70206954
:103C280001CDB2452285230EB1006C08EF80F00665
:103C3800B2502254456182805145DDBF6F70007CCF
:103C4800C1671387E7FF6393E50283A741BC91EB44
:103C5800494582804945B240224492440249410183
:103C6800828003A30700E30503FE0283411122C4F7
:103C780026C24AC006C6FD172A892E84B2846394D8
:103C8800F50283A741BC91CB9C4381CB829711E578
:103C9800238C21BDA38C91BC7DBFA6854A85EFF0FE
:103CA8000F8255F9F5B72E85EF70606045D58347CB
:103CB80005000D45E39127FB22852244B2400249C5
:103CC800A685924441016FA0702761476360A704ED
:103CD8004111416722C406C626C27D172A840945B8
:103CE8006381E502C547AE846315F4002E85EFA015
:103CF800F02E93171400138441DCA29723909700A9
:103D08000145B240224492444101828009458280A3
:103D1800011106CE2AC6EFE0BFFCEF10A01BD12D83
:103D2800EF90313D938781DF130700F02391E7007F
:103D38002382070032451387C1C6FD56A300D7006A
:103D4800F2402386A1C6954505616F50D0751D7157
:103D580093970501A6CA86CEA2CCCAC8CEC6D2C43D
:103D6800D6C2DAC05EDE62DC66DA6AD86ED6C18791
:103D7800AE8463D0074603C5C1C6EFD06F872A8DCE
:103D8800138481DF63130D022165258DF640664497
:103D9800D6444649B649264A964A064BF25B625CC7
:103DA800D25C425DB25D2561828083470D001307B6
:103DB800200A639CE7000349340003552D00C165C0
:103DC8006A86FD15EFF04FB105A21387C1C60349F6
:103DD8001700130710096396E71483471D0015475A
:103DE800639EE7006A85EFF06FB36A85EFC0BFF99D
:103DF80003C5C1C6EFC0DFFF2A8D69B7394763968F
:103E0800E71403554D008567A5076314F50483255A
:103E18008D0003CA0500631B0A00850581C9194680
:103E2800138501E19700FB1FE780E0B40347040016
:103E380085476318F70E63080A00230004005285BB
:103E4800EFF0CFDF5DB789472300F400EFA05011F2
:103E580069BF096793072700631CF504032A8D00CF
:103E680063010A0C83470A0089EF83472A00034746
:103E78001A00A207D98F2314F40083473A00A3003D
:103E8800F400034704008947631DF70883470A00C5
:103E980091C72300040003450A005DB78345140059
:103EA800035584008D472300F400EF509062E5B776
:103EB800930757006319F50083278D0003C5070092
:103EC800EFF04FF71DB7F977E917AA97C207C18333
:103ED800914663EEF60083A781BCE38807F09C4314
:103EE800E38507F06A858297E31105F01DA82D0781
:103EF800631EE50083A701BCE38907EE9C43E386C4
:103F080007EE0965EA852D058297F9BF896713874A
:103F1800C7006311E50283278D0083C70700E38686
:103F280007EC9307F00FE302F9ECEA854A85EFC046
:103F38009FF27DBDB907E316F5FE83A741BCE38672
:103F480007EADC43EA85E9F34DB53D476397E704A3
:103F580003554D0089671387D700E300E5FE1387F3
:103F68009701E30CE5FCCD07E31DF5FA0357640060
:103F7800C167FD17631DF70083A741BCE38707E608
:103F8800DC43E38407E60965EA854D05B5BF83A7E9
:103F9800C1BCE38C07E49C43EDB71307E003E3924D
:103FA800E7F883472D0005476393E70E83476D00C5
:103FB800938D81BBF1E383A70D00C5CF03CA07002A
:103FC800214903457D00130C8D00E285EFF04F84F5
:103FD80083474D01A303AD0083580D010358ED003D
:103FE80003574D002A8603453D003EC283572D01E5
:103FF800E286D2853EC0CA87EFF0AFD383473D0043
:1040080095E7DD4783580D010358ED0083467D0091
:1040180083554D003EC283572D013EC06287CA8733
:1040280005465285EF70005DA301AD0083A70D0022
:1040380081C71145EFF05FA9138A81BD03450A00C6
:10404800E30505DA83C591BDEFE07FC7E30F05D827
:1040580083463D0093071003638AF60003564D001C
:1040680083450A004A873685EFE05FCF238C01BC81
:10407800ADBB034A3400A9B783A781BC034A340007
:104088001149A1D3DC4395DF014582971DBF29471C
:10409800639DE70883476D00938D81BBA5EF83A7D8
:1040A8000D00B5C703CA0700214903457D00130C5D
:1040B8008D00937725001376150089E7E285EFE0F8
:1040C8003FF52A8683470D02A303CD008358CD010F
:1040D8000358AD0103574D0003453D003EC28357C9
:1040E800ED01E286D2853EC0CA87EFF08FC48347D0
:1040F8003D008DFFDD478358CD010358AD01834650
:104108007D0083554D003EC28357ED0139B7034A00
:10411800340059BF83A781BC034A34001149D1D761
:10412800DC43C1D70145829749B70947639CE7003B
:1041380083A701BCE38B07CADC43E38807CA6A8507
:10414800829765B12D476398E70083A701BCE38E8A
:1041580007C89C47DDB70D476397E7006A868D451A
:1041680003554D0085B11947E39DE7DA93056101D1
:1041780013051031EF90B1022C0813052031EF9090
:10418800110203566D008357810103554D0063E802
:10419800C70083568D000357610163F7E600930556
:1041A8000002EFA0A06291B16374E6002313ED0052
:1041B80063F4D7002314FD000357CD008356AD00E8
:1041C80003568D0083556D0001488147EFA0C05FFD
:1041D80029B993F7150099CB83A701BC89C7DC439C
:1041E80099C30145829713C514004DB693F725006E
:1041F80099CB83A781BC89C7DC4399C305458297BE
:1042080013C5240061B693F745000145E38007B85C
:1042180083A7C1BB138481DF99CB85472302F400B0
:1042280083A781BC89C7DC4399C305458297484465
:104238002C08EF90A0662808EFF02FBB83D761DE2B
:1042480091CB130600643386C70203C5C1C69145E6
:10425800EFD02F8513C5440015BE411122C42A840E
:10426800554506C6EFF0CFDDB335A00022852244C0
:10427800B24041016FA08050797122D406D68D4793
:104288002E84631FF50003D7A50083D6850003D6C7
:1042980065000345340083D54500EFF08FA109A8D8
:1042A80089671387D700631FE50203C5250019E551
:1042B8008547B25022543E854561828083A681BBE2
:1042C800E5DA03C6360083C50600814802C202C08B
:1042D8000148814701479106EFF0AFA50545EFF08A
:1042E800AFFEF9B71387E700E304E5FC138737014E
:1042F800631AE50003C5250045DD014781460146EF
:10430800814561BFE507E305F5FA41677D178147F8
:10431800E311E5FA03C75500C947E31BF7F883D64D
:10432800E50003D6C5000355840083D5A500EFA09A
:10433800604B51C15D45EFF0AFD03335A000231C71
:10434800A10083454400035524003008EF609068BD
:1043580083578101B1FF6C0813051031EF90216478
:104368009305E10113052031EF9061638357C10183
:10437800035784006374F7002314F4008357E101A2
:104388000357A40063F4E7002315F4008355840061
:104398008357A40063F4B7002315B4000357E4005F
:1043A8008356C4000356A4000355240001488147DE
:1043B800EFA0803FF5BD8547231CF10059B7C167C1
:1043C8001387E7FF639CE50083A781BB8DC383C781
:1043D80007000D47639BA7006FA0403CFD174947A6
:1043E8006395F50083A781BBE5FB3A858280494741
:1043F800EDBF238201BE23A601BE23A401BE375709
:104408000500938781E11307478998C3375705004B
:104418001307C78CD8C3375705001307079E98C7DB
:10442800374705009387C1BD1307673C98C33747D3
:10443800050013070728D8C38280397122DC06DEFD
:1044480026DA4AD84ED652D456D25AD05ECE62CC4C
:104458000347050085472A84630BF7040346850054
:10446800930695009305F1000545EFE0FF9F81470E
:1044780019C1834705008346040011476381E60498
:1044880003A781BE8D4603471700630AD70285CB71
:104498001DC70DE10145F2506254D2544259B25938
:1044A800225A925A025BF24B624C21618280814708
:1044B8000145D1B78546631ED7088D8BE1DF0345DB
:1044C8001400130A2400D285EFE09FB4A300A400CF
:1044D80083A7C1BE2A8B1389C1BE8149C1C3930476
:1044E800F00F83C741BE138C41BE63FBF90203255D
:1044F8000900939B49005E958347050063829706F0
:1045080083471500639E67051946D2850905EFC0E4
:104518005FC239C58324090003470400DE94B9E467
:10452800834604009147E387F6F683270900BDD345
:1045380003460C0001479305F00FE30DE6F4BE8433
:10454800C10703C507FF6307B50C05071377F70F06
:10455800EDB78946E310D7F4858B8DB7054525BFA0
:10456800850993F9F90FB5BF88C4E5A09147631A87
:10457800F706C84405C5834784000346050063045D
:10458800F606034704009147631BF706C84419C59C
:1045980097F0FA1FE780003323A604000345840040
:1045A80091659385E571050597F0FA1FE7808028E6
:1045B80005C5034704009147631CF704C8C4834733
:1045C8008400930594000505A30FF5FE03468400B7
:1045D80097F0FA1FE780203A034584003335A0009E
:1045E8005DBD884441BF930594000505EFC07FB4C5
:1045F8008547E318F5F85545EFF08FA4BDA8884422
:1046080051DD97F0FA1FE780E02B23A4040079B767
:1046180088C475B72380D40083471400D2851385D6
:104628002400A380F400194697F0FA1FE780A0340D
:104638000345840091659385F571050597F0FA1F88
:10464800E780401F05C5034704009147E31EF7F0C4
:10465800C8C483478400930594000505A30FF5FE9D
:104668000346840097F0FA1FE780E0308347840010
:10467800E39607EE034504007D151335150021BDAB
:10468800011122CC83A7C1BE06CE26CA4AC84EC68F
:1046980052C48DC31384C1BE2E8AAA84014908401E
:1046A80063129902630C0A0497F0FA1FE7808021CD
:1046B80023200400F2406244D2444249B249224ACB
:1046C8000561828093194900B3073501884709C9F4
:1046D80097F0FA1FE780001F1C40CE9723A407001D
:1046E8001C40CE97C84709C997F0FA1FE780801D7C
:1046F8001C40BE9923A60900050955B745DD139648
:1047080044008145EFC0DF9C144081477D5613F774
:10471800F70FE37197FA1397470036972300C700FE
:104728008507F5B779714AD083A781BE06D622D40A
:1047380026D24ECE52CC56CA5AC85EC6D1CFAA8906
:10474800138981BE938A41BE014411ED83A6C1BE7F
:1047580099CA03C60A002A8481479305F00F13F704
:10476800F70F6366C708131534002105EFC06FE41F
:10477800AA8401E92145EFC0CFE3AA8431C10144ED
:10478800CD49930700FD2380F4008547A3803401B9
:104798002381F400A381840055C49389840023A253
:1047A8003401014A930BF00F83C70A006373FA00C0
:1047B80039E883270900A68503C50700EFC0AFE9DC
:1047C80003C50A0081456D3D0325090097F0FA1FCE
:1047D800E780400F23200900B25022549254025916
:1047E800F249624AD24A424BB24B456182801397E2
:1047F80047003697034707006305B700050413749D
:10480800F40F8507A9BF83A7C1BE93154A00BE95BB
:1048180083C70500638477032380F90083C71500E5
:10482800138529007D14A380F9001946890513749E
:10483800F40F97F0FA1FE7800014A109050A137A0C
:10484800FA0F9DB723A20400ADB7411122C406C6D2
:104858002A8405E10945EFE0BFFE2A8611C503C594
:10486800C1C68545EFC0FFA30545EFF01F9F2A8409
:1048780009C903C5C1C68545EFC05FB82285EFF0F9
:104888007FEAB24022440545410182808967138747
:10489800B7006319E50083A781BE95C39C4503C58E
:1048A800070065B71387C7008147631BE5009C4570
:1048B80003C50700854709C583A781BEFDF3814766
:1048C8003E858280797106D622D426D24AD04ECE31
:1048D80052CC56CA5AC85EC662C461CD83473500F9
:1048E800AA8995C3404105C05945EFE07FF5931A61
:1048F800850193DA8A410149130B000DB54B83C733
:104908003900636EF900B250225492540259F249A8
:10491800624AD24A424BB24B224C4561828083079D
:10492800840263CF570783A781BE138C81BEADCBAA
:104938002285EFF09FB02DC5034584005105EFC0D7
:104948004FC7AA8431CD2310650123017501834720
:104958000400194693052400A301F5008307840287
:1049680015052303F50083471400A30FF5FE97F000
:10497800FA1FE7804000034684002386C4001DC652
:104988001385440188C89305940097F0FA1FE780BF
:1049980080FE83270C00A68503C50700EFC0AFCBB8
:1049A8000509130494021379F90F91BF23A8040091
:1049B800CDB783A781BEA1DBEFF0DFD62254B2507A
:1049C80092540259F249624AD24A424BB24B224CA3
:1049D800014545616FF07F88797106D622D426D2C9
:1049E8004AD04ECE52CC56CA5AC85EC662C479C1A5
:1049F80083473500AA8995C3444185C05945EFE0EE
:104A08003FE4931A850193DA8A410149930B00FD2B
:104A1800414C83C73900636EF900B2502254925456
:104A28000259F249624AD24A424BB24B224C456182
:104A380082808387F40063CA5707138A81BE83275D
:104A48000A00A5C75145EFC0CFB62A8439CD230047
:104A58007501A30005002301850183C704001946D9
:104A680093852400A301F5008387F4001505A306A8
:104A7800F50083C71400A30FF5FE97F0FA1FE7802F
:104A880080EF83C78400938594001305C400A305B1
:104A9800F400194697F0FA1FE780E0ED83270A0033
:104AA800A28503C50700EFC00FBB0509C104137930
:104AB800F90F85B783A781BEADD3EFF0BFC62254E7
:104AC800B25092540259F249624AD24A424BB24B0E
:104AD800224C014545616FF04FF883A781BE95C709
:104AE80003C707008D476313A70203C5C1C6411159
:104AF800854506C6EFC09F9013050003EFF09FC2DF
:104B0800B240014541016FF04FF5C9473E858280AB
:104B1800797126D2938481BE9C4006D622D4BDEFFB
:104B280003C7F1C6C947298B25C791652A84938590
:104B3800D571114597F0FA1FE780C0CF88C0CD47DF
:104B480021C91146A28597F0FA1FE780C0E21545F2
:104B5800EFE01FCFAA841945EFE09FCE2AC6930540
:104B6800F1011305F041EF706175938781DF83C60A
:104B780027000347F1013246B336D00011C3890636
:104B88000347340003452400A685EF90F03EAA872A
:104B9800B250225492543E8545618280C547CDBFAC
:104BA8005D71A6C2A2C486C6CAC04EDE52DC56DA01
:104BB8005AD89384C1C683C734004944A18B638AF9
:104BC800070E83A781BE41446395070E2A89EFF03B
:104BD800EF8683C744005544637DF50C83A781BBEA
:104BE80045446398070C91659385C571294597F0ED
:104BF800FA1FE78020C423ACA1BA4D445DC92946F9
:104C0800CA8597F0FA1FE78000D783A781BB83C7BF
:104C18001700DDCB2D45EFE0BFC22A843145EFE018
:104C28003FC22A899305F1021305F041EF7001692B
:104C3800938781DF83C727000347F102B337F0006A
:104C480011C3890741453ECEEFE09FBF2A8B3D4502
:104C5800EFE01FBFAA8A3545EFE09FBE2A8A394593
:104C6800EFE01FBEAA892145EFE09FBD2ACC1D4574
:104C7800EFE01FBD03A781BB2ACA03453700930590
:104C88004700EFE06FB403A781BBE24852480346F0
:104C98002700F247AA865AC6228556C452C24EC079
:104CA8001107CA85EF90D02D2A8401C50D45EFE084
:104CB800BFE12285B640264496440649F259625A15
:104CC800D25A425B616182802545EFE07FB72A8432
:104CD8002945B1B783C7F1C60145A18B99C313858F
:104CE800C1BD6FE08F8D411122C4138441BE26C21D
:104CF800AA8403450400854506C6EFF07F9883C75C
:104D0800F1C6A98BB5C723009400138581E1EFE0B4
:104D18006F8A9384C1BE9C4099C74D45B2402244D6
:104D28009244410182800345040019E10145FDB721
:104D380091659385B571120597F0FA1FE78080AFEA
:104D480088C061DD0346040081451206EFC04FB8F4
:104D58008346040090408147FD5513F7F70FE3772A
:104D6800D7FC1397470032972300B7008507F5B79C
:104D7800014523000400EFE0EF834DBF411122C439
:104D880003A5C1BB06C619C597F0FA1FE78080B313
:104D980023AE01BAB240224441018280011122CCE3
:104DA80006CE26CA8D472E846313F50603C7350041
:104DB800E94703D54500938481DF6316F70083D75D
:104DC80064006382A706EF60804E09C583576400BC
:104DD8002317F5000357A400835684000356640084
:104DE8008355440003453400EFE0AFEC035744001B
:104DF80083D764006309F7008547F2406244D244D0
:104E08003E8505618280FD572393F400F5B78967D5
:104E1800CD07631DF50083C7250031476385E7008B
:104E28004547E39BE7FCEFD0DFFFF9B741677D1704
:104E38008147E314E5FC83C655004947E39FE6FA3A
:104E480083C5450003552400300023140100EF609A
:104E580040335DB7797122D483A7C1BB06D626D269
:104E68004AD00545B5C30D45EFE09F9DAA8411457D
:104E7800EFE01F9D2A899305F1011305F041EF70BA
:104E8800E143938781DF83C627000347F101B336E7
:104E9800D00011C3890683A7C1BB36C603C5370036
:104EA80093854700EFE04F9203A6C1BBB2462A871D
:104EB8008348B6000348A600930746000346260029
:104EC800CA852685EF90500AB2502254925402594E
:104ED800456182807D57238EE1B2239801BE23ACC1
:104EE80001BE23AE01BE23A001C03757050093873A
:104EF80041E2130727F798C337570500130707251B
:104F0800D8C3375705001307C7E598C7B757050033
:104F1800938747DA23AAF1BE8280411126C283A76C
:104F2800C1BB06C622C48DCF2A840D45EFB07FE8E9
:104F3800AA8505C1930700FD2300F5008D47A3004E
:104F480085002301F50083A7C1BB03C50700EFB0A7
:104F58009FF019C42244B240924441016FF01FE20D
:104F6800B2402244924441018280797126D283540E
:104F78004500896706D622D44AD04ECE52CC56CAAE
:104F880013876700639EE40283A7C1BB014481CFF6
:104F980018450345070015E10547A380E7000545C7
:104FA800EF90407D05442285B25022549254025914
:104FB800F249624AD24A45618280EFF01FF6DDB7B6
:104FC80013879700636797041384C1B303470400EA
:104FD8009307F00FE308F7FC1C45114503C90700C8
:104FE800EFB03FDDAA855DDD930700FD2300F500E6
:104FF80089472301F500F977E117BE9493B41400AB
:10500800A3002501A301950003450400EFB0BFE408
:1050180051BFA9070144E398F4F883A7C1BBCE8A1E
:10502800D9D3184503C417008547034A07001389D5
:1050380081DF630CF40283474900ADF70D45EFB0FB
:105048005FD7AA8505C1930700FD2300F5009147A6
:10505800A30045012301F50083A7C1BB03C50700D1
:10506800EFB07FDFEFF09FD135BF83A781BF91EF0E
:105078000145EFE0EFFC2A8611C603C5C1C6894584
:10508800EFC02FA283A7C1BBA9A003C607009386C0
:1050980017009305F1000545EFD01FDD71D983474F
:1050A8000500858BF1D70545EFE08FF99307B0032D
:1050B800AA8463F9A70203C5C1C65D661306067014
:1050C8008945EFC0CFB0938444FC239891BE83A751
:1050D800C1BB0947A380E7008347490089CB230266
:1050E8000900D1B5130600643306C50271B75285AD
:1050F800EFF0BFE24DBD79714ECE83A7C1BB22D47C
:1051080006D626D24AD052CC454489EB9387C1C6ED
:1051180083C7370013F7570019EB49442285B2506B
:10512800225492540259F249624A4561828003A787
:1051380081BF414465D7034707006DD3858B2E890E
:105148002A8AC9C7834709000547F91793F7F70F54
:10515800E365F7FC916593857571314597E0FA1F12
:10516800E780406D23AEA1BA4D444DD923004501D7
:10517800A30005002946CA85090597E0FA1FE780BC
:10518800807F930571001305F041EF702113834769
:105198007100A9E703C7A1DF8D476311F704EFD0BA
:1051A8007FF02C00EF80806F2800EFE00FC44545AA
:1051B800EFE00FE901443DD1130600643306C50250
:1051C80003C5C1C69145EFC0CF8D89BFEFE01FA7CA
:1051D8002A84EF606025E377A4F6ADBFEFF09FC7A0
:1051E8002A840DDDEFF09FB915BF411126C283A7B0
:1051F800C1BB06C622C44AC0A1C383C707000D4469
:10520800639DA70203C5C1C68945EFC02F9F03C58B
:10521800C1C69145239801BEEFC04F9EA38E01DE03
:1052280083A7C1BB0145A38087002244B2409244B2
:10523800024941016F90005449442285B2402244FA
:105248009244024941018280411106C622C426C205
:1052580085476315F506138401BF83570400A1C76A
:1052680003C7C1DF29E31307B0036369F70203C566
:10527800C1C68945EFC08F980356040093070064A0
:1052880003C5C1C63306F6028945EFC08F812310D6
:105298000400B2402244924441018280938747FC33
:1052A8002310F400FDB783A7C1BBE5D72244B24061
:1052B800924403C5070041016FF03FF383A7C1BBC8
:1052C800E9DB9387C1C683C73700918BF9D303C540
:1052D800C1C68945EFC08F922244B24092442398B8
:1052E80001BE41016FF09FA983C7F1C6958BD9CF45
:1052F800B9CD83A781BFD9CBFD4763EBC70811C2DE
:10530800C1CA411122C44AC006C626C2238EA1B210
:1053180036893284A1C1938481BF88407D46814506
:105328000505EFB0FFDA8840CA852286050597E0B3
:10533800FA1FE78040648C40228523808500224440
:10534800B24092440249850541016F90204283A7EB
:1053580001C055B7938401C088407D468145050545
:10536800EFB01FD78840CA852286050597E0FA1F47
:10537800E78060608C402285238085002244B2400B
:1053880092440249850541016F90803E49458280DB
:1053980009458280797106D622D426D24AD04ECECB
:1053A80052CC8D4763FCA70009442285B250225491
:1053B80092540259F249624A4561828003C781DFEB
:1053C8004144E314F7FE938781DF83C927009307DD
:1053D800F5FF93F7F70F85462E842A89938481DF9A
:1053E80063E4F60695E199452800EFD03F9E03C592
:1053F800C1C6914523812401EFC04F80A3820400D8
:1054080029CC2381340155B7194681452800EFB0CE
:105418003FCC19462C002285EFB0BFD151F5194673
:105428009305F00F2800EFB0BFCA19462C0022855B
:10543800EFB03FD035F9A2851946280097E0FA1F4A
:10544800E7806053014465B70144E312E5FAC844B4
:105458002C00EF80A0442A8459BF6314090001443A
:10546800A9B72800EFE06F982A8441FD8D47E3181B
:10547800F9FE4545EFE0CFBC1375F50FA382A400F4
:1054880079DD03C5C1C65D66130606709145EFB0A8
:105498001FF421BF83C7F1C6918B89CF41111385B2
:1054A80041BF06C6EFD03F92B2407D57239FE1DE51
:1054B8004101828001456FD01F91411122C403A58B
:1054C80081BF06C626C24AC0138481BF19C597E0AA
:1054D800FA1FE780203F2320040003A501C093841E
:1054E80001C019C597E0FA1FE780C03D23A004005A
:1054F8001389C1C683473900958BADCB138541E22B
:10550800EFD01F8C83473900958B81EB4D45B24016
:1055180022449244024941018280116993056971CC
:105528001305000297E0FA1FE780C03008C079DD54
:10553800130600028145EFB0BFB9930559711305F1
:10554800000297E0FA1FE780E02E88C001C9130621
:1055580000028145EFB0DFB7014555BF084097E02D
:10556800FA1FE7802036232004004DB70145EFD00D
:105578003F85DDB703C70500937625009377D70FDE
:1055880099C293672700131885011358884113F7A8
:10559800F7076354080013E70708937685009377A5
:1055A800770F99C2936787001377050293F6F70D73
:1055B80019C393E607022380D50063450800937753
:1055C800A50281CB8347060093E7C7002300F600B6
:1055D80082807DFD83470600CD9BCDBF2D45631797
:1055E800071403C805000947631EE812C8410347AA
:1055F8001500034505002207498F42070D654187BD
:10560800930825A06309170B011122CC26CA4AC8A2
:105618004EC606CEBE89B68432842E8963CEE80093
:10562800930705A0630DF702130515A0630EA704E1
:10563800239004000545A5A0930745A06307F70834
:105648006346F706130565AAE314A7FE854723906A
:10565800F600DC4583C707002300F60081A0C84593
:10566800EFB03FA8420541814E86637335012A8613
:105678002390C400420641828325C900228597E011
:10568800FA1FE780402F19A8DC4583D7070023902D
:1056980006012300F600A183A300F6000145F240AD
:1056A8006244D2444249B2490561828099472390B5
:1056B800F6001946D1B785472390F600DC45014529
:1056C80083C707002300F6008280DC45A9CB214769
:1056D8002390E60003D707002300E60003D707005E
:1056E8002183A300E60003D727002301E60003D7A0
:1056F80027002183A301E60003D747002302E60021
:1057080003D747002183A302E60003D767002303DA
:10571800E60083D76700A183A303F60041B723906F
:105728000600ADBF2390060005458280828083C8AD
:10573800050089476391F814DC41797122D406D6B3
:1057480026D24AD04ECE52CC03C8170083C70700D2
:105758002E8422083368F80042088D6713580841E0
:10576800138327A0630A680E2A8A3A89B684B28509
:10577800634C0301138707A0630AE802938717A005
:105788006303F808854711A8138737A06303E80A5D
:10579800138767AA8D47E317E8FEB2502254925444
:1057A8000259F249624A3E8545618280484432C6C0
:1057B800EFB03F93420541819D47E36025FFB30960
:1057C8009900D547B24563D43701B547F9B748447E
:1057D8002686C2094A9597E0FA1FE780C01948440F
:1057E80093D9090159463306364181454E95EFB0A4
:1057F8003F8E83A781C099E3814745B79C43814584
:10580800E5DF52852DA0AD47E31909F8E39F16FBA4
:1058180083471600834606005844A207D58F2310F5
:10582800F70083A781C0E9DB9C438545F1D78297C0
:10583800E1B7AD47E31309F69947E398F6F848440A
:10584800194697E0FA1FE780001383A781C0CDD7D8
:105858009C43DDD38D4575B7AD4721F38547E39666
:10586800F6F60347060093070008E3E8E6F2DC458E
:105878002380E70051B785473E85828023A401C075
:1058880089472380F1B4138F01B48147938E01E3D4
:105898005947B386FE00238006008507E39BE7FE91
:1058A800B707A000938541B4938707059CC1B70744
:1058B800E803DCC1238301C037F60600938781A380
:1058C8001306468FD0C337F606000947138ED1B3A7
:1058D8001306868C2300EE00D0C723AEE70123AE63
:1058E800C70337F6060037FF060037FE0600854671
:1058F8001306868D938811B4138341C01388F1B3BE
:105908001385E1B3130F0F8E130E0E8D2380E8005D
:105918002380E7002388E7002380E7022388E70243
:105928002380E7042300E8002384D7002395070099
:10593800D0CB238CD700239D070023A2E703238421
:10594800D7022395070223A6D703D0DB238CD702DF
:10595800239D070223A2C7052384D70423950704A0
:10596800231003002300D50023A667042388E70437
:1059780023AE17052380E7062388E7062380E70878
:10598800B7F8060037F706001307478D9388088F86
:1059980023A2E708F0CB238CD704239D070423A276
:1059A80017072384D70623950706ECD7F0DB238C4B
:1059B800D706239D070623AE07072384D708239518
:1059C800070823A6A70837570500938781AC130754
:1059D800475E98C33757050013076773D8C323A4D6
:1059E80007008280A54763E1A70CB7E70600938705
:1059F80047420A053E951C41411122C426C206C6EB
:105A08004AC0B2842E848287D547614563E1B702D4
:105A180059468145138501E3EFB08FEB2286A685B1
:105A2800138501E397E0FA1FE780E0F40145B240EF
:105A38002244924402494101828089476145E398A2
:105A4800F5FE035706002392E1C0CDB7A147614593
:105A5800E39FF5FC2146A685138541B4EF80B10F7D
:105A6800F1B785476145E394F5FC938581A3D04D53
:105A78009385850203C50400EFF0DFAF45BF854776
:105A88006145E396F5FA938581A3D05D93858504F6
:105A9800D5B785476145E39CF5F803470600238F92
:105AA800E1B269B7094561B7094582800547630ACC
:105AB800E5024111AA8706C62E8599CB114763884E
:105AC800E7022547638BE7020945B240410182801E
