:020000021000EC
:100000006FC0517600000000001801180028012878
:100010000228032800290129022903290429052986
:10002000062907290829002A012A022A032A042A64
:10003000052AA62A78D20200720E0100160F0100CE
:10004000560F0100C60E0100B40E01006C390020ED
:100050007A0F01008C120100B41201000E1401008D
:100060009A140100820D0100B20C01001C0D010068
:10007000DE0C0100C8180100A8390020740F01002F
:10008000F615010022980200DC9902004E9A020047
:100090002C5F02003C5F0200D2FC0100DEF1010097
:1000A000ACA20200241601002E640200B0AF0100D1
:1000B00036B001008EB001000A1E0100561E01007C
:1000C000CC1C0100746F0100766A01006E7801009B
:1000D0003A7C0100E27F0100EC5C01008A5C0100D7
:1000E00070600100385D0100605C0100E45C0100AB
:1000F000125C0100B45D01000C5E0100BC5D0100FA
:10010000C05D01005C5E0100145E0100465E0100FE
:100110006863010070630100B05D0100B85D01001B
:10012000585E01006C6301000C5F0100A4640100D3
:10013000DA8D0100548E0100828E0100547101009D
:100140006C710100A8710100CE56010096570100A4
:10015000EE570100083A01007E3501007E50010093
:10016000F0350100D24F01006CB70200F0B402007C
:10017000CEBE020004CB020038CA02006ECD0200DF
:100180006ACD020034A8020002CE0200A6A5020039
:1001900092CD0200D4C30200EEC3020012C40200DA
:1001A00072CE020098C802002EC80200E2CE020001
:1001B000B4A702003CA8020060A8020002A8020046
:1001C000C0790200D4670200EE6A02006C68020087
:1001D000A26C02004CA302004AA20200D6A50200B3
:1001E000381A0100D660020012640200E4640200C2
:1001F000AE8D0200DC8D0200568E02003A750100C1
:100200007E790200186D02000E7202004A6F020031
:100210008C6702000E15010026610200000000003C
:1002200000000000000000000000000000000000CE
:1002300000000000000000000000000000000000BE
:10024000A16785072A876397F50083C741C00145E9
:10025000D9EF8280014559CFD1CDB307E0408D8BD6
:10026000BA97C207C183130740036366F70203A569
:1002700001B483A681B36393A60203A781D001458D
:1002800035CB4111C20706C60545DD8D0297B24048
:1002900001454101828003A5C1B3E1BF0357650059
:1002A00029E7035745006362F704B306F740214688
:1002B0006370D6021041938687001D8FAA9661173E
:1002C00090C22392E6002393060014C12312F50086
:1002D000A1672313B50085076397F50083C741C065
:1002E000FD172382F1C021058280084169B70145CD
:1002F0002DF78280828009C903A801B483A581B348
:100300000147C28763E3B70082809443636DF506BB
:1003100063EBA60613868700E368C5FE03D5670076
:10032000216605066317C50003C641C00506238282
:10033000C1C0239307006383070303A6C1B3630F00
:10034000F6000356670019EA83D7470014C38356A3
:100350004700B697A1072312F700BA879843E30531
:10036000B7FA83A6C1B3E301D7FA83566700C9FE83
:1003700083D64700035647001843A106B29623923E
:10038000D70098C382803E87B687ADBF19CDB71717
:100390000040130770052380E704130780FA2380C9
:1003A000E7042396A70223800704828019C18147AE
:1003B00099E982803387F500834607003307F5000B
:1003C00085072300D700E397C7FEE5B719C1FD579E
:1003D00081E98280910503A7C5FF1105232EE5FE63
:1003E0007D16E319F6FEF5B7797126D283A741B5DC
:1003F00006D622D44AD04ECE938441B581C7829787
:1004000023A00400DC4089CB03D5C1B44137DC40D4
:10041000829703D5E1B49D3F9C40639D071293876B
:1004200001F103C75700058B63040710A38207007F
:1004300083C7770009476392E70CE129971002E030
:10044000E780C080938641D103A781B403C616001C
:10045000938981B4138441D1834704009396170094
:10046000BA9683D60600638F060C8347040063F2B6
:10047000C70686073E97835507002310070003D55C
:10048000C1B42EC621370345040083A741B6131714
:100490002500B245BA979C4382972A8903D5E1B4D7
:1004A000F535834704001397170083A70900BA970F
:1004B00003D707003369E90023902701834704002D
:1004C00003471400850793F7F70F2300F40063E454
:1004D000E700230004009C40B5EF03D5C1B47D358F
:1004E00097D000E0E780E04F2254B2509254025976
:1004F000F24903D5E1B4456151BD0D476398E7006A
:10050000092997D001E0E780C01E2DBF15476398E9
:10051000E7000121974002E0E78060B325B71D475F
:10052000E392E7F2FD2697B001E0E780209819BF3B
:1005300083C7C1F5918BE38707F0973002E0E7802E
:1005400060C009B7850793F7F70F2300F400E3E5D0
:10055000C7F021BFB250225492540259F24945616A
:1005600082809167B7C6004093873730411123A638
:10057000F62001000100938741D1984F83A741C520
:100580003A07F053B7071000FD17918F9983D98F61
:100590003EC6B1679387373023A6F6203245410126
:1005A00082804111B7170040985F3AC6945F324786
:1005B000E39CE6FE32454101828083A7C1C341111D
:1005C00022C406C62A84E1E34165130525F597D0C8
:1005D00001E0E78000B045C98347C5002316F50058
:1005E0008327840FC1EB232CA40E232EA40E854752
:1005F000231AF402232005008347B4005441231535
:10060000F5000347A4002304E50003A781F2138546
:10061000170215811C437D151375F50F9CC25C43B1
:10062000938606021307070223A2F6FE832787FE9E
:1006300023A4F6FE8327C7FE23A6F6FE832707FF23
:1006400023A8F6FE832747FF23AAF6FE832787FF0A
:1006500023ACF6FE8327C7FF23AEF6FE45FD938746
:1006600001E603D7870005072394E700B240224440
:10067000410182808327C40F88C383574403232EFC
:10068000A40E8507B5B783478400230804000545F9
:1006900093C747002304F400D1BF8347E50193F7D4
:1006A000E70F89CB014582800145B2402244924444
:1006B000410182808347F501F5F7411106C622C446
:1006C00026C2034705018347850019C70346650213
:1006D00083C6D1CE6367D60093F60701F1D60144F5
:1006E00009CB034405150347F514C18B2204598C2B
:1006F00081CB8347451503473515A207D98F3E9413
:1007000045D483A601EB0386C1CEFD54B705C0A82E
:1007100003A7060883D74607635A0602B307F740C4
:1007200063F39700BE849442E5F683A781B682976F
:10073000E3ECA4F61304B414158013040402338507
:10074000A440333585001345150085B7E378F7FCE1
:100750002E97E9B7411126C403A741C44AC222C655
:100760001C5F938441C49983858BB1CB9307F0FBC5
:100770001CDF83C701F1138401F193F7070489C7D4
:1007800083A781B6829708C88547A302F40083A790
:1007900041C55844B8D3930700F82302F4008307F7
:1007A000640063DE070083A701C4130700FC230372
:1007B000E4009C439983858B99E32303040083A77A
:1007C00001C4D8430583058B19C7D843759BD8C38B
:1007D000D843799BD8C398401C5F8583858BC1CB58
:1007E000F5571CDF010001000100010001000100BC
:1007F00001000100010001000100010001000100F1
:1008000001000100010001000100010001000100E0
:1008100001000100010001000100010001000100D0
:1008200001000100010001000100010001000100C0
:1008300001000100010001000100010001000100B0
:1008400001000100010001000100010001000100A0
:100850000100010001000100010001000100010090
:100860000100010083A741C513075004B8CB98408D
:100870001C5F9183858B81CFBD571CDF83A741C54A
:10088000054723A80704938701F12382E700324438
:10089000A244124941017300203037F700E083275A
:1008A00007D1CD9B2328F7D0938701F103C74700D9
:1008B000058B01EF03C73700058B01EB03C727004A
:1008C000058B01E773005010D5B7828083A741C51F
:1008D000094798C3D9B783A741C5B7C60040A8CB7D
:1008E0009305C00313062003138701F183A7862015
:1008F000C18393F7F70363E9F50083A78620C183DB
:1009000093F7F7036366F60083474700858BF9DFAB
:10091000828037F700E0832707D1CD9B2328F7D0CB
:10092000938701F103C74700058B01EF03C7070059
:10093000058B01EB03C71700058B01E7730050100F
:10094000D5B7828083A741C5B7C60040A8CBC145B3
:100950006546138701F183A78620C18393F7F703C8
:1009600063FDF50083A78620C18393F7F7036366D1
:10097000F60083474700858BF9DF82800347150027
:100980001507719B0D072A9709C68347F7FF2300B8
:10099000F60083470700054593F60701B9E68DC1C8
:1009A00003C661F19306000C09456310D60493F663
:1009B000F7060546639BC602E207E18763C70702A5
:1009C0008347E7FF0347D7FFA20793F70770D98F45
:1009D00093960701C18213F606401387C1C419C656
:1009E00093E606802310D700014582802310F7008C
:1009F000E5BF03A541C5138641C51445938701F1A1
:100A000013970601418393F81620BA85638508067B
:100A100093F60620638F060E83C62700B7080010E2
:100A200093E616002381D7009306001934D193066C
:100A300000F82382D70003A541C45455F19A93E6E8
:100A4000260054D51441B3E6160114C183A601C58E
:100A50009DC283A8460003A3860003A50800336552
:100A6000650023A0A80083A8C600D44A03A50800F7
:100A7000C98E23A0D80093F625109DCE93F50510BE
:100A8000C5C583C601F193E616002388D1F083A67D
:100A900001C523820700A382070089CE884A03A8E4
:100AA00046010C41B3E505010CC1884294460C4156
:100AB000CD8E14C12394070083C547001347F7FF69
:100AC000144213968501420761864183635F0600E5
:100AD0001316170163510606AC5209466367B60048
:100AE00005462382C700BC52FDFF8387C1CE63DD6C
:100AF000070093170701C18763D30704F0528947A2
:100B000063E4C700FC52FDFF9C467D8F98C67300CE
:100B1000203083C617002394070093E61600A380B5
:100B2000D700238207001DB783C6370093E616005F
:100B3000A381D700A9BF05462382C7007DB7DC4645
:100B400013960701635C0600B7071000FD17FCD27F
:100B5000938741D1904F050690CF7DB7A1675D8FF8
:100B600065B7938781F41386C1F20346B60183C744
:100B70005701938681F41387C1F2B29793F7F70F69
:100B80007D46636AF604A300F700834717004C4BC9
:100B9000A38AF6008546B396F600ED8EA9E60146D7
:100BA0001308000233D5D500058901C50506137663
:100BB000F60F8506E39806FF33F6C70281468147A4
:100BC0001308000233D5F500058919C96397C600DB
:100BD000A300F700828081177DB78506E206E186D3
:100BE0008507E39107FF828003A781C5B7570200FD
:100BF0009387079F832607091396560063580600BC
:100C0000832607091396660063440600FD17FDF36B
:040C100082800000DE
:100C140083A581CD938781CD1386052223A0C1B4FA
:100C240003D74700938785FFBA97056523ACF1B2D4
:100C34001D05930600206364E500935637003307CF
:100C4400D60023AEE1B223A0E522E1162312D6009A
:100C5400231306001CC3998FE1172312F7002313F3
:100C64000700828083A701B403A681B32A87B30552
:100C7400B5406314F6003A8529A8938687009C43FF
:100C8400E369D7FEE377F7FE2E85E3E4D5FEE3F2CE
:100C9400F5FE828023AC05FE1C4181E70CC18280F5
:100CA400BA8703A787FF6DFF23ACB7FE82801DC1FF
:100CB4008346E5FF1307F00F9147639EE600411159
:100CC40006C69730FF1FE78000BFB24081473E85CC
:100CD4004101828095473E85828001E901458280F9
:100CE4000145B240224441018280411122C42A8438
:100CF400210542059305D004418106C69730FF1FA4
:100D0400E78000B071DDFD57232005002312850024
:100D14002303F5002105F1B7411126C222C44AC0BC
:100D240083A741B406C601440149938441B489E7C9
:100D3400A165E12D05C401A803C7E7FF6317A70256
:100D440015C8A1650D2C9840832784FF6316E4021F
:100D54009CC0FD57232C04FE230FF4FE2285B240D1
:100D64002244924402494101828011E03E8983A7D2
:100D740087FF75BF3E84E5BF232CF9FED9BFB9C5F3
:100D840083C751D1411122C406C62A842E856368C3
:100D9400F400313F0D45B24022444101828083A7D3
:100DA40085FF99E703C7E5FF9307F00F6305F70095
:100DB400FD3D1545CDB7238F85FE138541B4D93D3F
:100DC40022852244B240A165410175A21545828065
:100DD40023A201B4828083A701B699E33E85828071
:100DE40003D727006316B70003C70700E308A7FE6D
:100DF400DC47E5B74111939705014AC006C622C4F2
:100E040026C2C1872E8963DE0700393711C14535F3
:100E140021653345A900B24022449244024941016C
:100E24008280AA860145E5D901443D47B3578940EC
:100E3400858B8DCB83A401B5BD4791E28147A297F1
:100E44008E070545BE9433158500131405019C4097
:100E5400C8404180829723A0040023A204003345A4
:100E6400240155BF0504E313E4FC0144CDBF83A76B
:100E740081CF411122C406C6138481AF85C78297EE
:100E840008C00840B74703009387D73F3305F502EE
:100E9400B7A72600938737ECB2403E9508C022449A
:100EA40041018280184083A741D2BA971CC0D1BFA8
:100EB4002A9609E582800505A30FB5FEE31DC5FE4C
:100EC400D5BF81473307F5000307070019E33E85C3
:100ED40082808507C5BF01112E8626CAAA841315F0
:100EE40006019305F004418122CC06CE32C6973028
:100EF400FF1FE780E0902A8419C53246A685973003
:100F0400FF1FE780A0A62285F2406244D244056117
:100F1400828081476314F600054582803307F5001B
:100F24008507B386F5000347070083C6F6FFE3830E
:100F3400E6FE014582809307F6FFBE952A96631369
:100F4400C5008280FD1583C715000505A30FF5FEB6
:100F5400FDB7814711E9014582803307F500034756
:100F64000700E31AB7FE8507E319F6FE05458280FC
:100F740003A541D2828083C751D1637EF5009317C4
:100F8400150003A581B43E9583570500DD8D23101C
:100F9400B500014582800D458280397126DA938738
:100FA40001F106DE22DC4AD84ED652D456D25AD0AB
:100FB4005ECE83C7B700938401F1BDC383C77400B9
:100FC400A5E303C4A400A385040089476310F40ABD
:100FD400138701E63843138401E683467700A9C2E8
:100FE40003465700B755550037C5898E9385555527
:100FF400130565EDEF50E11C03C774009307D7FF99
:1010040093F7D70F91E785472385E400A385F40080
:101014008947A383F4003C40130710FA2383E700B5
:1010240083A7C1B58DCB82972A8A15C5938741D1F1
:10103400984B938941D12A9798CB7D57D8C703A45D
:1010440001B6138B01B6138981CD814A49EC8327FC
:101054004902639E070EF2506254D2544259B25967
:10106400225A925A025BF24B216182808D47631CA3
:10107400F402138901E68327890403C777004DD35B
:1010840003C65700B755550037C5898E9385555506
:10109400130565EDEF50E11283278904A3838400CF
:1010A400130710FBA5BF9547E31CF4F6938781F45F
:1010B40003C76701118B2DD703C7C1F203C63700DD
:1010C40083C62700058B09CFC84319C9834515007A
:1010D4000905EF50912129D58547A385F40089B7E7
:1010E40081450145FDB7184481476374EA00B3079D
:1010F4004741032749021CC419C703A7C90063F465
:10110400E70023A6F90085EB8355240099ED5C44A0
:10111400639C0A022320FB00832BC40022859720B2
:10112400FF1FE78040795E8415B703450400A135AD
:101134005C4081CB1CC483572400F1DBA28A404469
:1011440031B71C44E9D7C5BF23A6FA00F1B783C65B
:10115400190003A681B4814713F7F70F6360D7081A
:1011640083C774000D47F91793F7F70FE375F7EE8C
:1011740083C7C1F5918BE39007EE6800EFE0F0259B
:101184007D576305E50C03443901B247E375F4EC7C
:1011940083A9C900834749016381E906858BB9C7DF
:1011A400D147B389F902E37834EB9730FF1FE78026
:1011B400409BB24763F3F900CE8703443901818F22
:1011C4003384A7008307490163CF0702B707C0A888
:1011D400636BF402B70740573E9435A08507139715
:1011E400170032970357E7FF25DBB5B59307900245
:1011F400B389F90293D919007DB7E207E18763DF68
:1012040007023304854003D5E1B49720FF1FE7802C
:10121400E07383274902228519E03705C0A8829725
:101224001375F50FE31905E29C4CE38607E2EF40E2
:10123400316BEF50C13CEF40515E31BDE37385FC2F
:10124400B707C0A8338487402A9475BF83A7C90011
:10125400E383A7E003474901058B0DC3514433845D
:10126400870283473901E3F887DE9730FF1FE78061
:10127400408F834739011D8C2A94A9B71304900227
:10128400338487020580F1BF83C751D16370F502AF
:101294009317150003A581B493C5F5FF3E958357B5
:1012A4000500FD8D2310B500014582800D45828027
:1012B40083C751D16364F50001458280411122C482
:1012C40026C24AC006C62A842E89B284293601C59C
:1012D40004C5054515A0936504F0C205C1814145C7
:1012E4009720FF1FE780C05111ED83A781D081C7EC
:1012F400A285114582970145B24022449244024995
:1013040041018280138701B61C4385E308C38547E6
:101314002326050004C52311250123008500A3000D
:10132400F5002322050075B7BA87D84775FFC8C7EB
:10133400F9BF5DC1397122DC26DA4AD84ED652D4BF
:101344005AD05ECE66CA6AC806DE56D262CC6EC673
:101354003689328AAE89AA840144394D854BF94CC9
:1013640003A701B5131C3400937AF40F62971C434E
:10137400938D01B5A9EF13B5FA0013451500B39782
:101384008B0063765D01930714FFB397FB0093957D
:101394000701C1815286293F1DC983A70D0001455C
:1013A400E29784C323A2370163040900230059018F
:1013B400F2506254D2544259B259225A925A025BA0
:1013C400F24B624CD24C424DB24D216182800504F5
:1013D400E31894F92145E9BF09458280411122C4EB
:1013E40026C24AC006C6AA842E893284D135CA854B
:1013F4002685D53209C940C10145B24022449244F0
:101404000249410182802145CDBF411122C426C237
:101414004AC006C6AA842E897D3A2A8419C123119A
:101424000500CA8526858D35014511E01945B24070
:10143400224492440249410182807547636BA704A8
:1014440083A601B5411126C293143500A696944291
:1014540022C406C6AA87138401B5094595C613B5E7
:10146400F7003947134515006373F700C517854521
:10147400B395F500C205C181493F1C400145A697BB
:1014840023A0070023A20700B24022449244410152
:10149400828009458280411106C6353A09C508454E
:1014A400B240410182800145E5BFF54763ECA704E2
:1014B40083A701B513173500BA979843894721C705
:1014C400011126CA06CE9334F50022CCB94793C441
:1014D400140063F3A700451505443314A400420423
:1014E40041802EC62685A2857D378947324609C5A7
:1014F400A2852685753B8147F2406244D2443E85ED
:101504000561828089473E8582802396A1B4239712
:10151400B1B48280411106C623AEA1B40295B24093
:1015240023A4A1D2014541018280854763E8B70025
:1015340093972500938541B5BE9588C1828041115A
:1015440006C622C426C2EFF0AFEC214681451385BE
:1015540041B5B93A138441D113060002814513857C
:1015640041D1B93223A001B623AE01B483C741CF20
:101574009305101013D527008D8B3E958D473305A9
:10158400F5029947938441B635051375F50F230188
:10159400A4003305F5021305050F9720FF1FE7800C
:1015A400202623A8A1B4834724001305050F88C06F
:1015B4008A073E9523A4A1B4EFF09F81A92E834707
:1015C40014009840B7160100139627003A969386A4
:1015D40086DF14C213862700850793F7F70FA3004D
:1015E400C400B24022448A07BA9794C3924441018A
:1015F4008280138741D1834717008346270063FE07
:10160400D70083A641B613861700A300C70013971B
:101614002700369708C33E8582809307F00FE5BF05
:10162400411122C4004106C626C24AC08947630F3D
:10163400040E4177618FB706002089476318D70EDF
:10164400035945006304090EAA8419469305F00F53
:101654005905EFF01F9005478D476309E50C4A864D
:1016640022858145EFF0DF841306C003814513858D
:1016740081CDEFF0FF831306C003A685138581CDCA
:101684009720FF1FE780802E138981CD0357C9005F
:10169400938781CD09E7130700202396E70003C74A
:1016A400E70001E705472387E70003C7F70001E7E1
:1016B4006D47A387E70003C7070101E715472388A0
:1016C400E70003C7170101E70547A388E70003C73D
:1016D400570109E703C70701A38AE70003C72701E6
:1016E40001E751472389E70003C7E70109E7130727
:1016F4008002238FE70003C7E7018D463357D702E3
:1017040083C637019DEA1307D7021377F70FA3891E
:10171400E70003C7D40101E70947A38EE7009C57FC
:1017240081C78297239DA1D0193D8147B2402244AD
:10173400924402493E854101828083C63401369732
:10174400E9B7411106C69720FF1FE780804103C611
:10175400C1CE058A15CA930730333307F502B33770
:10176400F5023983CA07938541D1D98FD849938625
:1017740041D101456307F7006370F7023385E74001
:10178400DCC9B24041018280E5473307F502B33733
:10179400F5022583DE07C1BF37653D0809C63785D5
:1017A4006F0813050590198D3E95DCCAD9BF011148
:1017B40022CC06CE2A842EC6EFF06FEBB245F2405F
:1017C400818D33A5A502229562441375F50F056139
:1017D4008280011122CC06CE2A842EC6EFF02FE996
:1017E400B245F240818D33A5A5022295624442059B
:1017F400418105618280011122CC06CE2A842EC645
:10180400EFF0EFE6B245F240818D33B5A5022295A3
:10181400624405618280138781CD1857011122CC5F
:1018240006CE26CA4AC84EC6138401F131CF1389A5
:1018340081CD0297138741D103576700AA84938906
:1018440041D12DCFBA876373A700AA87C207C1838A
:10185400BA8663F3E400A686C206C182958F514717
:10186400635EF7048327C90291C3829785472304E3
:10187400F400EF40F14623939900F2406244D244CD
:101884004249B24905618280834784008DE78347DA
:101894009400850793F7F70FA304F400A18BF1DFFD
:1018A40085472314F4006244F240D2444249B249C9
:1018B40005616F407148A3040400F5B783478400B1
:1018C400CDDFD5B7138781CD5857011122CC06CE71
:1018D400138481CD01C72AC602973245938781B606
:1018E40001CD88C337150100130565742531F24015
:1018F400624401450561828003074401635807007F
:1019040037470020130727B298C3E9BF37470020A1
:10191400130727B6D5BF011122CC138481CD084407
:1019240006CE26CA19E50545F2406244D244056153
:1019340082805C58EDDB185C7DD77000854582970A
:101944001844B247E301F7FE0345E4008357C4009B
:101954009305E0043305F502938441D142054181A6
:101964009720FF1FE780C0E9C8CC55DD8357C4002A
:101974000346E4009305F00F3306F602EFF04FD36D
:10198400D04C08448357C40008C28345E400B3859F
:10199400F5021C5C89818297C84C9720FF1FE78061
:1019A40080F1014523AE040041B7411122C493875D
:1019B40081CD9C4726C206C6938441D1B1CF1384FE
:1019C40081CD1C5CB1CBDC4C85E30345E40083573B
:1019D400C4009305E0043305F502420541819720D4
:1019E400FF1FE780E0E1C8CCC84C1DC58357C40085
:1019F4000346E4009305F00F3306F602EFF04FCBF5
:101A0400D04C08448357C40008C28345E400B3851E
:101A1400F5021C5C89818297C84C19C59720FF1F69
:101A2400E78060E923AE0400B240224492440145B9
:101A34004101828001114AC8938741D122CCC04F11
:101A44004EC652C456C206CE26CAAA8AAE89328A65
:101A5400138941D139E0938481CD9C4499E3A9440D
:101A6400BDA803C5E40083D7C4009305E00433058F
:101A7400F502420541819720FF1FE78060D82A8440
:101A840041C1DC58B5CF83C5E40003D7C4002A861E
:101A94008844B385E5028981829791451307A0059F
:101AA400898193972500A29783C607006396E6046D
:101AB40083C61700639F560385058A054E86A29543
:101AC40052859720FF1FE78060EA8327C90181447C
:101AD4006387870022859720FF1FE780C0DDF240DF
:101AE400624426854249D244B249224A924A056157
:101AF400828083D527006DB78327C901E38187F6E8
:101B040022859720FF1FE78000DB91BF938781CD5B
:101B14009447A9C2985F1DCF0546631DC5024111B4
:101B240022C4138441D1504C06C60DC283C5E700BC
:101B340083D7C7003685B385F50289810297484C5F
:101B44009720FF1FE78020D7232E0400B2402244B1
:101B540041018280828001114EC6938741D1DC4FBE
:101B640022CC4AC852C406CE26CA2A8A2E89328476
:101B7400938941D1B1EB938481CD03C5E40083D72C
:101B8400C4009305E0043305F50242054181972022
:101B9400FF1FE780E0C623AEA9002A8611E9294584
:101BA400F2406244D2444249B249224A05618280E9
:101BB400884419C9DC5889CB83C5E40003D7C40021
:101BC400B385E5028981829703A5C901914613086B
:101BD400A005FD5593D72600C207C183139727009C
:101BE4002A9703460700631B06038348170003561E
:101BF400270063934803B306D64063CD26018507C7
:101C04008A073E954A86A2859720FF1FE78000D663
:101C1400014579B7A300B700B2866DBF138681CDA5
:101C24008345E6000356C600B385C5023386260104
:101C34001106E3E6C5F613063900719A1106B29649
:101C440023000701A30047012311D7004DBF01451D
:101C5400828083C705002300F50083D72500A300F5
:101C6400F50083D72500A1832301F50083C7450030
:101C7400A301F5001145828023A801B623A601B66D
:101C8400828029C1411126C206C622C4AA84014504
:101C94008DC52E84B7D50200228541469385050C57
:101CA4009720FF1FE78080CC83C7040005452306E7
:101CB400F40083C71400A306F400B2402244924403
:101CC4004101828001458280011122CC26CA06CEC0
:101CD4000947AA8432846381E50441468147639BB2
:101CE400C500638FE6006397B6000DA8414781479E
:101CF400638EE600F2406244D2443E8505618280F0
:101D04008A852285BD3F41468A8519A88A85953FE3
:101D140041468A85228531A0E39AB6FC2E86A285A7
:101D24002685EFF00F9FAA87F1B723A6A1B682807C
:101D340023A8A1B68280011122CC0354650006CEEB
:101D440026CA4AC84EC641C083298500AE842A8863
:101D540003C9090081471317890161876355070285
:101D6400B147054563FA870451144204035528001A
:101D7400418033878900A2864E868545EFB01027BF
:101D8400B337A00085077D14135569004204058903
:101D94001379F90341802380F400A380A4002381F4
:101DA400240123928400014719C01387190098C4A1
:101DB40009476383E7000145F2406244D244424943
:101DC400B249056182800545C5BFC167F917630A39
:101DD400F502D94763F7B702011122CC2EC606CE0D
:101DE4002A84EF70D023B2456368B500228562442B
:101DF400F24005616F90E026F240624405450561BA
:101E0400828005458280C167F9176314F5006F70FD
:101E14001021411106C6EF90C01411E15D45B24096
:101E24004101828091476394F502834705002300B2
:101E3400F6008347250003471500A207D98F231115
:101E4400F6008347350001452302F60082801145E0
:101E540082804111814522C426C206C6AA84312D3E
:101E64002A8419E583A7C1B681C7F94526858297D7
:101E74002285B240224492444101828039714ED677
:101E840056D25AD006DE22DC26DA4AD852D4AA8A9E
:101E94002E8BB28941EF36C6BD379145EF7090273E
:101EA400AA844D492DC9B246054A2380340105440C
:101EB400630A0B00B68513851400029B05051314F1
:101EC40005014180E20993D9894163D30902C145DF
:101ED4005685EF900016654905E933868400A2858E
:101EE4002685EFB020552A8905E13104420441805A
:101EF40091472C085685231CF10026CE231D810012
:101F0400EF80902C2A8901C963070A00268597204F
:101F1400FF1FE780409AF25062544A85D2544259D6
:101F2400B259225A925A025B21618280BA84014AD0
:101F3400ADBF011122CC26CA4AC84EC606CE2A8994
:101F44003284B689253FAA8419ED83A701B781CFCE
:101F540005476317E40003C4090005041374F40F70
:101F6400A2854A858297F240624426854249D2443A
:101F7400B24905618280AE86B72501000147054656
:101F8400938565C57DB783D705002300F50083D706
:101F94000500A183A300F5000945828083D70500CD
:101FA4002300F50083D70500A183A300F50083D7A0
:101FB40025002301F50083D72500A183A301F500A3
:101FC4001145828083D705002300F50083D70500DF
:101FD400A183A300F50083D725002301F50083D74F
:101FE4002500A183A301F50083C755002302F50052
:101FF40083C76500A302F50003D5850019054205D2
:102004004181828083D705002300F50083D7050032
:10201400A183A300F5000945828083D7050023002E
:10202400F50083D70500A183A300F50083D725001D
:102034002301F50083D72500A183A301F5001145F1
:10204400828003D54500060542054181828083D7FD
:1020540005002300F50083D70500A183A300F50044
:1020640003D52500090542054181828083D70500F7
:102074002300F50083D70500A183A300F50083D7CF
:1020840025002301F50083D72500A183A301F500D2
:1020940003D54500110542054181828083C70500AF
:1020A4002300F5000545828083D70500411122C431
:1020B40006C62300F50083D705002E841105A183ED
:1020C400A30EF5FE83D725009505230FF5FE83D7D0
:1020D400D5FFA183A30FF5FE03C6F5FF9720FF1FCD
:1020E400E780C08803454400B24022441105410101
:1020F40082808947639CF5008347150003470500E8
:102104000145A207D98F2310F600828011458280F1
:1021140003D70500D94763FEE702011122CC06CE9E
:102124002EC62A84EF70A06FB24683D70600636D73
:10213400F50022856244F240B725010001470946B3
:102144009385A5F805611DBBF2406244094505610C
:1021540082800945828091479DC583460500FD150F
:10216400C2058547C1816392F60213D725008D8984
:10217400914791E9914701CB05052301D60023102E
:10218400E60048C281473E85828009479147E39C27
:10219400E6FEC94733D7F502B3F5F502D1BFAE86E3
:1021A400B725010001471146938505FAC1B993F794
:1021B400350091EB8981914789C52310B60048C247
:1021C40081473E8582809147EDBF03C7450089471B
:1021D400631AF702011122CC2A84C84506CEAE86C2
:1021E400014719C52EC69D45EFE0DFA7B2462A87F1
:1021F40022856244F240B72501001946938585FC87
:102204000561ADB90945828099E111458280834712
:10221400050005472311F600E379F7FEFD1593F554
:10222400F50F33D7F502B387E702E390F5FE050512
:1022340048C22310E6000145828083C74500094750
:10224400AE866385E70041476399E700B72501003F
:10225400014721469385C50A15B10945828023109B
:10226400B60091E1014548C201458280AE86B7259A
:102274000100014729469385850009B12310B60062
:1022840091E1014548C201458280AE86B72501002F
:10229400014731469385E501D5B62310B60091E197
:1022A400014548C20145828003D74500854763FD47
:1022B400E702011122CC2A84884106CE0DC12EC624
:1022C4008545EFE03F9A2A8722856244B246F24070
:1022D400B7250100394693856504056145B6F2408A
:1022E40062440945056182800945828091479DC504
:1022F400034705008D46914763F2E602FD15C205CA
:10230400C181B3C6E5023308D70263990501050507
:102314002310D6002311E60048C281473E858280FF
:1023240083C745000947AE866385E7004147639943
:10233400E700B7250100014741469385C50A3DBE24
:1023440009458280B335B0001395250082800111C0
:1023540022CC26CA06CE03C785008547AA842E84CC
:1023640049466310F7024534835724004915130680
:10237400200963C8A700F2406244D24409450561BC
:1023840082800347940085476314F70013660604AC
:10239400484011C58D4532C6EFE0DF8C3246A28637
:1023A4006244F2402A872685D244B72501009385EA
:1023B40025050561E1B48D4763FFB7028347150026
:1023C40003470500F115A207D98F2310F6008347B0
:1023D400350003472500C205A207C181D98F231107
:1023E400F6002312B60089C5110508C6014582808E
:1023F40023240600E5BF11458280011122CC2A84E2
:10240400884506CEAE8611C52EC69545EFE09F855C
:10241400B2462A8722856244F240B7250100594614
:102424009385050705616FF07FA5B335B00013955B
:1024340025008280AE86B725010001476146938559
:10244400050A6FF0BFA38547114563F4D70283479C
:10245400160083450600A207CD8F2310F70093874B
:10246400E6FF2311F70089476386F600090650C387
:102474000145828023220700E5BF01478146794652
:1024840081456FF0BF9F83D705002300F50083D7F4
:102494000500A183A300F5000945828083C72500B8
:1024A40005472300F50003D505006397E7000A05F7
:1024B4000505420541818280C9473305F502CDBF38
:1024C40003D505000A0542054181828083D7250092
:1024D4002300F50003D5050083D725003305F50255
:1024E400050542054181828003D50500828003D51C
:1024F4000500828003D50500828083D72500230050
:10250400F50003D5050083D725003305F50205053D
:1025140042054181828083D705002300F50083D7DB
:102524000500A183A300F50083D725002301F5004E
:1025340083D72500A183A301F50003D54500110528
:1025440042054181828083D705002300F50083D7AB
:102554000500A183A300F50003D525000905420564
:102564004181828089471145639BF60083471600A9
:10257400834606000145A207D58F2310F700828009
:1025840003D70500D947AE8663FAE700B7250100F3
:1025940001470D469385A5486FF0BF990945828090
:1025A40011456393A602834716008346060001453E
:1025B400A207D58F2310F7008347360083462600F1
:1025C400A207D58F2311F700828083C72500054712
:1025D400FD1793F7F70F6361F70483D705008DCFD9
:1025E400011122CC2A84C84106CE15C12EC68945C4
:1025F400EFE04FE72A8722856244B246F240B725CE
:10260400010015469385054A05616FF09F92F240DB
:1026140062440945056182800945828095471145D8
:1026240063F9D706411122C426C24AC006C68347AD
:102634001600BA8403470600A2073284D98F239078
:10264400F400834736000347260093054400A2079D
:10265400D98F2391F40089472382F4000946138516
:10266400540036899710FF1FE78040309307A9FF75
:102674002394F4009947631BF90023A60400B24095
:102684002244924402490145410182801904C0C494
:10269400FDB7828083D705008DCF011122CC2A8417
:1026A400C84106CE15C12EC68545EFE0AFDB2A87AB
:1026B40022856244B246F240B72501001D46938547
:1026C400454C05616FF0FF86F2406244094505619F
:1026D40082800945828099476395F60489474111B0
:1026E40006C62302F7008347160083460600B28518
:1026F400A207D58F2310F7008347360083462600B0
:1027040003464700A207D58F130557002311F7008E
:1027140091059710FF1FE7806025B24001454101F4
:102724008280D14711456394F600C1474DBF828032
:1027340083D705008DCF011122CC2A84C84106CE4F
:1027440015C12EC68945EFE0EFD12A872285624460
:10275400B246F240B725010025469385054D056133
:102764006FF02FFDF24062440945056182800945FE
:10277400828089471145639BF60083471600834690
:1027840006000145A207D58F2310F70082800111AE
:1027940022CC2A84C84106CEAE8611C52EC68545F4
:1027A400EFE04FCCB2462A8722856244F240B72537
:1027B40001002D469385C54E05616FF08FF71145D5
:1027C4006393A60283471600834606000145A207C9
:1027D400D58F2310F7008347360083462600A207CF
:1027E400D58F2311F7008280011122CC2A84C8419D
:1027F40006CEAE8611C52EC68545EFE0AFC6B246FD
:102804002A8722856244F240B72501003546938524
:10281400254F05616FF0EFF193F71600114589EB31
:1028240089476387F60085822312D70010C30145C8
:102834008280011122CC2A84C84106CE15C12EC63D
:102844008545EFE02FC22A8722856244B246F240D2
:10285400B72501003D469385854F05616FF06FED07
:10286400F240624409450561828083D705008DCF1B
:10287400011122CC2A84C84106CE15C12EC6894531
:10288400EFE04FBE2A8722856244B246F240B72564
:10289400010045469385E54F05616FF08FE9F240ED
:1028A400624409450561828009458280854763FC4D
:1028B400D7022304A700A304B70083471600834567
:1028C4000600A207CD8F2310F7009387E6FF23119C
:1028D400F70089476386F600090650C301458280E4
:1028E40023220700E5BF11458280014781464D46FA
:1028F40081456FF00FE48D47114563FBD702834791
:10290400160083450600A207CD8F2310F7008347E6
:10291400360083452600A207CD8F2311F700938745
:10292400C6FF2312F7006386A600110610C70145EF
:10293400828023240700E5BF011122CC2A84884524
:1029440006CEAE8611C52EC69545EFE0AFB1B246B0
:102954002A8722856244F240B72501005D469385AB
:10296400A55105616FF0EFDC854711456397F600CB
:102974008347060001452300F70082800147814612
:10298400654681456FF0EFDA011122CC2A84C841F3
:1029940006CEAE86014719C52EC68D45EFE08FAC35
:1029A400B2462A8722856244F240B72501006D466B
:1029B4009385A55405616FF06FCC011122CC2A8454
:1029C400C84106CEAE86014719C52EC68D45EFE037
:1029D4006FA9B2462A8722856244F240B7250100D6
:1029E40075469385A55405616FF04FC9011106CE54
:1029F4002EC6EF80A05301C9B245F240035525000D
:102A040005616FB09003F240494505618280A38E51
:102A140001B8238E01B823A201B823A401B823A6C8
:102A240001B823A801B823A001B823AE01B6938747
:102A340041D33707B40098C33747A000D8C337073A
:102A440010009306070A94C7B7065000C106D4C7FE
:102A5400930607054107D8CB3707D007410798CF1E
:102A640037070F0098D337C70700130707B8D8D321
:102A7400416794CB93060701130717F8D8D741771A
:102A840023AE070094D798DB8280011126CAAA845A
:102A9400214522CC06CE2E8432C636C43AC2EFE09B
:102AA400CFA31DC9A24612473246930700FD230057
:102AB400F5009947A30095002301F5002303D500F1
:102AC400A303E5002312C500AA8522856244F240CF
:102AD400D24405616FE0AFAAF2406244D24405617A
:102AE400828023A2A1B8828023A4A1B8828023A6D5
:102AF400A1B8828023A8A1B88280011122CC4AC83F
:102B040006CE26CA2A890144B30489006368B40046
:102B1400F2406244D2444249056182802EC6EFE00D
:102B24000FB593170501C183A183B2452380F40037
:102B34009307140093F7F70F850463F9B700CA9756
:102B440009042380A7001374F40F7DBF3E847DBF66
:102B5400411122C4138481D603556400C16706C69B
:102B6400FD17630BF50003C6C1C2938541B9EF801D
:102B7400A026FD572313F400B24022444101828071
:102B840009C925151375F50F1335850E1345150061
:102B940082800145828023800500F94763E2C708EB
:102BA400797122D426D24ECE56CA5AC806D64AD0F5
:102BB40052CC5EC63684B289AE8A2A8B814463FFC6
:102BC4003405B307940003CA07001389140013796A
:102BD400F90F63050A04B3072A0163C1F904B307B3
:102BE400240183CB07005E85613F0DC99307FAFF7B
:102BF4002380FA0063906B03130519002295B250E9
:102C0400225492540259F249624AD24A424BB24B7C
:102C140045618280D29493F4F40F55B70145C5B74A
:102C240001458280011122CC26CA4AC84EC6938728
:102C340081D606CE2E89D0CB8CCBC8C7AA84414678
:102C44009305F00F4A85EFE0CFB08549138481D610
:102C5400631735030848C1454D3541469305F00FC8
:102C64002685EFE00FAF054963132503484462440A
:102C7400F240D2444249B249C1450561BDBD414615
:102C840081454A85EFE0EFACE31935FDE1B74146F4
:102C940081452685EFE0EFABE30A25FDF24062446F
:102CA400D2444249B24905618280011122CC26CA2C
:102CB4004EC6AE84AA8913060002138581D68145C7
:102CC40006CE4AC8EFE0CF9E138981D6A38791C26E
:102CD400A3013901EFB0E057138481D6854719C1A8
:102CE400814749452300F400F2406244D2444249FA
:102CF400B24905618280814781CD19C98547631B2B
:102D0400F50083C7550093E707FCA382F5008547C8
:102D14003E85828089476317F50083C7550093F782
:102D2400F703E5B70D478547E314E5FE03C75500F0
:102D34001377F70313670704A382E500D1BF814724
:102D44008DC105C103C755009306000C8547137751
:102D5400070C6308D700930600048D476303D7006C
:102D640089473E858280411122C4005D06C626C281
:102D74001DC8AA84085009C59710FF1FE780A0B397
:102D8400485009C59710FF1FE780E0B2085409C5F1
:102D94009710FF1FE78020B222859710FF1FE7805E
:102DA40080B123AC0402B2402244924441018280A7
:102DB400938781D609E903C727001385870111C7C3
:102DC400138541B7828013858701828003C5A1D60C
:102DD400828003A541D7828003A581D7828083A7FF
:102DE400C1D788438280938781D6D44B9842050704
:102DF40098C203C537009307F00F6305F50091658A
:102E04006FE06F978280011122CC06CE2E8432C6E9
:102E1400EF80A0209147B245631EF50083A701B956
:102E240085C303A30700630D030022856244F240B7
:102E34000561028383A781B881C703A34700E5B76F
:102E4400F2406244054505618280011122CC2A8446
:102E54000355450006CE26CA4AC84EC6EF80A004D4
:102E640035C52A89834405008349C500ED3D4A855B
:102E7400EF80F07203554400EF80A0151389C1B9A7
:102E840083470900A1CB6397970483C5D1B92685ED
:102E9400EFF0DFB519E12300090003554400EF808A
:102EA400C0179147631DF500938781D6835644006C
:102EB40003D767006395E6007D572393E700F2404C
:102EC4006244D2444249B2490561828081499304F3
:102ED400F00F6DB79307F00FE381F4FC83466400B1
:102EE40003564400034524004E87A685EFF0FFB93E
:102EF4006DB779715EC6AA8B2E8552CC56CA5AC854
:102F040006D622D426D24AD04ECEAE8A328B368A08
:102F1400EF70707979CD045D2A89E1CC9C506145CC
:102F240099C3130540039C5481C75105420541814F
:102F340063050A00710542054181DC5081C75905CA
:102F440042054181EFD07FD92A8445C56146814538
:102F5400EFD01FF683C941D6639409008349090061
:102F6400930700FD2300F400A947A3007401230183
:102F7400F400230364018C502312540113058401CB
:102F840091C908C47146930A44039710FF1FE78050
:102F9400E09D56858C5491C948C45146930A450115
:102FA4009710FF1FE780809C5685630C0A0008C8B1
:102FB4007146D285930AC5019710FF1FE780009BD5
:102FC4005685CC5099C548C859469710FF1FE780CD
:102FD400E099A2854E85EFD09FDA2254B2509254E4
:102FE400F249624AD24A424BB24B4A850259456180
:102FF4009DBBB250225492540259F249624AD24AB9
:10300400424BB24B4561828001114EC6AA892E857E
:103014004AC806CE22CC26CA2E89EF70D06821C5B4
:1030240083C441D699E0834405001945EFD0FFCA13
:103034002A8415C981451946EFD09FE7930700FDFF
:103044002300F400B947A30034012301F400231240
:103054002401A2856244F2404249B2492685D24401
:1030640005616FD0DFD1F2406244D2444249B24993
:103074000561828039715ECEAA8B2E8526DA4ED602
:1030840052D456D25AD006DE22DC4AD8AE84328BD1
:10309400B68A3A8ABE8942C6EF70F06021C92A898D
:1030A4004145EFD09FC32A8431C141468145EFD0C9
:1030B4003FE003C541D619E103450900930700FD2C
:1030C4002300F400BD472301F400B247A3007401B8
:1030D4002312940023046401A3045401230544012E
:1030E400A30534015CC4A285EFD07FC9F2506254B9
:1030F400D2544259B259225A925A025BF24B21617C
:103104008280797126D2AA8439454AD04ECE06D619
:1031140022D42EC6B2893689EFD03FBC21C1B24534
:103124009307000D2310F500B1472A842312B5003C
:103134002301F500CE85190519469710FF1FE78076
:10314400E08223062401A2852254B2500259F24996
:1031540013F5F40F925445616FD07FC2B2502254DC
:1031640092540259F24945618280411126C29384E6
:1031740081D603C7340006C622C44AC09307F00FA1
:10318400630AF7042A893945EFD03FB52A8439C147
:10319400930700FD2300F500A3002501230105008A
:1031A400938584010D0519469700FF1FE780007C75
:1031B40083D78400A28503C534002315F40083C794
:1031C40014002306F4002244B2409244024941010F
:1031D4006FD0FFBAB2402244924402494101828036
:1031E400011156C2AA8A314526CA4AC84EC652C4DB
:1031F40006CE22CCAE84328AB6893A89EFD0FFADAE
:1032040039C52A842685EF70104A1DCD0345050073
:10321400930700FD2300F4009D47A30054012301FC
:10322400F4002312940023134401231434012315BE
:103234002401A2856244F240D2444249B249224A5E
:10324400924A05616FD0BFB303C5B1D6D1B7F2407E
:103254006244D2444249B249224A924A0561828078
:10326400397162CC2A8C594526DA4AD84ED652D4C2
:1032740056D25AD05ECE06DE22DCAE8432C636C4C6
:10328400BA8B3E8BC28A468A83590104034941049E
:10329400EFD0BFA435C53246930700FDA2462300F4
:1032A400F5009547A301C500A30085012301F5009E
:1032B4002A8419461105A9C2B6859700FF1FE78025
:1032C400E06A23066401230A2401231574012317E9
:1032D40054012318440123193401A2856254F25085
:1032E4004259B259225A925A025BF24B624C2685D9
:1032F400D25421616FD0BFA88145EFD07FBBD1B735
:10330400F2506254D2544259B259225A925A025B30
:10331400F24B624C21618280411122C4138481D614
:103324008347240006C626C29DC7AA85194613856D
:1033340041B79700FF1FE78060630345240093852E
:1033440041B7EFF05F9B2244B240138541B79244EA
:1033540041016FA0D070B240224492440145410122
:103364008280411126C2938781D606C622C44AC0F0
:1033740003C737009307F00F938481D66302F704E1
:103384002A892945EFD07F952A841DC9930700FD1A
:103394002300F500A147A30025012301F50083C7FD
:1033A4002400938541B7A301F50019461105970040
:1033B400FF1FE780A05B03C53400A285EFD03F9CCC
:1033C40003C7440085476315F70283A7C1B881C7C3
:1033D4009C4791C382972244B2409244024903C558
:1033E400C1C25D6613060670914541016FD01FFF8F
:1033F400B24022449244024941018280797122D42C
:1034040006D626D24AD04ECE52CC56CA09445DC9FD
:103414002A8903550500AE895144EF70D028AA8447
:1034240055C19387C1C283C737008546BA8AFD1741
:1034340093F7F70F494463F7F6080347C500A1471C
:103444006314F700639009089C5C4544A5EF9165FB
:10345400938545711305C0029700FF1FE780403A2A
:1034640088DC2A8A4D4439CD1306C0028145EFD049
:103474003FA48357090093064A0036852311FA00B6
:1034840071469305490036C69700FF1FE780004E3A
:1034940089472300FA0003C5C400B2460356090055
:1034A40083C5C1C2611513351500EFA060272A84B6
:1034B40063860900CE852685EF80503901C42685B0
:1034C400EFF07F8A2285B250225492540259F24975
:1034D400624AD24A4561828083C7F1C20547FD171B
:1034E40093F7F70F6378F708894751C6011122CC87
:1034F40026CA4AC84EC652C406CEAA89368AB2849F
:103504002E89EF70501A2A84D14729C9485509C514
:103514009700FF1FE780203AF1452685EFD0BF9B37
:1035240048D4CD4705CD8346C40021478147639FD6
:10353400E600630D0A000347A5010356050193063F
:103544002501AA854E85EF80C028AA870347440039
:10355400630F0900136767002302E400F24062442A
:10356400D2444249B249224A3E85056182801367AA
:103574004700DDB7C9473E858280E14763EAA7007B
:1035840093171500138541D33E950355050082809A
:1035940041657D158280011122CC2A842E8526CA9C
:1035A40006CEAE84EF7030100DCDB7470F00938771
:1035B400F723094563E2870281450A854146EFD036
:1035C4003F8FA685231081000A8541802301810055
:1035D400A3010100EF905077F2406244D2440561A8
:1035E40082804945D5BFA386A1C282806FA0600CAA
:1035F400797152CC2A8A328522D426D24AD04ECE30
:1036040056CA5AC85EC606D662C4AE8BB28A368B18
:10361400BA843E89C2894684EF70F00815C92A8CA1
:1036240063140A0213774B008347450015CF93E7D1
:1036340027012302FC008DEC631C0902639A090232
:1036440005E8ED9B2302FC00832B8C03639F0B0690
:10365400B250225492540259F249624AD24A424B1D
:10366400B24B224C45618280F59B93E70701D1B7A9
:1036740093E747002302FC0001CC1C484146A28585
:103684002324FC0213058C019700FF1FE780002E02
:1036940063910B02D5D80325CC0209C59700FF1FFF
:1036A400E7806021F1452685EFD0FF822326AC0216
:1036B40061BFE30B09F80325CC0209C59700FF1F7E
:1036C400E780601FF1454A85C5B79DC483A70B02F7
:1036D40099EB91659385357171459700FF1FE780DC
:1036E400201223A0AB0203A50B0219C57146A685BF
:1036F4009700FF1FE78080276388090283A74B0296
:1037040099EB91659385257159459700FF1FE780D3
:10371400200F23A2AB0203A54B0219C55946CE853F
:103724009700FF1FE78080241DC483A78B0299EBB9
:1037340091659385157151459700FF1FE780400CF3
:1037440023A4AB0203A58B0219C55146A285970099
:10375400FF1FE780A0212254B2509254F249B24B89
:10376400224CCA865A860259424BD6855285D24A81
:10377400624A45616FF0EFF7011126CA52C406CEC2
:1037840022CC4AC84EC62A8AAE84EF70C07135C1B5
:10379400AA893945EFD06FD42A8421CD03C941D6F3
:1037A4006314090003C909009307000D2310F400F2
:1037B400AD472301F40093856900130534001946CD
:1037C4009700FF1FE780801A93F71400858085888F
:1037D4002306F400A306940023154401A285624441
:1037E400F240D244B249224A4A85424905616FD027
:1037F4000FD9F2406244D2444249B249224A056197
:103804008280411122C41384C1B7084006C619C579
:103814009700FF1FE780200A23200400B2402244BF
:1038240041018280011106CE22CC26CA4AC82EC686
:10383400EF70606729CDB24503C941D60CD5AA847F
:1038440063140900034905004145EFD00FC92A84D8
:103854001DCD9307000D2310F500A5472301F500A6
:1038640083C75400938564001105A30FF5FE194620
:103874009700FF1FE780800F9C54A285F2405CC430
:103884006244D2444A85424905616FD04FCFF24029
:103894006244D244424905618280797122D406D6B9
:1038A4002A842EC6EF7020600DCD8346C5001147D3
:1038B400AA8749456393E6029C5FB24599C383C5D1
:1038C40067010808EF807001B7D601009386C6929D
:1038D400100889452285EF707074B25022544561F6
:1038E40082805145DDBF83C7F1C20547FD1793F7B9
:1038F400F70F637AF704894721CA411122C426C20B
:103904004AC006C6B2842E89EF70E0592A84D14792
:1039140005C5630809008347450093E72700230290
:10392400F5004146A685130584019700FF1FE78033
:10393400E0039C481CD48147B2402244924402498B
:103944003E8541018280C9473E858280797122D4B7
:1039540006D62A842EC6EF70005501CDB2452285C5
:10396400230EB1006C08EF80E06AB2502254456126
:1039740082805145DDBF6F704060C1671387E7FFE8
:103984006393E50283A781B891EB49458280494559
:10399400B2402244924402494101828003A30700B9
:1039A400E30503FE0283411122C426C24AC006C6AF
:1039B400FD172A892E84B2846394F50283A781B803
:1039C40091CB9C4381CB829711E5238E21B9A38EA1
:1039D40091B87DBFA6854A85EFF04F8155F9F5B7BB
:1039E4002E85EF70404C45D5834705000D45E39186
:1039F40027FB22852244B2400249A6859244410114
:103A04006FA0B003E14763E6A70441677D178947C8
:103A14006382E504411122C426C206C6C547AE84AA
:103A24002A84631AF5001305C0033385A5024205F1
:103A34004181EFA0500A13151400138441D3229539
:103A4400B240224423109500814792443E854101AF
:103A5400828089473E858280011106CE2AC6EFE026
:103A64001FFBEF1080154D2DEF809174938781D645
:103A7400130700F02391E7002382070032451387E0
:103A8400C1C2FD56A300D700F2402386A1C29545CA
:103A940005616F5070641D7193970501CAC886CE85
:103AA400A2CCA6CACEC6D2C4D6C2DAC05EDE62DC5E
:103AB40066DA6AD86ED6C1872E8963D9074603C5EC
:103AC400C1C2EFD06FA52A84138A01E2938481D600
:103AD4001DE021653345A900F6406644D6444649B5
:103AE400B649264A964A064BF25B625CD25C425D5A
:103AF400B25D25618280834704001307200A639C1A
:103B0400E70083CB340003552400C1652286FD15EC
:103B1400EFF06FAF31AA1387C1C2834B17001307AD
:103B240010096393E714834714001547639EE70065
:103B34002285EFF08FB12285EFD06F9703C5C1C204
:103B4400EFD08F9D2A8469B739476393E7140355EF
:103B540044008567A5076313F5040C4403CD0500F1
:103B6400631B0D00850581C91946138501D897008B
:103B7400FF1FE780A0DF03C7040085476316F70E25
:103B840063080D00238004006A85EFF00FDE65B73B
:103B940089472380F400EFA0406C71BF0967930745
:103BA4002700631CF504032D8400630F0D0A83476B
:103BB4000D0089EF83472D0003471D00A207D98F0D
:103BC4002394F40083473D00A380F40003C704005A
:103BD4008947631BF70883470D0091C723800400BE
:103BE40003450D005DB783C5140003D584008D47DC
:103BF4002380F400EF501051E5B793075700631882
:103C0400F5001C4403C50700EFF0AFF52DB7F977B5
:103C1400E917AA97C207C183914663EEF60083A70A
:103C2400C1B8E38A07F09C43E38707F022858297B3
:103C3400E31305F015A82D07631EE50083A741B81B
:103C4400E38B07EE9C43E38807EE0965A2852D0507
:103C54008297F9BF89671387C7006310E5021C4484
:103C640083C70700E38907EC9307F00FE385FBECB8
:103C7400A2855E85EFD0AF90D1B5B907E316F5FE06
:103C840083A781B8E38907EADC43A285F1F365B52C
:103C94003D476397E7040355440089671387D700BA
:103CA400E300E5FE13879701E30CE5FCCD07E31D74
:103CB400F5FA03D76400C167FD17631DF70083A7F6
:103CC40081B8E38A07E6DC43E38707E60965A28552
:103CD4004D05BDBF83A701B9E38F07E49C43EDB74E
:103CE4001307E003E392E7F883472400054763934F
:103CF400E70E83476400938DC1B7F1E383A70D00FA
:103D0400C5CF03CD0700A14B03457400930C840079
:103D1400E685EFF0CF8283474401A303A4008358D0
:103D240004010358E400035744002A860345340081
:103D34003EC283572401E686EA853EC0DE87EFF063
:103D44002FD28347340095E7DD4783580401035895
:103D5400E40083467400835544003EC28357240123
:103D64003EC06687DE8705466A85EF704040A30142
:103D7400A40083A70D0081C71145EFF09FA8138D00
:103D8400C1B903450D00E30805DA83C5D1B9EFE0F5
:103D9400FFC5E30205DA8346340093071003638A00
:103DA400F6000356440083450D005E873685EFE038
:103DB400DFCD238E01B841B303CD3400A9B783A767
:103DC400C1B803CD3400914BA1D3DC4395DF014549
:103DD40082971DBF29476398E70883476400938D42
:103DE400C1B7BDE783A70D00ADC303CD0700A14B49
:103DF40003457400930C4401E685EFE05FF48347C8
:103E04000402A303A4008358C4010358A401035764
:103E140044002A86034534003EC28357E401E68603
:103E2400EA853EC0DE87EFF0AFC383473400B1F3C9
:103E3400DD478358C4010358A401834674008355A5
:103E440044003EC28357E40121BF03CD340045B78B
:103E540083A7C1B803CD3400914BD9DBDC43C9DB64
:103E64000145829771B70947639CE70083A741B86E
:103E7400E38307CCDC43E38007CC2285829765B9D2
:103E84002D476398E70083A741B8E38607CA9C4798
:103E9400DDB70D476397E70022868D45035544003F
:103EA40085B919476395E706930561011305103138
:103EB400EF8051382C0813052031EF80B1370356B9
:103EC4006400835781010355440063E8C7008356A7
:103ED40084000357610163F7E60093050002EFA035
:103EE400803E91B96374E6002313E40063F4D700C1
:103EF4002314F4000357C4008356A400035684001B
:103F04008355640001488147EFA0A03B2DB11D47B4
:103F1400E39CE7D403574400E3E8E7D48357640001
:103F240006075297F1172310F7003DBB93F71500CE
:103F340099CB83A741B889C7DC4399C301458297CC
:103F44001345190051BE93F7250099CB83A7C1B837
:103F540089C7DC4399C30545829713452900ADBE43
:103F640093F745000145E38907B6938781D683C754
:103F74005700138481D6A1C7FD1793F7F70FA30247
:103F8400F40095EF83A701B899CB85472302F40089
:103F940083A7C1B889C7DC4399C3054582974844C0
:103FA4002C08EF90E0432808EFF00FB783D761D5D2
:103FB4009145A302F40003C5C1C2EFD00FC5134558
:103FC400490019BE411122C42A84554506C6EFF0A2
:103FD400CFDAB335A00022852244B24041016FA05C
:103FE4008029797122D406D68D472E84631FF5006B
:103FF40003D7A50083D6850003D6650003453400A6
:1040040083D54500EFF0CF9D09A889671387D700B2
:10401400631FE50203C5250019E58547B250225404
:104024003E854561828083A6C1B7E5DA03C63600C2
:1040340083C50600814802C202C001488147014786
:104044009106EFF0EFA10545EFF0AFFBF9B7138749
:10405400E700E304E5FC13873701631AE50003C5B1
:10406400250045DD014781460146814561BFE507DD
:10407400E305F5FA41677D178147E311E5FA03C7C4
:104084005500C947E31BF7F883D6E50003D6C500FE
:104094000355840083D5A500EFA0602421C15D45AC
:1040A400EFF0AFCD3335A000231EA10083454400BB
:1040B400035524007008EF6090538357C101B1FF8A
:1040C4000357E4008356C4000356A40083558400B8
:1040D400035524000148EFA0C01C81B78547231E67
:1040E400F100E9B7C1671387E7FF639CE50083A785
:1040F400C1B78DC383C707000D47639BA7006FA09B
:104104008019FD1749476395F50083A7C1B7E5FBFF
:104114003A8582804947EDBF238401BA23A801BAB6
:1041240023A601BA37470100938781D81307E736DE
:1041340098C3374701001307673AD8C337470100CC
:104144001307076E98C737470100938701BA13070F
:10415400870E98C337470100130767FED8C38280D0
:10416400011122CC83A701BB06CE26CA4AC84EC67B
:1041740052C48DC3138401BB2E8AAA84014908400A
:1041840063129902630C0A0497F0FE1FE780A07281
:1041940023200400F2406244D2444249B249224AF4
:1041A4000561828093194900B3073501884709C91D
:1041B40097F0FE1FE78020701C40CE9723A40700D1
:1041C4001C40CE97C84709C997F0FE1FE780A06E30
:1041D4001C40BE9923A60900050955B745DD139671
:1041E40044008145EFC0DFCC144081477D5613F76E
:1041F400F70FE37197FA1397470036972300C70028
:104204008507F5B779714AD083A7C1BA06D622D4F7
:1042140026D24ECE52CC56CA5AC85EC6D1CFAA892F
:104224001389C1BA938A81BA014411ED83A601BBF3
:1042340099CA03C60A002A8481479305F00F13F72D
:10424400F70F6366C708131534002105EFC0FFA8F4
:10425400AA8401E92145EFC05FA8AA8431C10144C1
:10426400CD49930700FD2380F4008547A3803401E2
:104274002381F400A381840055C49389840023A27C
:104284003401014A930BF00F83C70A006373FA00E9
:1042940039E883270900A68503C50700EFC03FAEB0
:1042A40003C50A0081456D3D0325090097F0FE1FF3
:1042B400E780606023200900B250225492540259CE
:1042C400F249624AD24A424BB24B4561828013970B
:1042D40047003697034707006305B70005041374C6
:1042E400F40F8507A9BF83A701BB93154A00BE95A8
:1042F40083C70500638477032380F90083C715000F
:10430400138529007D14A380F900194689051374C7
:10431400F40F97F0FE1FE7806065A109050A137A80
:10432400FA0F9DB723A20400ADB7411122C406C6FB
:104334002A8405E10945EFF04FA42A8611C503C577
:10434400C1C28545EFC0DFF60545EFF0BFC72A843B
:1043540001C903C5C1C28545EFD02F8B22855D35C8
:10436400B240224405454101828089671387B70022
:104374006319E50083A7C1BA95C39C4503C507002B
:104384006DB71387C7008147631BE5009C4503C5D0
:104394000700854709C583A7C1BAFDF381473E8558
:1043A40082801D7186CEA2CCA6CACAC8CEC6D2C48B
:1043B400D6C2DAC05EDE62DC66DA6AD86ED6630E16
:1043C400052683473500AA8985C7404115C059454C
:1043D400EFF0AF9A93178501E187116C3EC2014952
:1043E400930BF00F930DEC7183C739006361F902ED
:1043F400F6406644D6444649B649264A964A064B90
:10440400F25B625CD25C425DB25D256182808307AF
:104414008402124763CEE72A83A7C1BA138AC1BABA
:10442400938401BBADCB0347040085476309F706BA
:1044340003468400930694009305F1010545EFE0DB
:104444008FF5814719C1834705008346040011474E
:104454006381E60203270A008D4603471700630AB7
:10446400D70081CB19C705C98546631DD7028D8B3B
:104474009DC303451400930C2400E685EFE03F8CB4
:10448400A300A4009C40AA86014D95E703460400BE
:104494009147631FF60C9C40639C072215A4814737
:1044A400014565B78946E318D7FE858BD1B7130755
:1044B4001D00137DF70F83C781BA8840E378FDFCA4
:1044C40093174D003E9503460500E30276FF03462D
:1044D4001500E31ED6FC1946E68509053EC636C41A
:1044E400EFC03FA3A246B24779D198408346040067
:1044F400330DF700E30C0DF81147639EE60803251E
:10450400CD000DC503478400034605006308E60893
:104514008346040011476391E60A0325CD0019C5BB
:1045240097F0FE1FE780203923260D000345840001
:10453400EE85050597F0FE1FE780802C0DC58346A8
:10454400040011476394E6082326AD0083478400E2
:10455400930594000505A30FF5FE0346840097F028
:10456400FE1FE780A040834784006397071425B7A4
:104574009C4095D383C581BA8146E38EB6F03E87CD
:10458400C10703C507FF6304750D850693F6F60F8F
:10459400EDB708C7EDA803258D00A5B793059400D2
:1045A4000505EFC01F970547E314E5F65545EFE011
:1045B400DFFC63030510C5B503258D0025D997F0ED
:1045C400FE1FE780402F23240D008DB72324AD0068
:1045D400B5BF9307000D2310F500B5472301F5007F
:1045E40083470400194693052400A301F5008307BB
:1045F400840215052303F50083471400A30FF5FE79
:1046040097F0FE1FE7808036034684002386C400AB
:1046140015C21385440188C89305940097F0FE1FC2
:10462400E780C03483270A00A68503C50700EFC0CE
:104634000FF579A823A80400F5B783A7C1BAE389C5
:1046440007DAEFF03FBC0145EFF0DF9755B32300E5
:10465400C70083471400130527001946A300F70079
:10466400E6853AC497F0FE1FE78040300345840096
:104674009305FC71050597F0FE1FE780601822473B
:1046840005C5834604009147E395F6F048C7834780
:104694008400930594000505A30FF5FE03468400EA
:1046A40097F0FE1FE780802C8347840091E703473F
:1046B40004008547E311F7DE83270A00E38D07DC56
:1046C400034584005105EFC04FE1AA84E31305F0CC
:1046D4000509130494021379F90F39B3797106D6D5
:1046E40022D426D24AD04ECE52CC56CA5AC85EC61E
:1046F40062C479C183473500AA8995C3444185C002
:104704005945EFE09FE7931A850193DA8A410149FD
:10471400930B00FD414C83C73900636EF900B2501E
:10472400225492540259F249624AD24A424BB24B41
:10473400224C456182808387F40063CA5707138A39
:10474400C1BA83270A00A5C75145EFC00FD92A84EF
:1047540039CD23007501A30005002301850183C71A
:104764000400194693852400A301F5008387F4000F
:104774001505A306F50083C71400A30FF5FE97F0F3
:10478400FE1FE780A01E83C7840093859400130551
:10479400C400A305F400194697F0FE1FE780001D2E
:1047A40083270A00A28503C50700EFC04FDD050972
:1047B400C1041379F90F85B783A7C1BAADD3EFF05C
:1047C4007FA42254B25092540259F249624AD24A06
:1047D400424BB24B224C014545616FF0AFFE83A7BB
:1047E400C1BA95C703C707008D476313A70203C562
:1047F400C1C24111854506C6EFC03FC11305000380
:10480400EFF05FA0B240014541016FF0AFFBC94733
:104814003E858280011126CA9384C1BA9C4006CE8B
:1048240022CCB9EF83C7F1C2A98BADC391652A84A9
:104834009385D571114597F0FE1FE78060FC88C011
:1048440021C9A285114697F0FE1FE7802012154565
:10485400EFE0BFD22AC61945EFE03FD20347340048
:1048640083C6A1D62A86034524006244B245F24099
:10487400D2443337E000B336D00005616F90701F27
:104884004545F2406244D244056182804945D5BF22
:104894004D45C5BF83C7F1C2397122DC06DE26DA75
:1048A4004AD84ED652D456D25AD0A18B4944638D9D
:1048B400070C83A7C1BA41446398070C2A89EFF017
:1048C4008F8B83C781C155446370F50C83A7C1B72F
:1048D4004544DDEB91659385C571294597F0FE1F2D
:1048E400E78000F223AEA1B64D4459CD2946CA85CE
:1048F40097F0FE1FE780800783A7C1B783C717001F
:10490400D9CF2D45EFE07FC72A843145EFE0FFC6BC
:1049140083C7A1D62A894145B337F0003ECEEFE0E4
:10492400DFC52A8B3D45EFE05FC5AA8A3545EFE038
:10493400DFC42A8A3945EFE05FC4AA892145EFE044
:10494400DFC32ACC1D45EFE05FC303A7C1B72ACA62
:104954000345370093054700EFE0EFB903A7C1B75C
:10496400E248524803462700F247AA865AC62285DF
:1049740056C452C24EC01107CA85EF9010102A8443
:1049840001C50D45EFE0FFE72285F2506254D25491
:104994004259B259225A925A025B216182802545BA
:1049A400EFE0BFBD2A84294595B783C7F1C201450D
:1049B400A18B99C3138501BA6FE00F93411122C4EF
:1049C400138481BA26C2AA8403450400854506C619
:1049D400EFF00FF983C7F1C2A98BB5C72300940088
:1049E400138581D8EFE0EF8F938401BB9C4099C776
:1049F4004D45B24022449244410182800345040063
:104A040019E10145FDB791659385B571120597F0DC
:104A1400FE1FE780E0DE88C061DD034604008145B7
:104A24001206EFC0EFC88346040090408147FD554D
:104A340013F7F70FE377D7FC139747003297230058
:104A4400B7008507F5B7014523000400EFE06F893F
:104A54004DBF411122C403A501B806C619C597F07C
:104A6400FE1FE78040E523A001B8B2402244410183
:104A74008280011122CC06CE26CA8D472E84631370
:104A8400F50603C73500E94703D54500938481D66D
:104A94006316F70083D764006382A706EF60A04023
:104AA40009C5835764002317F5000357A4008356F0
:104AB4008400035664008355440003453400EFE04A
:104AC4002FF20357440083D764006309F700854736
:104AD400F2406244D2443E8505618280FD572393AF
:104AE400F400F5B78967CD07631DF50083C725007A
:104AF40031476385E7004547E39BE7FCEFE04F85DB
:104B0400F9B741677D178147E314E5FC83C6550077
:104B14004947E39FE6FA83C5450003552400300066
:104B240023140100EF6080275DB7797122D483A735
:104B340001B806D626D24AD00545ADC70D45EFE0EB
:104B4400DFA3AA841145EFE05FA32A899305F1014D
:104B54001305F041EF6091190347F101938781D662
:104B640021CB83C727000D4789466384E700B3360A
:104B7400F00083A701B836C603C537009385470004
:104B8400EFE06F9703A601B8B2462A878348B600C0
:104B94000348A6009307460003462600CA852685D7
:104BA400EF90206CB2502254925402594561828095
:104BB40083C62700B336D0006DBF7D57238EE1AE88
:104BC400239A01BA23AE01BA23A001BC23A201BCDB
:104BD40037570100938741D9130747C598C33757FF
:104BE4000100130727F3D8C3375701001307E7B2AF
:104BF40098C7B7570100938767A723ACF1BA82809F
:104C0400411126C283A701B806C622C48DCF2A84C7
:104C14000D45EFC08F8CAA8505C1930700FD2300C5
:104C2400F5008D47A30085002301F50083A701B893
:104C340003C50700EFC0AF9419C42244B2409244A4
:104C440041016FF01FE1B24022449244410182804D
:104C5400797122D403544500896706D626D24AD0F6
:104C64004ECE52CC56CA13876700631FE40283A753
:104C740001B8814489CF1845034507001DE1054764
:104C8400A380E7000545EF90805E01ED8544B250B6
:104C94002254268502599254F249624AD24A456105
:104CA4008280EFF0FFF5DDB7138797006367870411
:104CB4009384C1AF03C704009307F00FE308F7FC24
:104CC4001C45114503C90700EFC02F81AA855DDD8E
:104CD400930700FD2300F50089472301F500F977C8
:104CE400E1173E9413341400A3002501A3018500A9
:104CF40003C50400EFC0AF8851BFA9078144E3187E
:104D0400F4F883A701B8CE8AD9D3184583C4170011
:104D14008547034A0700138981D6638CF4028347CD
:104D24004900ADF70D45EFB05FFBAA8505C19307B8
:104D340000FD2300F5009147A30045012301F50080
:104D440083A701B803C50700EFC06F83EFF07FD0DE
:104D540035BF83A7C1BB91EF0145EFE01F822A86CF
:104D640011C603C5C1C28945EFC08FD483A701B85A
:104D7400A9A003C60700938617009305F100054513
:104D8400EFD07FE171D983470500858BF1D70545C5
:104D9400EFE0AFFE9307B0032A8463F9A70203C5CB
:104DA400C1C25D66130606708945EFC02FE3130484
:104DB40044FC239A81BA83A701B80947A380E7007A
:104DC4008347490089CB23020900D1B51306006447
:104DD4003306C50271B75285EFF09FE24DBD79717C
:104DE4004ECE83A701B822D406D626D24AD052CCBE
:104DF400454489EB9387C1C283C7370013F7570033
:104E040019EB49442285B250225492540259F24972
:104E1400624A4561828003A7C1BB414465D7034709
:104E240007006DD3858B2E892A8AC1C78347090061
:104E34000547F91793F7F70FE365F7FC9165938539
:104E44007571314597F0FE1FE780809B23A0A1B8C0
:104E54004D444DD923004501A30005002946CA85C8
:104E6400090597F0FE1FE78060B0138481D60347DD
:104E740024008D476317F704EFD0BFF52C00EF80B3
:104E840020562800EFE04FC9854745452302F4002A
:104E9400EFE0AFEE1375F50FA302A40001443DD17A
:104EA40003C5C1C25D66130606709145EFC00FD3FA
:104EB40091BFEFE05FAC2A84EF60E00EE378A4F6E4
:104EC400B5BFEFF09FC62A8415DDEFF09FB81DBF74
:104ED400411126C283A701B806C622C44AC0A1C391
:104EE40083C707000D44639DA70203C5C1C289455A
:104EF400EFC0AFD103C5C1C29145239A01BAEFC037
:104F0400CFD0A38601D683A701B80145A38087002B
:104F14002244B2409244024941016F9040354944D1
:104F24002285B240224492440249410182804111C7
:104F340006C622C426C285476315F506138441BB01
:104F440083570400A1C703C7C1D629E31307B003DD
:104F54006369F70203C5C1C28945EFC00FCB03568D
:104F640004009307006403C5C1C23306F6028945F1
:104F7400EFC00FB423100400B24022449244410114
:104F84008280938747FC2310F400FDB783A701B800
:104F9400E5D72244B240924403C5070041016FF0B3
:104FA4003FF383A701B8E9DB9387C1C283C7370006
:104FB400918BF9D303C5C1C28945EFC00FC5224403
:104FC400B2409244239A01BA41016FF09FA883C76B
:104FD400F1C2958BD9CFB9CD83A7C1BBD9CBFD473E
:104FE40063EBC70811C2C1CA411122C44AC006C634
:104FF40026C2238EA1AE36893284A1C19384C1BB5B
:1050040088407D4681450505EFB09FEA8840CA8502
:105014002286050597F0FE1FE78040958C40228587
:10502400238085002244B24092440249850541010F
:105034006F90602383A741BC55B7938441BC8840DB
:105044007D4681450505EFB0BFE68840CA852286C6
:10505400050597F0FE1FE78060918C402285238030
:1050640085002244B24092440249850541016F9073
:10507400C01F4945828009458280797106D622D4B1
:1050840026D24AD04ECE52CC8D4763FCA7000944A9
:105094002285B250225492540259F249624A45611F
:1050A400828003C781D64144E314F7FE938781D6F7
:1050B40083C927009307F5FF93F7F70F85462E84DE
:1050C4002A89938481D663E4F60695E199452800FC
:1050D400EFD0BFA203C5C1C2914523812401EFC013
:1050E400CFB2A382040029CC2381340155B71946D9
:1050F40081452800EFB0DFDB19462C002285EFB094
:105104005FE151F519469305F00F2800EFB05FDA1F
:1051140019462C002285EFB0DFDF35F9A285194648
:10512400280097F0FE1FE7806084014465B70144BE
:10513400E312E5FAC8442C00EF80802A2A8459BF80
:10514400631409000144A9B72800EFE0EF9C2A8406
:1051540041FD8D47E318F9FE4545EFE00FC2137595
:10516400F50FA382A40079DD03C5C1C25D661306F1
:1051740006709145EFC08FA621BF83C7F1C2918B02
:1051840089CF4111138581BB06C6EFD0BF96B240CB
:105194007D572397E1D64101828001456FD09F95C9
:1051A400411122C403A5C1BB06C626C24AC013844A
:1051B400C1BB19C597E0FE1FE780E06F2320040000
:1051C40003A541BC938441BC19C597E0FE1FE78049
:1051D400806E23A004001389C1C283473900958BD4
:1051E400ADCB138541D9EFD09F9083473900958B80
:1051F40081EB4D45B24022449244024941018280F0
:105204001169930569711305000297E0FE1FE78099
:10521400205F08C079DD130600028145EFB05FC945
:10522400930559711305000297E0FE1FE780405D66
:1052340088C001C9130600028145EFB07FC701454C
:1052440055BF084097E0FE1FE780E0662320040076
:105254004DB70145EFD0BF89DDB703C7050093768D
:1052640025009377D70F99C29367270013188501F8
:105274001358884113F7F7076354080013E7070826
:10528400937685009377770F99C293678700137796
:10529400050293F6F70D19C393E607022380D500A0
:1052A400634508009377A50281CB8347060093E703
:1052B400C7002300F60082807DFD83470600CD9B56
:1052C400CDBF2D456317071403C805000947631EA6
:1052D400E812C84103471500034505002207498F1A
:1052E40042070D654187930825A06309170B011137
:1052F40022CC26CA4AC84EC606CEBE89B68432849B
:105304002E8963CEE800930705A0630DF702130509
:1053140015A0630EA704239004000545A5A09307D8
:1053240045A06307F7086346F706130565AAE31467
:10533400A7FE85472390F600DC4583C707002300BA
:10534400F60081A0C845EFB0DFB7420541814E8623
:10535400637335012A862390C40042064182832563
:10536400C900228597E0FE1FE780406019A8DC454C
:1053740083D70700239006012300F600A183A3002E
:10538400F6000145F2406244D2444249B249056103
:10539400828099472390F6001946D1B78547239018
:1053A400F600DC45014583C707002300F600828030
:1053B400DC45A9CB21472390E60003D7070023004F
:1053C400E60003D707002183A300E60003D72700E4
:1053D4002301E60003D727002183A301E60003D7B6
:1053E40047002302E60003D747002183A302E60017
:1053F40003D767002303E60083D76700A183A303D1
:10540400F60041B723900600ADBF23900600054582
:105414008280828083C8050089476391F814DC4147
:10542400797122D406D626D24AD04ECE52CC03C8A5
:10543400170083C707002E8422083368F800420847
:105444008D6713580841138327A0630A680E2A8ABC
:105454003A89B684B285634C0301138707A0630AB3
:10546400E802938717A06303F808854711A81387F8
:1054740037A06303E80A138767AA8D47E317E8FE9A
:10548400B250225492540259F249624A3E8545610F
:105494008280484432C6EFB0DFA2420541819D4775
:1054A400E36025FFB3099900D547B24563D43701BA
:1054B400B547F9B748442686C2094A9597E0FE1FC6
:1054C400E780C04A484493D9090159463306364116
:1054D40081454E95EFB0DF9D83A7C1BC99E3814719
:1054E40045B79C438145E5DF52852DA0AD47E319BF
:1054F40009F8E39F16FB83471600834606005844C9
:10550400A207D58F2310F70083A7C1BCE9DB9C4316
:105514008545F1D78297E1B7AD47E31309F699477B
:10552400E398F6F84844194697E0FE1FE7800044E4
:1055340083A7C1BCCDD79C43DDD38D4575B7AD479B
:1055440021F38547E396F6F6034706009307000820
:10555400E3E8E6F2DC452380E70051B785473E8562
:10556400828023A601BC89472380F1B0138F01B048
:105574008147938E01DA5947B386FE0023800600E3
:105584008507E39BE7FEB707A000938541B09387A7
:1055940007059CC1B707E803DCC1238501BC37D6E6
:1055A40002009387419D1306C649D0C337D6020033
:1055B4000947138ED1AF130606472300EE00D0C768
:1055C40023AEE70123AEC70337D6020037DF02005C
:1055D40037DE0200854613060648938811B013830C
:1055E40081BC1388F1AF1385E1AF130F8F48130EFD
:1055F4008E472380E8002380E7002388E700238088
:10560400E7022388E7022380E7042300E8002384D9
:10561400D70023950700D0CB238CD700239D070008
:1056240023A2E7032384D7022395070223A6D703E3
:10563400D0DB238CD702239D070223A2C705238432
:10564400D70423950704231003002300D50023A6C1
:1056540067042388E70423AE17052380E70623881D
:10566400E7062380E708B7D8020037D702001307FC
:10567400C7479388884923A2E708F0CB238CD70433
:10568400239D070423A217072384D706239507061F
:10569400ECD7F0DB238CD706239D070623AE070740
:1056A4002384D7082395070823A6A70837570100A2
:1056B400938741A61307672C98C337570100130734
:1056C4008741D8C323A407008280A54763E1A70CC0
:1056D400B7D702009387070D0A053E951C41411177
:1056E40022C426C206C64AC0B2842E848287D54705
:1056F400614563E1B70259468145138501DAEFB08C
:105704002FFB2286A685138501DA97E0FE1FE7802A
:10571400E0250145B240224492440249410182807D
:1057240089476145E398F5FE035706002394E1BCDD
:10573400CDB7A1476145E39FF5FC2146A6851385B6
:1057440041B0EF70510CF1B785476145E394F5FC26
:105754009385419DD04D9385850203C50400EFF0E8
:10576400DFAF45BF85476145E396F5FA9385419DD3
:10577400D05D93858504D5B785476145E39CF5F8ED
:1057840003470600238FE1AE69B7094561B70945B0
:1057940082800547630AE5024111AA8706C62E8561
:1057A40099CB11476388E7022547638BE7020945D4
:1057B400B240410182805546938501DA97E0FE1F8D
:1057C400E780C01A0145EDB783D781BC014523901A
:1057D400F50082802146938541B0EF70D102DDB798
:1057E40083C7E1AF2380F500F1BF9387A1BC03C752
:1057F400070011EF05472380E700058909C993864F
:1058040041A64146A5451385419D6F30C05C0145C5
:10581400828001111388F5FF06CE22CC26CA4AC81D
:105824004EC652C41378F80FAD4563ED050BB7D5DA
:1058340002000A089385850F2E983E8A8327080064
:10584400BA893689B28482878545EFD00FC62A8407
:1058540019E1EFF0FF942285F2406244D2444249B8
:10586400B249224A056182808945EFD00FC42A8457
:105874007DF12685EFF08F94F9BF9145EFD0EFC20B
:105884002A8471F95286CE854A85EFD0AFB9EFF0FC
:105894003F91EFF09F8EEF70706775BFA145EFD019
:1058A400CFC02A844DF95286CE854A85EFD08FB772
:1058B4002685EFF0AF90EFF04F8FEF70B04761BFE8
:1058C400B145EFD08FBE2A8459F55286CE854A85DC
:1058D400EFD04FB52685EFF06F8EEFF00F8DEF70A0
:1058E400704575B7094485BF79714ECEAE896C0099
:1058F40022D426D24AD006D62A89B284EF00707503
:105904002A840DE1CE854A85EFC05F962A8419E981
:105914003245B72601002687938626262D468145E3
:10592400EF10000E2285B250225492540259F249CB
:105934004561828079714ECEAE896C0022D426D224
:105944004AD006D62A89B284EF00B0702A840DE1C9
:10595400CE854A85EFC0BF9F2A8419E93245B72610
:1059640001002687938686344D468145EF10400911
:105974002285B250225492540259F24945618280E0
:10598400397126DAAE844C0022DC4AD84ED652D481
:1059940006DEAA893289368AEF00B06B2A8431ED9B
:1059A400A6856303090283D704002C002314F100A5
:1059B40083D724002315F100930720302316F10028
:1059C400930780022307F1004E85EFC01F872A84C6
:1059D4000DE55946A6851305A1002304210197E08E
:1059E400FE1FE780A0F81245B72601005287938670
:1059F400C62025462C00EF10A0002285F2506254E8
:105A0400D2544259B259225A21618280797126D2E4
:105A1400AE846C0022D44AD04ECE06D6AA893289EE
:105A2400EF0030632A840DE1A6854E85EFC0FF8523
:105A34002A8419E93245B72601004A879386062845
:105A44003546A685EF00D07B2285B250225492546D
:105A54000259F24945618280BD47638CF50663E9CA
:105A6400B702A5476387F50663EDB7009947638CD2
:105A7400F5049D47638FF5049547638CF504014550
:105A84008280B5476387F50463E1B704AD47F5B792
:105A9400DD47638EF50263EAB700C947638BF502FD
:105AA400D9476386F502C547C9BFF5476383F50245
:105AB40063E4B700ED47D1B793072005638BF50086
:105AC4009307200D5DBF48458280084182800845C8
