:020000021000EC
:100000006FD0C1410000000000180118002801282D
:100010000228032800290129022903290429052986
:10002000062907290829002A012A022A032A042A64
:10003000052AA62A94DA0200CA0E01006E0F0100FA
:10004000AE0F01001E0F01000C0F01006E390020E1
:10005000D20F0100CE120100F6120100501401006F
:10006000DC140100DA0D01000A0D0100740D01001D
:10007000360D0100EC180100AA390020CC0F010058
:1000800038160100569C0200109E0200829E02005B
:10009000B05F0200C05F0200CEFC01009AF10100D7
:1000A000EEA602006616010012650200A6AF01006E
:1000B0002CB0010084B00100741E0100C01E0100BC
:1000C000361D0100E46F0100E66A01009678010028
:1000D000627C01000A8001005C5D0100FA5C0100A5
:1000E000E0600100A85D0100D05C0100545D0100EA
:1000F000825C0100245E01007C5E01002C5E010038
:10010000305E0100CC5E0100845E0100B65E01003D
:10011000D8630100E0630100205E0100285E010059
:10012000C85E0100DC6301007C5F01001465010012
:10013000028E01007C8E0100AA8E0100A0710100D8
:10014000B2710100D47101003E5701000658010050
:100150005E580100763A0100EC350100EE500100D6
:100160005E36010042500100AEBB020032B902000F
:1001700010C302006ECF0200A2CE0200E0D1020046
:10018000DCD1020076AC020074D20200E8A90200C1
:1001900004D2020016C8020030C8020054C802008F
:1001A000E4D20200DACC020070CC020054D3020088
:1001B000F6AB02007EAC0200A2AC020044AC02002E
:1001C0005C7B0200026A020050700200E26A0200D8
:1001D000607502008EA702008CA6020018AA020019
:1001E000641A010050610200F6640200C865020052
:1001F000E2910200109202008A92020066750100EC
:100200001A7B0200E07502004E6D020010780200B9
:10021000BA690200501501000E620200AE7D0200B4
:10022000148002005C800200C27E020022140100E1
:10023000CE7201000000000000000000000000007D
:100240006373B60082801C419105110523AEF5FE53
:10025000C5BF938781B21387C1FB6373F7008280A8
:0802600023A007009107D5BFA0
:1002680049C5AA870145C1C58D07C207C183F19B4E
:10027800C207C183130740036366F70203A501B3EE
:1002880083A681B26393A60203A781D1014525C342
:100298004111C20706C60545DD8D0297B2400145EA
:1002A8004101828003A5C1B2E1BF0357650005EF94
:1002B800035745006369F702B306F74021466370A8
:1002C800D6021041938687001D8FAA96611790C2A7
:1002D8002392E6002393060014C12312F50023138A
:1002E800B50021058280084171BF01458280828066
:1002F80009C903A801B383A581B20147C28763E393
:10030800B70082809443636DF50663EBA6061386F7
:100318008700E368C5FE03D56700216605066317F5
:10032800C50003C681BF0506238CC1BE2393070001
:100338006383070303A6C1B2630FF6000356670081
:1003480019EA83D7470014C383564700B697A10715
:100358002312F700BA879843E305B7FA83A6C1B218
:10036800E301D7FA83566700C9FE83D647000356D0
:1003780047001843A106B2962392D70098C38280FB
:100388003E87B687ADBF19CDB71700401307700574
:100398002380E704130780FA2380E7042396A70243
:1003A80023800704828019C1814799E982803387B5
:1003B800F500834607003307F50085072300D700BB
:1003C800E397C7FEE5B719C1FD5781E9828091051A
:1003D80003A7C5FF1105232EE5FE7D16E319F6FEDA
:1003E800F5B7797126D283A741B406D622D44AD06C
:1003F8004ECE938441B481C7829723A00400DC4089
:1004080089CB03D5C1B34137DC40829703D5E1B32B
:100418009D3F9C4063900716938741F003C75700A0
:10042800058B63070712A382070083C77700094774
:10043800639CE70C972002E0E780007F971002E0BA
:10044800E7800087938641D203A781B303C61600CD
:10045800938981B3138441D283470400939617008C
:10046800BA9683D60600638F060E8347040063F2AC
:10047800C70686073E97835507002310070003D554
:10048800C1B32EC609370345040083A741B5131726
:100498002500B245BA979C4382972A8903D5E1B3D0
:1004A800DD35834704001397170083A70900BA971F
:1004B80003D707003369E900239027018347040025
:1004C80003471400850793F7F70F2300F40063E44C
:1004D800E700230004009C40D1EF83A7C1B4D9CB27
:1004E80082972A8441C903D5C1B3713D228597D02B
:1004F80000E0E78000542254B25092540259F24965
:1005080003D5E1B3456141B50D47639BE7009720EB
:1005180002E0E780607197D001E0E78020201DB7F6
:100528001547639BE700972002E0E780E06F97306C
:1005380002E0E780A07039B71D47E395E7F0972000
:1005480002E0E780606E97B001E0E7802097DDBDAC
:1005580083C741F5918BE38707EE973002E0E78088
:1005680020CCCDB5850793F7F70F2300F400E3E51A
:10057800C7EEE5BDB250225492540259F249456182
:1005880082809167B7C600409387373023A6F6204C
:100598000F100000938741D2884F83A781C4316729
:1005A80013073730F053B7071000FD17918F998361
:1005B8003A0523A6E6205D8D82804111B7170040D9
:1005C800985F3AC6945F3247E39CE6FE32454101A4
:1005D800828083A701C3411122C406C62A84E1E3AD
:1005E8004165130525F597D001E0E78020B145C99D
:1005F8008347E5002317F5008327840FC1EB232CDD
:10060800A40E232EA40E8547231AF40223200500E6
:100618008347B40054412316F5000347A40023047C
:10062800E50003A7C1F11385170215811C437D1549
:100638001375F50F9CC25C439386060213070702E5
:1006480023A2F6FE832787FE23A4F6FE8327C7FE90
:1006580023A6F6FE832707FF23A8F6FE832747FF76
:1006680023AAF6FE832787FF23ACF6FE8327C7FF5E
:1006780023AEF6FE45FD9387C1E503D7870005073E
:100688002394E700B2402244410182808327C40FAB
:1006980088C383574403232EA40E8507B5B7834721
:1006A800840023080400054593C747002304F40089
:1006B800D1BF8347E50193F7E70F89CB01458280D6
:1006C8000145B24022449244410182808347F501AA
:1006D800F5F7834605010347850099C60346650279
:1006E80083C7D1CF6367F60093770701E1DB8147C2
:1006F80089CA834705158346F514418BA207D58F10
:1007080001CB03474515834635152207558FBA9700
:10071800D5D703C7C1CF411106C61316870122C416
:1007280026C26186635606049387C71313D45700FD
:1007380083A641EAFD54B705C0A803A7060883D7D6
:10074800460763590604B307F74063F39700BE846E
:100758009442E5F683A781B58297E3E3A4F633854F
:10076800A44013040402333485001345140091BFD8
:10077800058B9387C71209CB8A071384F70393075E
:10078800D0073354F4026DB786071384F701930733
:10079800D003C5BFE379F7FA2E9775B7411126C480
:1007A80003A781C34AC222C61C5F938481C399836D
:1007B800858BA5C31C5F93F7F7F91CDF83C741F04E
:1007C800138441F093F7070489C783A781B58297FB
:1007D80008C88547A302F4008347440093F7070439
:1007E80089EB83A781C45844B8D3930700FC23023C
:1007F800F4008307640063DE0700930700FC23030B
:10080800F40083A741C39C439983858B99E3230311
:10081800040098401C5F8583858BC1CBF5571CDF8E
:1008280001000100010001000100010001000100B8
:1008380001000100010001000100010001000100A8
:100848000100010001000100010001000100010098
:100858000100010001000100010001000100010088
:100868000100010001000100010001000100010078
:100878000100010001000100010001000100010068
:100888000100010001000100010001000100010058
:100898000100010001000100010001000100010048
:1008A80083A781C413075004B8CB98401C5F918379
:1008B800858B81CFBD571CDF83A781C4054723A83B
:1008C8000704938741F02382E70083A741C3D843F5
:1008D8000583058B19C7D843759BD8C3D843799B23
:1008E800D8C33244A244124941017300203093878F
:1008F80041F003C74700058B09EB03C72700058BA9
:1009080009E703C73700058B6DD7828083A741C4E9
:1009180099CB944BD04B9842518F98C294439C47A3
:100928009842D98F9CC283A781C4B7C60040A8CB80
:100938009305C00313062003138741F083A786207D
:10094800C18393F7F70363E9F50083A78620C18382
:1009580093F7F7036366F60083474700858BF9DF53
:100968008280938741F003C74700058B09EB03C7D3
:100978000700058B09E703C71700058B6DD7828031
:1009880083A741C499CB944BD04B9842518F98C2BE
:1009980094439C479842D98F9CC283A781C4B7C609
:1009A8000040A8CBC1456546138741F083A7862040
:1009B800C18393F7F70363FDF50083A78620C183FE
:1009C80093F7F7036366F60083474700858BF9DFE3
:1009D800828003A781C3AA87185F1583058B2DEF33
:1009E8000345150015051377C51F19C6B386E7001B
:1009F80083C626002300D6008DC503C6A1F0930642
:100A0800000C0945631BD604B386E70083C636008D
:100A1800054693F5F6066392C504E206E18663CEC1
:100A280006023385E7008347150003470500A20740
:100A380093F70770D98F93960701C18213F6064082
:100A4800138701C419C693E606802310D700014511
:100A580082802310F700E5BF0545828083A581C405
:100A6800138881C49445938741F013970601418305
:100A780093F816203A86638F080293F60620D5CAA3
:100A880083C62700B708001093E616002381D70015
:100A980093060019B4D1930600F82382D70083A5E2
:100AA80081C3D455F19A93E62600D4D59441B3E690
:100AB800160194C19376261085C21376061049C68E
:100AC80083C641F093E616002382D1F02382070003
:100AD800A38207002394070003C647001347F7FFC4
:100AE800420762066186418383260800635F060029
:100AF8001316170163510606AC5209466367B60020
:100B080005462382C700BC52FDFF8387C1CF63DD42
:100B1800070093170701C18763D30704F052894779
:100B280063E4C700FC52FDFF9C467D8F98C67300A6
:100B3800203083C617002394070093E61600A3808D
:100B4800D70023820700BDB783C6370093E6160097
:100B5800A381D700A5BF05462382C7007DB7DC4621
:100B680013960701635C0600B7071000FD17FCD257
:100B7800938741D2904F050690CF7DB7A1675D8FCF
:100B880065B7938701F4138601F20346B60183C75C
:100B98005701938601F4138701F2B29793F7F70F81
:100BA8007D466361F604A300F70083471700484BAE
:100BB80005463316F600A38AF600698E05EE03C6CD
:100BC800960113080002814633F6C7028147B355E0
:100BD800F500858993F8F70F99C96317D600A30024
:100BE800170182808117C1B7850693F6F60F85072E
:100BF800E39F07FD828003A701C5B75702009387CB
:100C0800079F832607091396560063580600832614
:100C180007091396660063440600FD17FDF38280FA
:100C280083A581CE938781CE1386052223A8C1B2DE
:100C380003D74700938785FFBA97056523A4F1B2C8
:100C48001D05930600206364E500935637003307BB
:100C5800D60023A6E1B223A0E522E1162312D6008E
:100C6800231306001CC3998FE1172312F7002313DF
:100C78000700828083A701B303A781B201456313EC
:100C8800F700828083D6670081E683D647003695D1
:100C98009C43F5B783A701B383A681B2014563934B
:100CA800F600828003D7670011E703D74700637314
:100CB800E5003A859C43E5B783A701B303A681B253
:100CC8002A87B305B5406314F6003A8529A89386A8
:100CD80087009C43E369D7FEE377F7FE2E85E3E4BC
:100CE800D5FEE3F2F5FE828023AC05FE1C4181E7C8
:100CF8000CC18280BA8703A787FF6DFF23ACB7FEBC
:100D080082801DC18346E5FF1307F00F9147639E5C
:100D1800E600411106C69730FF1FE780A0B9B24030
:100D280081473E854101828095473E85828001E961
:100D3800014582800145B24022444101828041112F
:100D480022C42A84210542059305D004418106C6A0
:100D58009730FF1FE78000AD71DDFD5723200500A8
:100D6800231285002303F5002105F1B7411126C29E
:100D780022C44AC083A741B306C6014401499384EB
:100D880041B389E7A165C92505C401A803C7E7FFE1
:100D98006317A70215C8A1650D2C9840832784FF07
:100DA8006316E4029CC0FD57232C04FE230FF4FEB7
:100DB8002285B2402244924402494101828011E0D6
:100DC8003E8983A787FF75BF3E84E5BF232CF9FEC4
:100DD800D9BFB9C583C751D2411122C406C62A84D6
:100DE8002E856368F400313F0D45B240224441012D
:100DF800828083A785FF99E703C7E5FF9307F00F74
:100E08006305F700FD3D1545CDB7238F85FE138596
:100E180041B3D93D22852244B240A165410175A262
:100E28001545828023AA01B2828083A701B599E380
:100E38003E85828003D727006316B70003C70700E3
:100E4800E308A7FEDC47E5B74111939705014AC0BF
:100E580006C622C426C2C1872E8963DE0700393739
:100E680011C1453521653345A900B2402244924459
:100E7800024941018280AA860145E5D901443D47DE
:100E8800B3578940858B8DCB83A401B4BD4791E2CC
:100E98008147A2978E070545BE9433158500131424
:100EA80005019C40C8404180829723A0040023A2EA
:100EB80004003345240155BF0504E313E4FC014451
:100EC800CDBF83A781D0411122C406C6138481AE49
:100ED80085C7829708C00840B74703009387D73F64
:100EE8003305F502B7A72600938737ECB2403E9545
:100EF80008C0224441018280184083A741D3BA9791
:100F08001CC0D1BF2A9609E582800505A30FB5FE4E
:100F1800E31DC5FED5BF81473307F500030707006A
:100F280019E33E8582808507C5BF01112E8626CA32
:100F3800AA84131506019305F004418122CC06CE3C
:100F480032C69730FF1FE780E08D2A8419C53246E4
:100F5800A6859730FF1FE78040A12285F2406244B2
:100F6800D2440561828081476314F600054582807A
:100F78003307F5008507B386F5000347070083C6E6
:100F8800F6FFE383E6FE014582809307F6FFBE95F0
:100F98002A966313C5008280FD1583C715000505D1
:100FA800A30FF5FEFDB7814711E90145828033079C
:100FB800F50003470700E31AB7FE8507E319F6FEB5
:100FC8000545828003A541D3828083C751D2637EC1
:100FD800F5009317150003A581B33E9583570500C7
:100FE800DD8D2310B500014582800D458280397161
:100FF80026DA52D4938741F006DE22DC4AD84ED650
:1010080056D25AD05ECE83C7B7002A8A938441F05D
:10101800BDC383C77400A5E303C4A400A38504006B
:101028008947631AF4081387C1E5185F1384C1E57B
:1010380083467700A9C203465700B755550037C500
:10104800898E93855555130565EDEF50C12503C766
:1010580074009307D7FF93F7D70F91E78547238548
:10106800E400A385F4008947A383F4001C5C1307FC
:1010780010FA2383E700938741D2984B938941D292
:10108800529798CB7D57D8C703A401B5138B01B5E8
:10109800138981CE814A49E883274902639A070E5A
:1010A800F2506254D2544259B259225A925A025BAF
:1010B800F24B216182808D47631CF4021389C1E5DC
:1010C8008327090403C777005DD703C65700B755C0
:1010D800550037C5898E93855555130565EDEF5035
:1010E800811C83270904A3838400130710FB51B7CD
:1010F8009547E312F4F803C701F2938701F4058BCF
:1011080003C6370083C6270009CFC84319C98345DA
:1011180015000905EF50517339DD8547A385F400A3
:1011280099BF81450145FDB7184481476374EA00BA
:10113800B3074741032749021CC419C703A7C900BD
:1011480063F4E70023A6F90085EB8355240099EDA5
:101158005C44639C0A022320FB00832BC400228585
:101168009720FF1FE78000755E8435B703450400AC
:10117800A93D5C4081CB1CC483572400F1DBA28AC3
:10118800404411BF1C44E9D7C5BF23A6FA00F1B7F4
:1011980083C6190003A681B3814713F7F70F63606D
:1011A800D70883C774000D47F91793F7F70FE3794A
:1011B800F7EE83C741F5918BE39407EE6800EFE003
:1011C800D01E7D576303E50C03443901B247E37928
:1011D800F4EC83A9C900834749016381E906858B3B
:1011E800B9C7D147B389F902E37C34EB9730FF1FC5
:1011F800E780E098B24763F3F900CE8703443901EA
:10120800818F3384A7008307490163CF0702B7079B
:10121800C0A8636BF402B70740573E9435A0850712
:101228001397170032970357E7FF25DB95BD930700
:101238009002B389F90293D919007DB7E207E187D3
:1012480063DD07023304854003D5E1B39720FF1F10
:10125800E780A06F19E03704C0A8832749022285D8
:101268008297E31F05E29C4CE38C07E2EF40B16EE6
:10127800EF50E146EF40D16125B5E37585FCB7072E
:10128800C0A8338487402A94C1B783A7C900E389DB
:10129800A7E003474901058B0DC3514433848702F6
:1012A80083473901E3FE87DE9730FF1FE780208DF3
:1012B800834739011D8C2A94B9B7130490023384EB
:1012C80087020580F1BF83C751D26370F502931777
:1012D800150003A581B393C5F5FF3E958357050017
:1012E800FD8D2310B500014582800D45828083C79E
:1012F80051D26364F50001458280411122C426C29F
:101308004AC006C62A842E89B284053601C504C59A
:10131800054515A0936504F0C205C1814145972094
:10132800FF1FE780205011ED83A781D181C7A285D7
:10133800114582970145B240224492440249410135
:101348008280138701B51C4385E308C3854723269C
:10135800050004C52311250123008500A300F5001D
:101368002322050075B7BA87D84775FFC8C7F9BFE4
:101378005DC1397122DC26DA4AD84ED652D45AD009
:101388005ECE66CA6AC806DE56D262CC6EC636899A
:10139800328AAE89AA840144394D854BF94C03A79A
:1013A80001B4131C3400937AF40F62971C43938D95
:1013B80001B4A9EF13B5FA0013451500B3978B00D4
:1013C80063765D01930714FFB397FB0093950701BC
:1013D800C1815286293F1DC983A70D000145E297A7
:1013E80084C323A237016304090023005901F25082
:1013F8006254D2544259B259225A925A025BF24B61
:10140800624CD24C424DB24D216182800504E318F2
:1014180094F92145E9BF09458280411122C426C2B9
:101428004AC006C6AA842E893284D135CA85268543
:10143800ED3A09C940C10145B240224492440249EB
:10144800410182802145CDBF411122C426C24AC034
:1014580006C6AA842E89D13A2A8419C12311050007
:10146800CA8526858D35014511E01945B2402244CB
:1014780092440249410182807547636BA70483A6A1
:1014880001B4411126C293143500A696944222C491
:1014980006C6AA87138401B4094595C613B5F70093
:1014A8003947134515006373F700C5178545B3958C
:1014B800F500C205C181493F1C400145A69723A0FC
:1014C800070023A20700B2402244924441018280CF
:1014D80009458280411106C6893A09C50845B240C6
:1014E800410182800145E5BFF54763ECA70483A766
:1014F80001B413173500BA979843894721C70111DA
:1015080026CA06CE9334F50022CCB94793C41400FA
:1015180063F3A700451505443314A4004204418031
:101528002EC62685A2857D378947324609C5A285FC
:101538002685753B8147F2406244D2443E85056169
:10154800828089473E858280239EA1B2239FB1B2C3
:101558008280411106C623A6A1B40295B24023ACED
:10156800A1D2014541018280854763E8B70093977E
:101578002500938541B4BE9588C18280411106C675
:1015880022C426C2EFF0CFE921468145138541B434
:10159800953A138441D2130600028145138541D23E
:1015A800953223A801B423A601B483C741D093057B
:1015B800101013D527008D8B3E958D473305F50206
:1015C8009947938441B535051375F50F2301A40098
:1015D8003305F5021305050F9720FF1FE7808024C8
:1015E80023A0A1B4834724001305050F88C08A07E8
:1015F8003E9523ACA1B2EFF0FF82912683471400F9
:101608009840B7160100139627003A96938606E588
:1016180014C213862700850793F7F70FA300C400A9
:10162800B24022448A07BA9794C392444101828007
:10163800138741D2834717008346270063FED700EC
:1016480083A641B513861700A300C7001397270088
:10165800369708C33E8582809307F00FE5BF1C418B
:10166800638E070E41777D8FB70600208947631880
:10167800D70E0357450065C7411126C21946AA84EB
:101688009305F00F590506C622C44AC0EFF0BF9172
:1016980005478D47630DE50A1306C0038145138589
:1016A80081CEEFF03F861306C003A685138581CE51
:1016B8009720FF1FE780602B138981CE0357C9004D
:1016C800938781CE09E7130700202396E70003C715
:1016D800E70001E705472387E70003C7F70001E7AD
:1016E8006D47A387E70003C7070101E7154723886C
:1016F800E70003C7170101E70547A388E70003C709
:10170800570109E703C70701A38AE70003C72701B1
:1017180001E751472389E70003C7E70109E71307F2
:101728008002238FE70003C7370109E71307D002B8
:10173800A389E70003C7D40101E70947A38EE7009F
:101748009C5781C782972395A1D20D3D8147B2400E
:101758002244924402493E854101828089473E8560
:101768008280411106C69720FF1FE780404103C6CB
:10177800C1CF058A15CA930730333307F502B3374B
:10178800F5023983CA07938541D2D98FD849938600
:1017980041D201456307F7006370F7023385E740DC
:1017A800DCC9B24041018280E5473307F502B3370F
:1017B800F5022583DE07C1BF37653D0809C63785B1
:1017C8006F0813050590198D3E95DCCAD9BF011124
:1017D80022CC06CE2A842EC6EFF0AFEEB245F240F8
:1017E800818D33A5A502229562441375F50F056115
:1017F8008280011122CC06CE2A842EC6EFF06FEC2F
:10180800B245F240818D33A5A50222956244420576
:10181800418105618280011122CC06CE2A842EC620
:10182800EFF02FEAB245F240818D33B5A50222953B
:10183800624405618280138781CE1857011122CC3A
:1018480006CE26CA4AC84EC6138441F031CF138942
:1018580081CE0297138741D203576700AA849389E0
:1018680041D22DCFBA876373A700AA87C207C18365
:10187800BA8663F3E400A686C206C182958F5147F3
:10188800635EF7048327C90291C3829785472304BF
:10189800F400EF40F15223939900F2406244D2449D
:1018A8004249B24905618280834784008DE78347B6
:1018B8009400850793F7F70FA304F400A18BF1DFD9
:1018C80085472314F4006244F240D2444249B249A5
:1018D80005616F407154A3040400F5B78347840081
:1018E800CDDFD5B7138781CE5857011122CC06CE4C
:1018F800138481CE01C72AC602973245938781B5E2
:1019080001CD88C3371501001305A5769931F2403A
:10191800624401450561828003074401635C070056
:10192800138741D2232C0700374700201307A7B499
:1019380098C3C9BF37470020130727B8D5BF01117F
:1019480022CC138481CE084406CE26CA19E5054563
:10195800F2406244D244056182805C58EDDB185C39
:101968007DD77000854582971844B247E301F7FE9A
:101978000345E4008357C4009305E0043305F502EA
:10198800938441D2420541819720FF1FE78080E977
:10199800C8CC55DD8357C4000346E4009305F00F17
:1019A8003306F602EFF00FD6D04C08448357C40034
:1019B80008C28345E400B385F5021C5C89818297DF
:1019C800C84C9720FF1FE780E0EE014523AE0400D6
:1019D80041B7411122C4938781CE9C4726C206C6CF
:1019E800938441D2B1CF138481CE1C5CB1CBDC4C43
:1019F80085E30345E4008357C4009305E0043305F9
:101A0800F502420541819720FF1FE780A0E1C8CC7D
:101A1800C84C1DC58357C4000346E4009305F00F66
:101A28003306F602EFF00FCED04C08448357C400BB
:101A380008C28345E400B385F5021C5C898182975E
:101A4800C84C19C59720FF1FE780C0E623AE0400E5
:101A5800B2402244924401454101828001114AC8A2
:101A6800938741D222CCC04F4EC652C456C206CE2E
:101A780026CAAA8AAE89328A138941D239E0938468
:101A880081CE9C4499E3A944BDA803C5E40083D74B
:101A9800C4009305E0043305F5024205418197200F
:101AA800FF1FE78020D82A8441C1DC58B5CF83C501
:101AB800E40003D7C4002A868844B385E5028981F7
:101AC800829791451307A005898193972500A297CE
:101AD80083C607006396E60483C61700639F560310
:101AE80085058A054E86A29552859720FF1FE780B7
:101AF800C0E78327C901814463878700228597202F
:101B0800FF1FE78020DBF240624426854249D24429
:101B1800B249224A924A0561828083D527006DB76F
:101B28008327C901E38187F622859720FF1FE78075
:101B380060D891BF938781CE9447A9C2985F1DCF83
:101B48000546631DC502411122C4138441D2504C7D
:101B580006C60DC283C5E70083D7C7003685B3859F
:101B6800F50289810297484C9720FF1FE78080D4AF
:101B7800232E0400B2402244410182808280011158
:101B88004EC6938741D2DC4F22CC4AC852C406CEF7
:101B980026CA2A8A2E893284938941D2B1EB93844A
:101BA80081CE03C5E40083D7C4009305E004330560
:101BB800F502420541819720FF1FE780A0C623AEAA
:101BC800A9002A8611E92945F2406244D2444249D3
:101BD800B249224A05618280884419C9DC5889CBF8
:101BE80083C5E40003D7C400B385E50289818297E1
:101BF80003A5C90191461308A005FD5593D72600F2
:101C0800C207C183139727002A9703460700631B5F
:101C18000603834817000356270063934803B30657
:101C2800D64063CD260185078A073E954A86A28558
:101C38009720FF1FE78060D3014579B7A300B7005D
:101C4800B2866DBF138681CE8345E6000356C60073
:101C5800B385C502338626011106E3E6C5F61306E9
:101C68003900719A1106B29623000701A3004701B3
:101C78002311D7004DBF83A601D48DCE91471306FB
:101C8800A0059305F00F89838A07B69703D7270025
:101C980003C5070009830A073697631DC500034576
:101CA80017006316B500035727002391E70083D771
:101CB8002700D1BF0145828083C705002300F500B6
:101CC80083D72500A300F50083D72500A18323012E
:101CD800F50083C74500A301F5001145828023A0C4
:101CE80001B623AE01B4828029C1411126C206C6BD
:101CF80022C4AA8401458DC52E84B7E50200228539
:101D080041469385C58D9720FF1FE78000C683C78E
:101D1800040005452306F40083C71400A306F40055
:101D2800B2402244924441018280014582800111DF
:101D380022CC26CA06CE0947AA8432846381E504E8
:101D480041468147639BC500638FE6006397B600F1
:101D58000DA841478147638EE600F2406244D244B1
:101D68003E85056182808A852285BD3F41468A85F8
:101D780019A88A85953F41468A85228531A0E39A2C
:101D8800B6FC2E86A2852685EFF0EF9DAA87F1B7CF
:101D980023AEA1B4828023A0A1B68280011122CCF7
:101DA8000354650006CE26CA4AC84EC641C08329D8
:101DB8008500AE842A8803C9090081471317890161
:101DC800618763550702B147054563FA87045114D3
:101DD800420403552800418033878900A2864E8635
:101DE8008545EFB0D01FB337A00085077D14135584
:101DF8006900420405891379F90341802380F400BE
:101E0800A380A4002381240123928400014719C0E0
:101E18001387190098C409476383E7000145F24016
:101E28006244D2444249B249056182800545C5BF32
:101E3800C167F917630AF502D94763F7B7020111B9
:101E480022CC2EC606CE2A84EF70901CB245636859
:101E5800B50022856244F24005616F90A01FF240F0
:101E6800624405450561828005458280C167F9178E
:101E78006314F5006F70D019411106C6EF90800DFC
:101E880011E15D45B2404101828091476394F502BA
:101E9800834705002300F600834725000347150004
:101EA800A207D98F2311F600834735000145230285
:101EB800F6008280114582804111814522C426C2E4
:101EC80006C6AA84392D2A8419E583A7C1B581C716
:101ED800F945268582972285B240224492444101E1
:101EE800828039714ED656D25AD006DE22DC26DAE6
:101EF8004AD852D4AA8A2E8BB28941EF36C6BD374A
:101F08009145EF705020AA844D492DC9B246054A23
:101F1800238034010544630A0B00B6851385140039
:101F2800029B0505131405014180E20993D98941F3
:101F380063D30902C1455685EF90C00E654905E98E
:101F480033868400A2852685EFB0E04D2A8905E115
:101F580031044204418091472C085685231CF10026
:101F680026CE231D8100EF8050252A8901C96307E9
:101F78000A0026859720FF1FE780C093F25062541D
:101F88004A85D2544259B259225A925A025B216167
:101F98008280BA84014AADBF011122CC26CA4AC840
:101FA8004EC606CE2A893284B689253FAA8419ED01
:101FB80083A701B681CF05476317E40003C409006E
:101FC80005041374F40FA2854A858297F24062448F
:101FD80026854249D244B24905618280AE86B7253A
:101FE800010001470546938505CC7DB783D70500D9
:101FF8002300F50083D70500A183A300F500094558
:10200800828083D705002300F50083D70500A183CC
:10201800A300F50083D725002301F50083D7250009
:10202800A183A301F5001145828083D70500230011
:10203800F50083D70500A183A300F50083D7250009
:102048002301F50083D72500A183A301F50083C7E9
:1020580055002302F50083C76500A302F50003D5E8
:102068008500190542054181828083D70500230038
:10207800F50083D70500A183A300F50009458280F8
:1020880083D705002300F50083D70500A183A300AB
:10209800F50083D725002301F50083D72500A18308
:1020A800A301F5001145828003D5450006054205C8
:1020B8004181828083D705002300F50083D705007E
:1020C800A183A300F50003D5250009054205418138
:1020D800828083D705002300F50083D70500A183FC
:1020E800A300F50083D725002301F50083D7250039
:1020F800A183A301F50003D54500110542054181DF
:10210800828083C705002300F5000545828083D7B8
:102118000500411122C406C62300F50083D7050037
:102128002E841105A183A30EF5FE83D725009505FE
:10213800230FF5FE83D7D5FFA183A30FF5FE03C6B2
:10214800F5FF9720FF1FE780408203454400B24017
:1021580022441105410182808947639CF500834729
:102168001500034705000145A207D98F2310F60083
:1021780082801145828003D70500D94763FEE702B4
:10218800011122CC06CE2EC62A84EF706068B246B2
:1021980083D70600636DF50022856244F240B725B7
:1021A800010001470946938545FF05611DBBF240C3
:1021B80062440945056182800945828091479DC531
:1021C80083460500FD15C2058547C1816392F60265
:1021D80013D725008D89914791E9914701CB0505D2
:1021E8002301D6002310E60048C281473E8582803D
:1021F80009479147E39CE6FEC94733D7F502B3F593
:10220800F502D1BFAE86B725010001471146938577
:10221800A500C1B993F7350091EB8981914789C52C
:102228002310B60048C281473E8582809147EDBFA2
:1022380003C745008947631AF702011122CC2A8493
:10224800C84506CEAE86014719C52EC69D45EFE0A6
:10225800BFA6B2462A8722856244F240B72501000C
:102268001946938525030561ADB90945828099E131
:10227800114582808347050005472311F600E3795D
:10228800F7FEFD1593F5F50F33D7F502B387E7028F
:10229800E390F5FE050548C22310E600014582805B
:1022A80083C745000947AE866385E70041476399C0
:1022B800E700B7250100014721469385651115B14F
:1022C800094582802310B60091E1014548C20145C5
:1022D8008280AE86B72501000147294693852507E8
:1022E80009B12310B60091E1014548C20145828039
:1022F800AE86B72501000147314693858508D5B6D6
:102308002310B60091E1014548C20145828003D7F8
:102318004500854763FDE702011122CC2A848841E4
:1023280006CE0DC12EC68545EFE01F992A87228566
:102338006244B246F240B725010039469385050B41
:10234800056145B6F2406244094505618280094548
:10235800828091479DC5034705008D46914763F2EA
:10236800E602FD15C205C181B3C6E5023308D702EE
:102378006399050105052310D6002311E60048C21C
:1023880081473E85828083C745000947AE866385BD
:10239800E70041476399E700B72501000147414637
:1023A800938565113DBE09458280B335B00013950C
:1023B80025008280011122CC26CA06CE03C78500DB
:1023C8008547AA842E8449466311F702EFF01FAAB5
:1023D8008357240049151306200963C8A700F24053
:1023E8006244D244094505618280034794008547C9
:1023F8006314F70013660604484011C58D4532C6BC
:10240800EFE09F8B3246A2866244F2402A872685F7
:10241800D244B72501009385C50B0561D9B48D4712
:1024280063FFB7028347150003470500F115A207AC
:10243800D98F2310F6008347350003472500C205CE
:10244800A207C181D98F2311F6002312B60089C5CE
:10245800110508C60145828023240600E5BF114501
:102468008280011122CC2A84884506CEAE8611C509
:102478002EC69545EFE05F84B2462A8722856244DE
:10248800F240B725010059469385A50D05616FF007
:102498005FA5B335B000139525008280AE86B725B9
:1024A8000100014761469385A5106FF09FA38547FA
:1024B800114563F4D7028347160083450600A20737
:1024C800CD8F2310F7009387E6FF2311F700894784
:1024D8006386F600090650C301458280232207005F
:1024E800E5BF01478146794681456FF09F9F83D7B5
:1024F80005002300F50083D70500A183A300F5009C
:102508000945828083C7250005472300F50003D5C8
:1025180005006397E7000A050505420541818280A9
:10252800C9473305F502CDBF03D505000A054205A5
:102538004181828083D725002300F50003D505005B
:1025480083D725003305F5020505420541818280C0
:1025580003D50500828003D50500828003D50500D8
:10256800828083D725002300F50003D5050083D793
:1025780025003305F502050542054181828083D790
:1025880005002300F50083D70500A183A300F5000B
:1025980083D725002301F50083D72500A183A30154
:1025A800F50003D54500110542054181828083D796
:1025B80005002300F50083D70500A183A300F500DB
:1025C80003D52500090542054181828089471145C7
:1025D800639BF60083471600834606000145A20761
:1025E800D58F2310F700828003D70500D947AE8620
:1025F80063FAE700B725010001470D469385654F4B
:102608006FF09F990945828011456393A60283471D
:102618001600834606000145A207D58F2310F70050
:102628008347360083462600A207D58F2311F7007B
:10263800828083C725000547FD1793F7F70F63616D
:10264800F70483D705008DCF011122CC2A84C84115
:1026580006CE15C12EC68945EFE00FE62A872285EA
:102668006244B246F240B725010015469385C5502D
:1026780005616FF07F92F2406244094505618280EE
:10268800094582809547114563F9D706411122C44F
:1026980026C24AC006C683471600BA840347060006
:1026A800A2073284D98F2390F4008347360003476A
:1026B800260093054400A207D98F2391F400894787
:1026C8002382F40009461385540036899710FF1FAA
:1026D800E780A0299307A9FF2394F4009947631B77
:1026E800F90023A60400B24022449244024901455D
:1026F800410182801904C0C4FDB7828083D70500D8
:102708008DCF011122CC2A84C84106CE15C12EC610
:102718008545EFE06FDA2A8722856244B246F240A7
:10272800B72501001D469385055305616FF0DF86C7
:10273800F2406244094505618280094582809947D3
:102748006395F6048947411106C62302F7008347BB
:10275800160083460600B285A207D58F2310F7001E
:10276800834736008346260003464700A207D58FD5
:10277800130557002311F70091059710FF1FE780F5
:10278800C01EB240014541018280D1471145639482
:10279800F600C1474DBF828083D705008DCF011158
:1027A80022CC2A84C84106CE15C12EC68945EFE041
:1027B800AFD02A8722856244B246F240B72501008D
:1027C80025469385C55305616FF00FFDF2406244BD
:1027D8000945056182800945828089471145639BC7
:1027E800F60083471600834606000145A207D58FE9
:1027F8002310F7008280011122CC2A84C84106CE1A
:10280800AE86014719C52EC68545EFE0EFCAB24628
:102818002A8722856244F240B72501002D46938518
:10282800855505616FF04FF711456393A6028347FD
:102838001600834606000145A207D58F2310F7002E
:102848008347360083462600A207D58F2311F70059
:102858008280011122CC2A84C84106CEAE8611C5D9
:102868002EC68545EFE04FC5B2462A8722856244C9
:10287800F240B725010035469385E55505616FF0AF
:10288800AFF193F71600114589EB89476387F60086
:1028980085822312D70010C301458280011122CC02
:1028A8002A84C84106CE15C12EC68545EFE0CFC0A3
:1028B8002A8722856244B246F240B72501003D4688
:1028C8009385455605616FF02FEDF2406244094546
:1028D8000561828083D705008DCF011122CC2A841F
:1028E800C84106CE15C12EC68945EFE0EFBC2A8740
:1028F80022856244B246F240B725010045469385D9
:10290800A55605616FF04FE9F2406244094505613B
:10291800828009458280854763FCD7022304A7008B
:10292800A304B7008347160083450600A207CD8F8E
:102938002310F7009387E6FF2311F7008947638682
:10294800F600090650C30145828023220700E5BF2F
:1029580011458280014781464D4681456FF0CFE39E
:102968008D47114563FBD702834716008345060050
:10297800A207CD8F2310F700834736008345260032
:10298800A207CD8F2311F7009387C6FF2312F70004
:102998006386A600110610C701458280232407001C
:1029A800E5BF011122CC2A84884506CEAE8611C522
:1029B8002EC69545EFE04FB0B2462A87228562447D
:1029C800F240B72501005D469385655805616FF0B3
:1029D800AFDC854711456397F6008347060001453C
:1029E8002300F700828001478146654681456FF0E4
:1029F800AFDA011122CC2A84C84106CEAE8601473F
:102A080019C52EC68D45EFE02FABB2462A87228521
:102A18006244F240B72501006D469385655B056108
:102A28006FF02FCC011122CC2A84C84106CEAE8685
:102A3800014719C52EC68D45EFE00FA8B2462A8773
:102A480022856244F240B725010075469385655B8F
:102A580005616FF00FC9011106CE2EC6EF80204C1C
:102A680001C9B245F2400355250005616FB0207ECB
:102A7800F240494505618280A38601B8238601B8E2
:102A880023AA01B623AC01B623AE01B623A001B830
:102A980023A801B623A601B6938741D43707B4000B
:102AA80098C33747A000D8C3370710009306070A12
:102AB80094C7B7065000C106D4C793060705410757
:102AC800D8CB3707D007410798CF37070F0098D3DF
:102AD80037C70700130707B8D8D3416794CB9306C5
:102AE8000701130717F8D8D7417723AE070094D703
:102AF80098DB8280011126CAAA84214522CC06CE01
:102B08002E8432C636C43AC2EFE06FA21DC9A2466F
:102B180012473246930700FD2300F5009947A300AA
:102B280095002301F5002303D500A303E500231234
:102B3800C500AA8522856244F240D24405616FE04F
:102B48004FA9F2406244D2440561828023AAA1B60B
:102B5800828023ACA1B6828023AEA1B6828023A056
:102B6800A1B88280011122CC4AC806CE26CA2A8979
:102B78000144B30489006368B400F2406244D2445B
:102B88004249056182802EC6EFE0AFB39317050175
:102B9800C183A183B2452380F4009307140093F7FF
:102BA800F70F850463F9B700CA9709042380A700C3
:102BB8001374F40F7DBF3E847DBF411122C413847A
:102BC80081D703556400C16706C6FD17630BF5007E
:102BD80003C601C2938541B8EF80201FFD57231318
:102BE800F400B24022444101828009C925151375B9
:102BF800F50F1335850E1345150082800145828037
:102C080023800500F94763E2C708797122D426D2E8
:102C18004ECE56CA5AC806D64AD052CC5EC636845C
:102C2800B289AE8A2A8B814463FF3405B3079400C6
:102C380003CA0700138914001379F90F63050A04FE
:102C4800B3072A0163C1F904B307240183CB070042
:102C58005E85613F0DC99307FAFF2380FA006390F0
:102C68006B03130519002295B2502254925402594D
:102C7800F249624AD24A424BB24B45618280D294B1
:102C880093F4F40F55B70145C5B70145828001118A
:102C980022CC26CA4AC84EC6938781D706CE2E892B
:102CA800D0CB8CCBC8C7AA8441469305F00F4A8580
:102CB800EFE06FAF8549138481D763173503084860
:102CC800C1454D3541469305F00F2685EFE0AFAD80
:102CD80005496313250348446244F240D2444249FB
:102CE800B249C1450561BDBD414681454A85EFE010
:102CF8008FABE31935FDE1B7414681452685EFE005
:102D08008FAAE30A25FDF2406244D2444249B249FF
:102D180005618280011122CC26CA4EC6AE84AA89DA
:102D280013060002138581D7814506CE4AC8EFE015
:102D38006F9D138981D7A38191C2A3013901EFB097
:102D48008052138481D7854719C18147494523009B
:102D5800F400F2406244D2444249B249056182809B
:102D6800814781CD19C98547631BF50083C7550085
:102D780093E707FCA382F50085473E858280894753
:102D88006317F50083C7550093F7F703E5B70D47B9
:102D98008547E314E5FE03C755001377F703136768
:102DA8000704A382E500D1BF81478DC105C103C7D0
:102DB80055009306000C85471377070C6308D70066
:102DC800930600048D476303D70089473E858280B8
:102DD800411122C4005D06C626C21DC8AA84085037
:102DE80009C59710FF1FE780E0AC485009C5971048
:102DF800FF1FE78020AC085409C59710FF1FE78024
:102E080060AB22859710FF1FE780C0AA23AC04029D
:102E1800B2402244924441018280938781D709E9D4
:102E280003C727001385870111C7138541B6828020
:102E380013858701828003C5A1D7828003A541D865
:102E4800828003A581D8828083A7C1D888438280E5
:102E5800938781D7D44B9842050798C203C537009A
:102E68009307F00F6305F50091656FE00F96828078
:102E7800011122CC06CE2E8432C6EF80201991474C
:102E8800B245631EF50083A701B885C303A30700F5
:102E9800630D030022856244F2400561028383A723
:102EA80081B781C703A34700E5B7F24062440545EF
:102EB80005618280011122CC2A840355450006CE83
:102EC80026CA4AC84EC6EF70307D35C52A89834464
:102ED80005008349C500ED3D4A85EF80706B0355B9
:102EE8004400EF80200E1389C1B883470900A1CBA5
:102EF8006397970483C5D1B82685EFF0DFB519E14C
:102F08002300090003554400EF8040109147631DDA
:102F1800F500938781D78356440003D767006395EC
:102F2800E6007D572393E700F2406244D2444249C9
:102F3800B2490561828081499304F00F6DB7930708
:102F4800F00FE381F4FC8346640003564400034514
:102F580024004E87A685EFF0FFB96DB779715EC67C
:102F6800AA8B2E8552CC56CA5AC806D622D426D247
:102F78004AD04ECEAE8A328B368AEF70F07179CD58
:102F8800045D2A89E1CC9C50614599C3130540032F
:102F98009C5481C751054205418163050A007105AA
:102FA80042054181DC5081C7590542054181EFD076
:102FB8001FD82A8445C561468145EFD0BFF483C92F
:102FC80041D76394090083490900930700FD230052
:102FD800F400A947A30074012301F400230364014A
:102FE8008C50231254011305840191C908C47146F9
:102FF800930A44039710FF1FE780209756858C5447
:1030080091C948C45146930A45019710FF1FE780AC
:10301800C0955685630C0A0008C87146D285930A84
:10302800C5019710FF1FE78040945685CC5099C57D
:1030380048C859469710FF1FE7802093A2854E8500
:10304800EFD03FD92254B2509254F249624AD24A40
:10305800424BB24B4A85025945619DBBB25022543E
:1030680092540259F249624AD24A424BB24B4561E4
:10307800828001114EC6AA892E854AC806CE22CC66
:1030880026CA2E89EF70506121C583C441D799E0C3
:10309800834405001945EFD09FC92A8415C9814585
:1030A8001946EFD03FE6930700FD2300F400B94727
:1030B800A30034012301F40023122401A2856244F1
:1030C800F2404249B2492685D24405616FD07FD08B
:1030D800F2406244D2444249B24905618280397162
:1030E8005ECEAA8B2E8526DA4ED652D456D25AD028
:1030F80006DE22DC4AD8AE84328BB68A3A8ABE898A
:1031080042C6EF70705921C92A894145EFD03FC2A4
:103118002A8431C141468145EFD0DFDE03C541D75E
:1031280019E103450900930700FD2300F400BD479A
:103138002301F400B247A30074012312940023046E
:103148006401A304540123054401A30534015CC4AC
:10315800A285EFD01FC8F2506254D2544259B259D6
:10316800225A925A025BF24B21618280797126D2EF
:10317800AA8439454AD04ECE06D622D42EC6B28964
:103188003689EFD0DFBA21C1B2459307000D23106D
:10319800F500B1472A842312B5002301F500CE8536
:1031A800190519469700FF1FE780207C2306240194
:1031B800A2852254B2500259F24913F5F40F9254E1
:1031C80045616FD01FC1B250225492540259F2493E
:1031D80045618280411126C2938481D703C7340098
:1031E80006C622C44AC09307F00F630AF7042A8967
:1031F8003945EFD0DFB32A8439C1930700FD230096
:10320800F500A300250123010500938584010D0520
:1032180019469700FF1FE780407583D78400A28571
:1032280003C534002315F40083C714002306F400F3
:103238002244B2409244024941016FD09FB9B24042
:1032480022449244024941018280011156C2AA8A4D
:10325800314526CA4AC84EC652C406CE22CCAE84D0
:10326800328AB6893A89EFD09FAC39C52A84268537
:10327800EF7090421DCD03450500930700FD230024
:10328800F4009D47A30054012301F4002312940085
:10329800231344012314340123152401A285624415
:1032A800F240D2444249B249224A924A05616FD05B
:1032B8005FB203C5B1D7D1B7F2406244D2444249A4
:1032C800B249224A924A05618280397162CC2A8CBD
:1032D800594526DA4AD84ED652D456D25AD05ECE5E
:1032E80006DE22DCAE8432C636C4BA8B3E8BC28A76
:1032F800468A8359010403494104EFD05FA335C5C9
:103308003246930700FDA2462300F5009547A30126
:10331800C500A30085012301F5002A84194611057B
:10332800A9C2B6859700FF1FE780206423066401C1
:10333800230A240123157401231754012318440177
:1033480023193401A2856254F2504259B259225AC3
:10335800925A025BF24B624C2685D25421616FD09F
:103368005FA78145EFD01FBAD1B7F2506254D2544B
:103378004259B259225A925A025BF24B624C21616D
:103388008280411122C4138481D78347240006C652
:1033980026C29DC7AA851946138541B69700FF1F07
:1033A800E780A05C03452400938541B6EFF05F9B5E
:1033B8002244B240138541B6924441016FA0706B1C
:1033C800B24022449244014541018280411126C203
:1033D800938781D706C622C44AC003C7370093071C
:1033E800F00F938481D76302F7042A892945EFD027
:1033F8001F942A841DC9930700FD2300F500A147E7
:10340800A30025012301F50083C72400938541B655
:10341800A301F500194611059700FF1FE780E05446
:1034280003C53400A285EFD0DF9A03C7440085475F
:103438006315F70283A7C1B781C79C4791C38297D9
:103448002244B2409244024903C501C25D66130694
:103458000670914541016FD05FFCB240224492440E
:10346800024941018280797122D406D626D24AD0F7
:103478004ECE52CC56CA09445DC92A890355050067
:10348800AE895144EF705021AA8455C1938701C277
:1034980083C737008546BA8AFD1793F7F70F494463
:1034A80063F7F6080347C500A1476314F700639064
:1034B80009089C5C4544A5EF916593854571130502
:1034C800C0029700FF1FE780E03588DC2A8A4D4458
:1034D80039CD1306C0028145EFD0DFA2835709001A
:1034E80093064A0036852311FA0071469305490070
:1034F80036C69700FF1FE780404789472300FA0038
:1035080003C5C400B2460356090083C501C261154C
:1035180013351500EFA0E01F2A8463860900CE85C5
:103528002685EF80D03101C42685EFF07F8A228579
:10353800B250225492540259F249624AD24A456121
:10354800828083C731C20547FD1793F7F70F637869
:10355800F708894751C6011122CC26CA4AC84EC667
:1035680052C406CEAA89368AB2842E89EF70D01248
:103578002A84D14729C9485509C59700FF1FE78004
:103588006033F1452685EFD05F9A48D4CD4705CD05
:103598008346C40021478147639FE600630D0A0004
:1035A8000347A5010356050193062501AA854E8503
:1035B800EF804021AA8703474400630F090013677F
:1035C80067002302E400F2406244D2444249B2490F
:1035D800224A3E850561828013674700DDB7C947E7
:1035E8003E858280E14763EAA7009317150013859B
:1035F80041D43E9503550500828041657D15828042
:10360800011122CC2A842E8526CA06CEAE84EF70FC
:10361800B0080DCDB7470F009387F723094563E23C
:10362800870281450A854146EFD0DF8DA6852310A4
:1036380081000A85418023018100A3010100EF90E8
:10364800D06FF2406244D244056182804945D5BFBB
:10365800A380A1C282806FA0E004797152CC2A8A2B
:10366800328522D426D24AD04ECE56CA5AC85EC611
:1036780006D662C4AE8BB28A368BBA843E89C289BA
:103688004684EF70700115C92A8C63140A021377F7
:103698004B008347450015CF93E727012302FC0021
:1036A8008DEC631C0902639A090205E8ED9B23026D
:1036B800FC00832B8C03639F0B06B2502254925458
:1036C8000259F249624AD24A424BB24B224C4561F6
:1036D8008280F59B93E70701D1B793E74700230260
:1036E800FC0001CC1C484146A2852324FC0213059A
:1036F8008C019700FF1FE780402763910B02D5D804
:103708000325CC0209C59700FF1FE780A01AF145E1
:103718002685EFD09F812326AC0261BFE30B09F811
:103728000325CC0209C59700FF1FE780A018F145C3
:103738004A85C5B79DC483A70B0299EB916593850C
:10374800357171459700FF1FE780C00D23A0AB02BC
:1037580003A50B0219C57146A6859700FF1FE780D0
:10376800C0206388090283A74B0299EB9165938572
:10377800257159459700FF1FE780C00A23A2AB02B5
:1037880003A54B0219C55946CE859700FF1FE78050
:10379800C01D1DC483A78B0299EB91659385157194
:1037A80051459700FF1FE780E00723A4AB0203A55C
:1037B8008B0219C55146A2859700FF1FE780E01AC2
:1037C8002254B2509254F249B24B224CCA865A86BD
:1037D8000259424BD6855285D24A624A45616FF0FA
:1037E800EFF7011126CA52C406CE22CC4AC84EC6EB
:1037F8002A8AAE84EF70406A35C1AA893945EFD06C
:103808000FD32A8421CD03C941D76314090003C902
:1038180009009307000D2310F400AD472301F400BD
:10382800938569001305340019469700FF1FE78048
:10383800C01393F71400858085882306F400A30637
:10384800940023154401A2856244F240D244B2494F
:10385800224A4A85424905616FD0AFD7F240624497
:10386800D2444249B249224A05618280411122C4A8
:103878001384C1B6084006C619C59700FF1FE78024
:10388800600323200400B2402244410182800111D8
:1038980006CE22CC26CA4AC82EC6EF70E05F29CDD4
:1038A800B24503C941D70CD5AA846314090003495A
:1038B80005004145EFD0AFC72A841DCD9307000D01
:1038C8002310F500A5472301F50083C7540093850D
:1038D80064001105A30FF5FE19469700FF1FE78046
:1038E800C0089C54A285F2405CC46244D2444A8514
:1038F800424905616FD0EFCDF2406244D24442495B
:1039080005618280797122D406D62A842EC6EF708A
:10391800A0580DCD8346C5001147AA874945639332
:10392800E6029C5FB24599C383C567010808EF802A
:10393800E079B7D60100938626921008894522853A
:10394800EF70F06CB2502254456182805145DDBF62
:1039580083C731C20547FD1793F7F70F637AF7045A
:10396800894721CA411122C426C24AC006C6B28468
:103978002E89EF7060522A84D14705C56308090073
:103988008347450093E727002302F5004146A685B3
:10399800130584019700FF1FE78020FD9C481CD475
:1039A8008147B2402244924402493E8541018280C7
:1039B800C9473E858280797122D406D62A842EC6CC
:1039C800EF70804D01CDB2452285230EB1006C0801
:1039D800EF806063B2502254456182805145DDBF5B
:1039E8006F70C058C1671387E7FF6393E50283A729
:1039F80081B791EB494582804945B24022449244BF
:103A080002494101828003A30700E30503FE028304
:103A1800411122C426C24AC006C6FD172A892E842F
:103A2800B2846394F50283A781B791CB9C4381CB81
:103A3800829711E5238621B9A38691B87DBFA68513
:103A48004A85EFF04F8155F9F5B72E85EF70C044E0
:103A580045D5834705000D45E39127FB2285224480
:103A6800B2400249A685924441016FA0407EE147D9
:103A780063E6A70441677D1789476382E50441111E
:103A880022C426C206C6C547AE842A84631AF50036
:103A98001305C0033385A50242054181EFA0F00458
:103AA80013151400138441D42295B24022442310E4
:103AB8009500814792443E854101828089473E8531
:103AC8008280011106CE2AC6EFE01FFBEF10A01579
:103AD8004D2DEF90C131938781D7130700F02391C3
:103AE800E700238207003245138701C2FD56A30071
:103AF800D700F2402380A1C2954505616F50F05C64
:103B08001D7193970501CAC886CEA2CCA6CACEC697
:103B1800D2C4D6C2DAC05EDE62DC66DA6AD86ED695
:103B2800C1872E8963D9074603C501C2EFD00FA408
:103B38002A84138AC1E1938481D71DE02165334526
:103B4800A900F6406644D6444649B649264A964AEC
:103B5800064BF25B625CD25C425DB25D256182809D
:103B6800834704001307200A639CE70083CB3400D3
:103B780003552400C1652286FD15EFF06FAF31AA09
:103B8800138701C2834B1700130710096393E714C7
:103B9800834714001547639EE7002285EFF08FB135
:103BA8002285EFD00F9603C501C2EFD02F9C2A843F
:103BB80069B739476393E714035544008567A50738
:103BC8006313F5040C4403CD0500631B0D00850544
:103BD80081C91946138501D99700FF1FE780E0D8EE
:103BE80003C7040085476316F70E63080D0023809A
:103BF80004006A85EFF00FDE65B789472380F4007B
:103C0800EFA0E06671BF096793072700631CF504FE
:103C1800032D8400630F0D0A83470D0089EF834746
:103C28002D0003471D00A207D98F2394F400834772
:103C38003D00A380F40003C704008947631BF7080D
:103C480083470D0091C72380040003450D005DB72D
:103C580083C5140003D584008D472380F400EF50FA
:103C68009049E5B7930757006318F5001C4403C54E
:103C78000700EFF0AFF52DB7F977E917AA97C20754
:103C8800C183914663EEF60083A7C1B7E38A07F0C4
:103C98009C43E38707F022858297E31305F015A874
:103CA8002D07631EE50083A741B7E38B07EE9C430E
:103CB800E38807EE0965A2852D058297F9BF896714
:103CC8001387C7006310E5021C4483C70700E38914
:103CD80007EC9307F00FE385FBECA2855E85EFD038
:103CE8004F8FD1B5B907E316F5FE83A781B7E389EE
:103CF80007EADC43A285F1F365B53D476397E7041E
:103D08000355440089671387D700E300E5FE13874E
:103D18009701E30CE5FCCD07E31DF5FA03D7640032
:103D2800C167FD17631DF70083A781B7E38A07E61C
:103D3800DC43E38707E60965A2854D05BDBF83A778
:103D480001B8E38F07E49C43EDB71307E003E39260
:103D5800E7F88347240005476393E70E8347640029
:103D6800938DC1B6F1E383A70D00C5CF03CD07003E
:103D7800A14B03457400930C8400E685EFF0CF82D5
:103D880083474401A303A400835804010358E400B3
:103D9800035744002A86034534003EC28357240152
:103DA800E686EA853EC0DE87EFF02FD283473400EF
:103DB80095E7DD47835804010358E40083467400FF
:103DC800835544003EC2835724013EC06687DE8780
:103DD80005466A85EF70C038A301A40083A70D00CB
:103DE80081C71145EFF09FA8138DC1B803450D0099
:103DF800E30805DA83C5D1B8EFE0FFC5E30205DAC9
:103E08008346340093071003638AF6000356440080
:103E180083450D005E873685EFE0DFCD238601B848
:103E280041B303CD3400A9B783A7C1B703CD34008C
:103E3800914BA1D3DC4395DF014582971DBF2947EC
:103E48006398E70883476400938DC1B6BDE783A7ED
:103E58000D00ADC303CD0700A14B03457400930CBF
:103E68004401E685EFE05FF483470402A303A4005E
:103E78008358C4010358A401035744002A86034504
:103E880034003EC28357E401E686EA853EC0DE87F9
:103E9800EFF0AFC383473400B1F3DD478358C40163
:103EA8000358A40183467400835544003EC28357D7
:103EB800E40121BF03CD340045B783A7C1B703CDC3
:103EC8003400914BD9DBDC43C9DB0145829771B7DC
:103ED8000947639CE70083A741B7E38307CCDC432A
:103EE800E38007CC2285829765B92D476398E70060
:103EF80083A741B7E38607CA9C47DDB70D47639799
:103F0800E70022868D450355440085B91947639516
:103F1800E7069305610113051031EF8011782C082D
:103F280013052031EF8071770356640083578101B0
:103F38000355440063E8C7008356840003576101B2
:103F480063F7E60093050002EFA0203991B9637486
:103F5800E6002313E40063F4D7002314F4000357A6
:103F6800C4008356A40003568400835564000148A6
:103F78008147EFA040362DB11D47E39CE7D4035796
:103F88004400E3E8E7D48357640006075297F11723
:103F98002310F7003DBB93F7150099CB83A741B7D2
:103FA80089C7DC4399C3014582971345190051BE5F
:103FB80093F7250099CB83A7C1B789C7DC4399C379
:103FC8000545829713452900ADBE93F74500014585
:103FD800E38907B6938781D783C75700138481D7AE
:103FE800A1C7FD1793F7F70FA302F40095EF83A776
:103FF80001B799CB85472302F40083A7C1B789C7C6
:10400800DC4399C30545829748442C08EF90603CEF
:104018002808EFF00FB783D761D69145A302F400C3
:1040280003C501C2EFD04FC21345490019BE411163
:1040380022C42A84554506C6EFF0CFDAB335A0006E
:1040480022852244B24041016FA02024797122D4F4
:1040580006D68D472E84631FF50003D7A50083D6A7
:10406800850003D665000345340083D54500EFF08D
:10407800CF9D09A889671387D700631FE50203C589
:10408800250019E58547B25022543E854561828056
:1040980083A6C1B6E5DA03C6360083C506008148A3
:1040A80002C202C00148814701479106EFF0EFA123
:1040B8000545EFF0AFFBF9B71387E700E304E5FC2C
:1040C80013873701631AE50003C5250045DD01475D
:1040D80081460146814561BFE507E305F5FA416779
:1040E8007D178147E311E5FA03C75500C947E31B6C
:1040F800F7F883D6E50003D6C5000355840083D5B9
:10410800A500EFA0001F21C15D45EFF0AFCD33350D
:10411800A000231EA1008345440003552400700815
:10412800EF60104C8357C101B1FF0357E400835679
:10413800C4000356A4008355840003552400014895
:10414800EFA0601781B78547231EF100E9B7C16763
:104158001387E7FF639CE50083A7C1B68DC383C7B8
:1041680007000D47639BA7006FA02014FD17494760
:104178006395F50083A7C1B6E5FB3A858280494778
:10418800EDBF238C01B823A001BA23AE01B837478D
:104198000100938781D91307E73D98C3374701008A
:1041A80013076741D8C3374701001307077598C736
:1041B80037470100938701B91307671598C3374735
:1041C800010013074705D8C38280011122CC83A7B9
:1041D80001BA06CE26CA4AC84EC652C48DC3138435
:1041E80001BA2E8AAA840149084063129902630C15
:1041F8000A0497F0FE1FE780E06B23200400F240DA
:104208006244D2444249B249224A056182809319E4
:104218004900B3073501884709C997F0FE1FE780B1
:1042280060691C40CE9723A407001C40CE97C8475E
:1042380009C997F0FE1FE780E0671C40BE9923A6D6
:104248000900050955B745DD139644008145EFC0BF
:104258007FCB144081477D5613F7F70FE37197FA28
:104268001397470036972300C7008507F5B779717C
:104278004AD083A7C1B906D622D426D24ECE52CC74
:1042880056CA5AC85EC6D1CFAA891389C1B9938ABA
:1042980081B9014411ED83A601BA99CA03C60A007F
:1042A8002A8481479305F00F13F7F70F6366C70851
:1042B800131534002105EFC09FA7AA8401E9214501
:1042C800EFC0FFA6AA8431C10144CD49930700FD80
:1042D8002380F4008547A38034012381F400A3815F
:1042E800840055C49389840023A23401014A930BA6
:1042F800F00F83C70A006373FA0039E883270900BF
:10430800A68503C50700EFC0DFAC03C50A008145D9
:104318006D3D0325090097F0FE1FE780A059232073
:104328000900B250225492540259F249624AD24AC0
:10433800424BB24B4561828013974700369703473B
:1043480007006305B70005041374F40F8507A9BFB8
:1043580083A701BA93154A00BE9583C705006384F5
:1043680077032380F90083C71500138529007D147E
:10437800A380F900194689051374F40F97F0FE1FFE
:10438800E780A05EA109050A137AFA0F9DB723A258
:104398000400ADB7411122C406C62A8405E10945C7
:1043A800EFF04FA42A8611C503C501C28545EFC0A9
:1043B8001FF40545EFF0BFC72A8409C903C501C228
:1043C8008545EFD06F882285EFF07FEAB24022441E
:1043D80005454101828089671387B7006319E500A5
:1043E80083A7C1B995C39C4503C5070065B7138763
:1043F800C7008147631BE5009C4503C50700854747
:1044080009C583A7C1B9FDF381473E8582801D7127
:1044180086CEA2CCA6CACAC8CEC6D2C4D6C2DAC074
:104428005EDE62DC66DA6AD86ED6630E05268347DE
:104438003500AA8985C7404115C05945EFF08F9AC4
:1044480093178501E187116C3EC20149930BF00F68
:10445800930DEC7183C739006361F902F640664435
:10446800D6444649B649264A964A064BF25B625CF0
:10447800D25C425DB25D2561828083078402124767
:1044880063CEE72A83A7C1B9138AC1B9938401BA55
:10449800ADCB0347040085476309F706034684004C
:1044A800930694009305F1010545EFE06FF5814708
:1044B80019C1834705008346040011476381E6025A
:1044C80003270A008D4603471700630AD70081CBEC
:1044D80019C705C98546631DD7028D8B9DC3034542
:1044E8001400930C2400E685EFE01F8CA300A400C1
:1044F8009C40AA86014D95E7034604009147631F37
:10450800F60C9C40639C072215A48147014565B7BA
:104518008946E318D7FE858BD1B713071D00137D95
:10452800F70F83C781B98840E378FDFC93174D00E6
:104538003E9503460500E30276FF03461500E31E99
:10454800D6FC1946E68509053EC636C4EFC0BFA1AC
:10455800A246B24779D1984083460400330DF7004C
:10456800E30C0DF81147639EE6080325CD000DC541
:1045780003478400034605006308E60883460400F1
:1045880011476391E60A0325CD0019C597F0FE1F70
:10459800E780403223260D0003458400EE8505059B
:1045A80097F0FE1FE78000280DC5834604001147D9
:1045B8006394E6082326AD0083478400930594009E
:1045C8000505A30FF5FE0346840097F0FE1FE7805C
:1045D800C039834784006397071425B79C4095D357
:1045E80083C581B98146E38EB6F03E87C10703C50E
:1045F80007FF6304750D850693F6F60FEDB708C738
:10460800EDA803258D00A5B7930594000505EFC017
:104618009F950547E314E5F65545EFE0BFFC6303B6
:104628000510C5B503258D0025D997F0FE1FE78035
:10463800602823240D008DB72324AD00B5BF930750
:10464800000D2310F500B5472301F500834704004A
:10465800194693052400A301F50083078402150574
:104668002303F50083471400A30FF5FE97F0FE1F00
:10467800E780A02F034684002386C40015C2138553
:10468800440188C89305940097F0FE1FE780E02D49
:1046980083270A00A68503C50700EFC08FF379A812
:1046A80023A80400F5B783A7C1B9E38907DAEFF0B7
:1046B8001FBC0145EFF0BF9755B32300C7008347E0
:1046C8001400130527001946A300F700E6853AC42D
:1046D80097F0FE1FE7806029034584009305FC716D
:1046E800050597F0FE1FE780E013224705C58346BE
:1046F80004009147E395F6F048C783478400930583
:1047080094000505A30FF5FE0346840097F0FE1FED
:10471800E780A0258347840091E703470400854785
:10472800E311F7DE83270A00E38D07DC03458400E5
:104738005105EFC0CFDFAA84E31305F00509130480
:1047480094021379F90F39B3797106D622D426D297
:104758004AD04ECE52CC56CA5AC85EC662C479C137
:1047680083473500AA8995C3444185C05945EFE080
:104778007FE7931A850193DA8A410149930B00FD7B
:10478800414C83C73900636EF900B25022549254E9
:104798000259F249624AD24A424BB24B224C456115
:1047A80082808387F40063CA5707138AC1B98327B5
:1047B8000A00A5C75145EFC08FD72A8439CD2300F9
:1047C8007501A30005002301850183C7040019466C
:1047D80093852400A301F5008387F4001505A3063B
:1047E800F50083C71400A30FF5FE97F0FE1FE780BE
:1047F800C01783C78400938594001305C400A305DC
:10480800F400194697F0FE1FE780201683270A0058
:10481800A28503C50700EFC0CFDB0509C1041379E2
:10482800F90F85B783A7C1B9ADD3EFF05FA42254C0
:10483800B25092540259F249624AD24A424BB24BA0
:10484800224C014545616FF08FFE83A7C1B995C71A
:1048580003C707008D476313A70203C501C24111AF
:10486800854506C6EFC05FBE13050003EFF03FA005
:10487800B240014541016FF08FFBC9473E858280F8
:10488800011126CA9384C1B99C4006CE22CCB9EF47
:1048980083C731C2A98BADC391652A849385D5712D
:1048A800114597F0FE1FE780E0F788C021C9A2856F
:1048B800114697F0FE1FE780400B1545EFE09FD2A9
:1048C8002AC61945EFE01FD20347340083C6A1D793
:1048D8002A86034524006244B245F240D244333765
:1048E800E000B336D00005616F90F0194545F240FD
:1048F8006244D244056182804945D5BF4D45C5BF54
:1049080083C731C2397122DC06DE26DA4AD84ED690
:1049180052D456D25AD0A18B4944638D070C83A731
:10492800C1B941446398070C2A89EFF06F8B83C79C
:10493800C1C055446370F50C83A7C1B64544DDEB8F
:1049480091659385C571294597F0FE1FE78080ED35
:1049580023A6A1B64D4459CD2946CA8597F0FE1F16
:10496800E780A00083A7C1B683C71700D9CF2D451C
:10497800EFE05FC72A843145EFE0DFC683C7A1D7E0
:104988002A894145B337F0003ECEEFE0BFC52A8BF8
:104998003D45EFE03FC5AA8A3545EFE0BFC42A8A06
:1049A8003945EFE03FC4AA892145EFE0BFC32ACCCF
:1049B8001D45EFE03FC303A7C1B62ACA0345370028
:1049C80093054700EFE0CFB903A7C1B6E2485248C4
:1049D80003462700F247AA865AC6228556C452C201
:1049E8004EC01107CA85EF90900A2A8401C50D456B
:1049F800EFE0DFE72285F2506254D2544259B259AF
:104A0800225A925A025B216182802545EFE09FBDC0
:104A18002A84294595B783C731C20145A18B99C31B
:104A2800138501B96FE0EF92411122C4138481B953
:104A380026C2AA8403450400854506C6EFF0EFF8B0
:104A480083C731C2A98BB5C723009400138581D9C8
:104A5800EFE0CF8F938401BA9C4099C74D45B2408F
:104A680022449244410182800345040019E1014532
:104A7800FDB791659385B571120597F0FE1FE78024
:104A880060DA88C061DD0346040081451206EFC084
:104A98006FC78346040090408147FD5513F7F70F11
:104AA800E377D7FC1397470032972300B7008507B1
:104AB800F5B7014523000400EFE04F894DBF4111D0
:104AC80022C403A501B706C619C597F0FE1FE780E3
:104AD80060DE23A801B6B240224441018280011160
:104AE80022CC06CE26CA8D472E846313F50603C74B
:104AF8003500E94703D54500938481D76316F7004D
:104B080083D764006382A706EF60003909C583571D
:104B180064002317F5000357A40083568400035646
:104B280064008355440003453400EFE00FF2035757
:104B3800440083D764006309F7008547F240624464
:104B4800D2443E8505618280FD572393F400F5B772
:104B58008967CD07631DF50083C725003147638545
:104B6800E7004547E39BE7FCEFE02F85F9B741678E
:104B78007D178147E314E5FC83C655004947E39F49
:104B8800E6FA83C5450003552400300023140100CC
:104B9800EF60E01F5DB7797122D483A701B706D60D
:104BA80026D24AD00545ADC70D45EFE0BFA3AA847C
:104BB8001145EFE03FA32A899305F1011305F04160
:104BC800EF60B1560347F101938781D721CB83C7A3
:104BD80027000D4789466384E700B336F00083A7B2
:104BE80001B736C603C5370093854700EFE04F97F6
:104BF80003A601B7B2462A878348B6000348A60031
:104C08009307460003462600CA852685EF90A066CE
:104C1800B2502254925402594561828083C62700BB
:104C2800B336D0006DBF7D572386E1AE239201BA1B
:104C380023A601BA23A801BA23AA01BA375701004B
:104C4800938741DA130747CC98C3375701001307F6
:104C580027FAD8C3375701001307E7B998C7B757DA
:104C68000100938767AE23A4F1BA8280411126C25E
:104C780083A701B706C622C48DCF2A840D45EFC08D
:104C88000F8BAA8505C1930700FD2300F5008D470A
:104C9800A30085002301F50083A701B703C507001A
:104CA800EFC02F9319C42244B240924441016FF0DF
:104CB8001FE1B2402244924441018280797122D49A
:104CC80003544500896706D626D24AD04ECE52CC28
:104CD80056CA13876700631FE40283A701B781449C
:104CE80089CF1845034507001DE10547A380E70064
:104CF8000545EF90005901ED8544B25022542685B0
:104D080002599254F249624AD24A45618280EFF0D0
:104D1800FFF5DDB713879700636787049384C1AEF7
:104D280003C704009307F00FE308F7FC1C4511457F
:104D380003C90700EFB0BFFFAA855DDD930700FD3B
:104D48002300F50089472301F500F977E1173E9420
:104D580013341400A3002501A301850003C5040032
:104D6800EFC02F8751BFA9078144E318F4F883A740
:104D780001B7CE8AD9D3184583C417008547034A9B
:104D88000700138981D7638CF40283474900ADF784
:104D98000D45EFB0DFF9AA8505C1930700FD230093
:104DA800F5009147A30045012301F50083A701B74A
:104DB80003C50700EFC0EF81EFF07FD035BF83A7B1
:104DC800C1BA91EF0145EFE0FF812A8611C603C5FC
:104DD80001C28945EFC0AFD183A701B7A9A003C617
:104DE8000700938617009305F1000545EFD05FE1B2
:104DF80071D983470500858BF1D70545EFE08FFE14
:104E08009307B0032A8463F9A70203C501C25D664C
:104E1800130606708945EFC04FE0130444FC239243
:104E280081BA83A701B70947A380E70083474900F0
:104E380089CB23020900D1B5130600643306C502E5
:104E480071B75285EFF09FE24DBD79714ECE83A7C1
:104E580001B722D406D626D24AD052CC454489EB93
:104E6800938701C283C7370013F7570019EB4944EA
:104E78002285B250225492540259F249624A45613D
:104E8800828003A7C1BA414465D7034707006DD3A1
:104E9800858B2E892A8AC1C7834709000547F917D8
:104EA80093F7F70FE365F7FC9165938575713145C5
:104EB80097F0FE1FE780009723A8A1B64D444DD96F
:104EC80023004501A30005002946CA85090597F076
:104ED800FE1FE78080A9138481D7034724008D47EC
:104EE8006317F704EFD09FF52C00EF80804E280061
:104EF800EFE02FC9854745452302F400EFE08FEE28
:104F08001375F50FA302A40001443DD103C501C2E6
:104F18005D66130606709145EFC02FD091BFEFE094
:104F28003FAC2A84EF604007E378A4F6B5BFEFF002
:104F38009FC62A8415DDEFF09FB81DBF411126C218
:104F480083A701B706C622C44AC0A1C383C7070006
:104F58000D44639DA70203C501C28945EFC0CFCEAA
:104F680003C501C29145239201BAEFC0EFCDA38ECC
:104F780001D683A701B70145A38087002244B24028
:104F88009244024941016F90C02F49442285B240A2
:104F980022449244024941018280411106C622C43A
:104FA80026C285476315F506138441BA8357040062
:104FB800A1C703C7C1D729E31307B0036369F70281
:104FC80003C501C28945EFC02FC8035604009307E3
:104FD800006403C501C23306F6028945EFC02FB14C
:104FE80023100400B24022449244410182809387F6
:104FF80047FC2310F400FDB783A701B7E5D7224487
:10500800B240924403C5070041016FF03FF383A704
:1050180001B7E9DB938701C283C73700918BF9D3C6
:1050280003C501C28945EFC02FC22244B240924451
:10503800239201BA41016FF09FA883C731C2958BB3
:10504800D9CFB9CD83A7C1BAD9CBFD4763EBC70880
:1050580011C2C1CA411122C44AC006C626C223864B
:10506800A1AE36893284A1C19384C1BA88407D46F5
:1050780081450505EFB01FE98840CA8522860505E8
:1050880097F0FE1FE780608E8C4022852380850084
:105098002244B24092440249850541016F90E01DC7
:1050A80083A741BB55B7938441BB88407D46814562
:1050B8000505EFB03FE58840CA852286050597F0CB
:1050C800FE1FE780808A8C40228523808500224449
:1050D800B24092440249850541016F90401A494502
:1050E800828009458280797106D622D426D24AD098
:1050F8004ECE52CC8D4763FCA70009442285B2509E
:10510800225492540259F249624A4561828003C787
:1051180081D74144E314F7FE938781D783C92700D9
:105128009307F5FF93F7F70F85462E842A89938412
:1051380081D763E4F60695E199452800EFD09FA250
:1051480003C501C2914523812401EFC0EFAFA382BB
:10515800040029CC2381340155B71946814528001C
:10516800EFB05FDA19462C002285EFB0DFDF51F58A
:1051780019469305F00F2800EFB0DFD819462C0028
:105188002285EFB05FDE35F9A2851946280097E041
:10519800FE1FE780807D014465B70144E312E5FA0C
:1051A800C8442C00EF80E0222A8459BF6314090008
:1051B8000144A9B72800EFE0CF9C2A8441FD8D4720
:1051C800E318F9FE4545EFE0EFC11375F50FA3822B
:1051D800A40079DD03C501C25D661306067091451A
:1051E800EFC0AFA321BF83C731C2918B89CF4111D3
:1051F800138581BA06C6EFD09F96B2407D57239F8C
:10520800E1D64101828001456FD07F95411122C4CA
:1052180003A5C1BA06C626C24AC01384C1BA19C5B5
:1052280097E0FE1FE78000692320040003A541BB27
:10523800938441BB19C597E0FE1FE780A06723A0B0
:105248000400138901C283473900958BADCB1385C0
:1052580041DAEFD07F9083473900958B81EB4D453C
:10526800B240224492440249410182801169930567
:1052780069711305000297E0FE1FE780A05A08C075
:1052880079DD130600028145EFB0DFC79305597138
:105298001305000297E0FE1FE780C05888C001C9C7
:1052A800130600028145EFB0FFC5014555BF084010
:1052B80097E0FE1FE7800060232004004DB70145FA
:1052C800EFD09F89DDB703C7050093762500937754
:1052D800D70F99C29367270013188501135888417F
:1052E80013F7F7076354080013E707089376850058
:1052F8009377770F99C2936787001377050293F620
:10530800F70D19C393E607022380D500634508000B
:105318009377A50281CB8347060093E7C700230054
:10532800F60082807DFD83470600CD9BCDBF2D45CD
:105338006317071403C805000947631EE812C8412C
:1053480003471500034505002207498F42070D65ED
:105358004187930825A06309170B011122CC26CA9F
:105368004AC84EC606CEBE89B68432842E8963CE1C
:10537800E800930705A0630DF702130515A0630E57
:10538800A704239004000545A5A0930745A063073B
:10539800F7086346F706130565AAE314A7FE8547D1
:1053A8002390F600DC4583C707002300F60081A0A0
:1053B800C845EFB05FB6420541814E86637335013B
:1053C8002A862390C400420641828325C90022858B
:1053D80097E0FE1FE780605919A8DC4583D70700CE
:1053E800239006012300F600A183A300F6000145DF
:1053F800F2406244D2444249B249056182809947E9
:105408002390F6001946D1B785472390F600DC456E
:10541800014583C707002300F6008280DC45A9CB3D
:1054280021472390E60003D707002300E60003D7AF
:1054380007002183A300E60003D727002301E60025
:1054480003D727002183A301E60003D747002302DF
:10545800E60003D747002183A302E60003D76700CD
:105468002303E60083D76700A183A303F60041B7AF
:1054780023900600ADBF23900600054582808280F8
:1054880083C8050089476391F814DC41797122D4F7
:1054980006D626D24AD04ECE52CC03C8170083C7B0
:1054A80007002E8422083368F80042088D671358D5
:1054B8000841138327A0630A680E2A8A3A89B684AA
:1054C800B285634C0301138707A0630AE802938738
:1054D80017A06303F808854711A8138737A063034B
:1054E800E80A138767AA8D47E317E8FEB2502254EB
:1054F80092540259F249624A3E8545618280484485
:1055080032C6EFB05FA1420541819D47E36025FFA8
:10551800B3099900D547B24563D43701B547F9B700
:1055280048442686C2094A9597E0FE1FE780E04373
:10553800484493D9090159463306364181454E9569
:10554800EFB05F9C83A7C1BB99E3814745B79C43F4
:105558008145E5DF52852DA0AD47E31909F8E39FA2
:1055680016FB83471600834606005844A207D58FCA
:105578002310F70083A7C1BBE9DB9C438545F1D71E
:105588008297E1B7AD47E31309F69947E398F6F830
:105598004844194697E0FE1FE780203D83A7C1BB1A
:1055A800CDD79C43DDD38D4575B7AD4721F38547EE
:1055B800E396F6F60347060093070008E3E8E6F2E9
:1055C800DC452380E70051B785473E85828023AEBE
:1055D80001BA89472388F1AE138F01AF8147938EB3
:1055E80001DB5947B386FE00238006008507E39B4D
:1055F800E7FEB707A000938541AF938707059CC1D5
:10560800B707E803DCC1238D01BA37E602009387A8
:10561800819E130686DBD0C337E602000947138E46
:10562800D1AE1306C6D82300EE00D0C723AEE701DB
:1056380023AEC70337E6020037EF020037EE020059
:1056480085461306C6D9938811AF138381BB138887
:10565800F1AE1385E1AE130F4FDA130E4ED9238046
:10566800E8002380E7002388E7002380E7022388F7
:10567800E7022380E7042300E8002384D70023956A
:105688000700D0CB238CD700239D070023A2E70374
:105698002384D7022395070223A6D703D0DB238CC4
:1056A800D702239D070223A2C7052384D704239585
:1056B8000704231003002300D50023A667042388CA
:1056C800E70423AE17052380E7062388E70623802F
:1056D800E708B7E8020037E70200130787D993887D
:1056E80048DB23A2E708F0CB238CD704239D0704CB
:1056F80023A217072384D70623950706ECD7F0DBE8
:10570800238CD706239D070623AE07072384D708D3
:105718002395070823A6A70837570100938781A771
:105728001307673398C33757010013078748D8C34F
:1057380023A407008280A54763E1A70CB7E702000E
:105748009387C78E0A053E951C41411122C426C283
:1057580006C64AC0B2842E848287D547614563E174
:10576800B70259468145138501DBEFB0AFF92286B0
:10577800A685138501DB97E0FE1FE780001F014522
:10578800B2402244924402494101828089476145DE
:10579800E398F5FE03570600239CE1BACDB7A1476D
:1057A8006145E39FF5FC2146A685138541AFEF804F
:1057B800E106F1B785476145E394F5FC9385819E41
:1057C800D04D9385850203C50400EFF0DFAF45BFD8
:1057D80085476145E396F5FA9385819ED05D93856B
:1057E8008504D5B785476145E39CF5F8034706006E
:1057F8002387E1AE69B7094561B709458280054746
:10580800630AE5024111AA8706C62E8599CB11477E
:105818006388E7022547638BE7020945B2404101E7
:1058280082805546938501DB97E0FE1FE780E013F1
:105838000145EDB783D781BB01452390F5008280F0
:105848002146938541AFEF70717DDDB783C7E1AE27
:105858002380F500F1BF9387A1BB03C7070011EFB1
:1058680005472380E700058909C9938681A7414632
:10587800A5451385819E6F304058014582800111EE
:105888001388F5FF06CE22CC26CA4AC84EC652C493
:105898001378F80FAD4563ED050BB7E502000A086C
:1058A800938545912E983E8A83270800BA893689C0
:1058B800B28482878545EFD0EFC52A8419E1EFF0DD
:1058C800FF942285F2406244D2444249B249224AB6
:1058D800056182808945EFD0EFC32A847DF1268552
:1058E800EFF08F94F9BF9145EFD0CFC22A8471F9B8
:1058F8005286CE854A85EFD08FB9EFF03F91EFF011
:105908009F8EEF70D05F75BFA145EFD0AFC02A84DE
:105918004DF95286CE854A85EFD06FB72685EFF0D0
:10592800AF90EFF04F8FEF70104061BFB145EFD0EF
:105938006FBE2A8459F55286CE854A85EFD02FB599
:105948002685EFF06F8EEFF00F8DEF70D03D75B7B5
:10595800094485BF79714ECEAE896C0022D426D217
:105968004AD006D62A89B284EF0070752A840DE1E0
:10597800CE854A85EFC0FF952A8419E93245B726B6
:10598800010026879386C62C2D468145EF10000E10
:105998002285B250225492540259F24945618280BC
:1059A80079714ECEAE896C0022D426D24AD006D662
:1059B8002A89B284EF00B0702A840DE1CE854A8529
:1059C800EFC05F9F2A8419E93245B7260100268770
:1059D8009386263B4D468145EF1040092285B250FB
:1059E800225492540259F24945618280397126DA6B
:1059F800AE844C0022DC4AD84ED652D406DEAA89A0
:105A08003289368AEF00B06B2A8431EDA6856303AC
:105A1800090283D704002C002314F10083D7240043
:105A28002315F100930720302316F1009307800215
:105A38002307F1004E85EFC0BF862A840DE559463D
:105A4800A6851305A1002304210197E0FE1FE78026
:105A5800C0F11245B726010052879386662725466E
:105A68002C00EF10A0002285F2506254D254425903
:105A7800B259225A21618280797126D2AE846C0093
:105A880022D44AD04ECE06D6AA893289EF00306396
:105A98002A840DE1A6854E85EFC09F852A8419E9E1
:105AA8003245B72601004A879386A62E3546A68535
:105AB800EF00D07B2285B250225492540259F24909
:105AC80045618280BD47638CF50663E9B702A54747
