:020000021000EC
:100000006FD0A1430000000000180118002801284B
:100010000228032800290129022903290429052986
:10002000062907290829002A012A022A032A042A64
:10003000052AA62AB0DA0200F20E0100F81001002B
:1000400038110100A8100100961001006E3900203F
:100050005C110100261201004E120100A8130100DC
:1000600034140100020E0100320D01009C0D01004C
:100070005E0D0100D4170100AA39002056110100BD
:1000800090150100449D0200029F0200749F02002F
:10009000D65F0200E65F020086FC010042F001002C
:1000A0000CA70200BE1501001C6602008AAE01000A
:1000B00010AF010068AF01005C1D0100A81D010028
:1000C0001E1C0100C86E0100CA6901007A77010098
:1000D000467B0100EE7E0100405C0100DE5B01001A
:1000E000C45F01008C5C0100B45B0100385C01005E
:1000F000665B0100085D0100605D0100105D0100AC
:10010000145D0100B05D0100685D01009A5D0100B1
:10011000BC620100C4620100045D01000C5D0100CD
:10012000AC5D0100C0620100605E0100F863010087
:10013000E68C0100608D01008E8D0100847001004D
:1001400096700100B870010022560100EA560100C5
:10015000425701005C390100D2340100D24F010046
:1001600044350100264F0100CCBB020050B902000B
:100170002EC302008CCF0200C0CE0200FED10200CE
:10018000FAD1020094AC020092D2020006AA020048
:1001900022D2020034C802004EC8020072C8020017
:1001A00002D30200F8CC02008ECC020072D302000F
:1001B00014AC02009CAC0200C0AC020062AC0200B5
:1001C000387C0200046B020052710200E46B0200F2
:1001D00044760200ACA70200AAA6020036AA0200DA
:1001E0004C1901007661020000660200D26602002E
:1001F000CC920200FA920200749302004A74010049
:10020000F67B0200BC760200506E0200EC78020021
:10021000BC6A0200A814010034620200987E020049
:10022000FE80020046810200AC7F02007A130100CA
:10023000B27101000000000000000000000000009A
:100240006373B60082801C419105110523AEF5FE53
:10025000C5BF938701B51387C1FF6373F700828021
:0802600023A007009107D5BFA0
:1002680049C5AA870145C1C58D07C207C183F19B4E
:10027800C207C183130740036366F70203A581B56C
:1002880083A601B56393A60203A781D3014525C3BD
:100298004111C20706C60545DD8D0297B2400145EA
:1002A8004101828003A541B5E1BF0357650005EF11
:1002B800035745006369F702B306F74021466370A8
:1002C800D6021041938687001D8FAA96611790C2A7
:1002D8002392E6002393060014C12312F50023138A
:1002E800B50021058280084171BF01458280828066
:1002F80009C903A881B583A501B50147C28763E38E
:10030800B70082809443636DF50663EBA6061386F7
:100318008700E368C5FE03D56700216605066317F5
:10032800C50003C681C10506238CC1C023930700FD
:100338006383070303A641B5630FF60003566700FE
:1003480019EA83D7470014C383564700B697A10715
:100358002312F700BA879843E305B7FA83A641B595
:10036800E301D7FA83566700C9FE83D647000356D0
:1003780047001843A106B2962392D70098C38280FB
:100388003E87B687ADBF19CDB71700401307700574
:100398002380E704130780FA2380E7042396A70243
:1003A80023800704828019C1814799E982803387B5
:1003B800F500834607003307F50085072300D700BB
:1003C800E397C7FEE5B719C1FD5781E9828091051A
:1003D80003A7C5FF1105232EE5FE7D16E319F6FEDA
:1003E800F5B7797126D283A741D606D622D44AD04A
:1003F8004ECE52CC938441D681C7829723A0040065
:10040800DC4089CB03D541B6BD3FDC40829703D59C
:1004180061B6953F9C4063990714938741F483C75D
:100428005700138941F4858B85C303477900A302DC
:100438000900914763FAE7002D2383477900F917EC
:100448008A07A6979C43829783C741F9918B89C7EE
:10045800973002E0E78060ED9C4491C382979386D1
:1004680041D403A701B603C61600138A01B6138444
:1004780041D48347040093961700BA9683D60600A2
:10048800638C060C8347040063F2C70686073E9711
:10049800835507002310070003D541B62EC6E5355E
:1004A8000345040083A741B713172500B245BA973F
:1004B8009C438297AA8903D561B6F1358347040026
:1004C8001397170083270A00BA9703D70700B3E9E1
:1004D800E900239037018347040003471400850788
:1004E80093F7F70F2300F40063E4E7002300040008
:1004F8009C40BDEB03A7C1B69384C1B635C78347FB
:10050800B90081CB8347790089E7973002E0E7801B
:10051800608C9C408297AA8421C91C48AA971CC851
:1005280083A701B781CF03D541B6B13D268597D0C2
:1005380000E0E780A06803D561B6B13583A7C1D2D2
:1005480085C72254B25092540259F249624A456111
:1005580017D300E06700C341850793F7F70F23001F
:10056800F400E3E8C7F039BFB2502254925402595C
:10057800F249624A456182809167B7C60040938715
:10058800373023A6F6200F100000938741D4884FF8
:1005980083A781C6316713073730F053B7071000B8
:1005A800FD17918F99833A0523A6E6205D8D8280F9
:1005B8004111B7170040985F3AC6945F3247E39CF1
:1005C800E6FE324541018280411106C6D53703C691
:1005D800C1D1058A15CA930730333307F502B337FB
:1005E800F5023983CA07938541D4D98FD8499386B0
:1005F80041D401456307F7006370F7023385E7408C
:10060800DCC9B24041018280E5473307F502B337C0
:10061800F5022583DE07C1BF37653D0809C6378562
:100628006F0813050590198D3E95DCCAD9BF0327BD
:10063800C50F8346B50083A7C1F5584393861602B4
:1006480095829043FD1693F6F60F10C3D04350C31E
:10065800904710C7D04750C7904B10CBD04B50CBCA
:10066800904F10CFD04F50CF91C6130707029387F2
:100678000702C1BF82808347E50193F7E70F91CB5B
:10068800014582800145B240224492440249410119
:1006980082808347F501EDF783460501034785000E
:1006A80099C60346650283C7D1D16367F60093777D
:1006B8000701F9D7814789CA834705158346F51489
:1006C800418BA207D58F01CB0347451583463515C6
:1006D8002207558FBA97CDD74111938681D006C688
:1006E80022C426C24AC083C64601138781D0139606
:1006F80086016186635F06029387C71313D4570088
:100708008344E70183A701EE7D5903A707086373B4
:1007180027013A899C43F5FB83A781B78297E36356
:10072800A9F63305A94026943334850013451400EF
:1007380099BF858A9387C71289CA8A071384F703E2
:100748009307D0073354F40265BF86071384F70173
:100758009307D003C5BF5D7126DC3AD203A781C5D4
:100768003ED04EC81C5F86C696C499839AC29EC066
:1007780022DE2ADA2ED832D636D442CE46CC4ACA1F
:1007880072C676C47AC27EC0858B938481C5B9CF80
:100798001C5F138441F493F7F7F91CDF83C741F416
:1007A80093F7070499CB83A781B7829708C883C7B3
:1007B80041F493F7F70B2382F1F48547A302F40081
:1007C8008347440093F7070489EB83A781C65844FD
:1007D800B8D3930700FC2302F4008307640063D7AF
:1007E800070083A741C59C432303F40098401C5F7E
:1007F8008583858BC1CBF5571CDF01000100010003
:1008080001000100010001000100010001000100D8
:1008180001000100010001000100010001000100C8
:1008280001000100010001000100010001000100B8
:1008380001000100010001000100010001000100A8
:100848000100010001000100010001000100010098
:100858000100010001000100010001000100010088
:100868000100010001000100010001000100010078
:100878000100010001000100010083A781C61307E0
:100888005004B8CB98401C5F9183858B81CFBD57AE
:100898001CDF83A781C6054723A80704938741F473
:1008A8002382E70083A741C5D8430583058B19C771
:1008B800D843759BD8C3D843799BD8C37254B640E4
:1008C800A64216438643E2545255C2553256A256A2
:1008D800125782577248E2485249C249324EA24ED4
:1008E800124F824F616173002030938741F403C730
:1008F8004700058B19EB03C72700058B19E703C7CA
:100908003700058B6DD723820700828083A741C6F5
:1009180099CB944BD04B9842518F98C294439C47A3
:100928009842D98F9CC283A781C6B7C60040A8CB7E
:100938009305C00313062003138741F483A7862079
:10094800C18393F7F70363E9F50083A78620C18382
:1009580093F7F7036366F60083474700858BF9DF53
:100968008280938741F403C74700058B19E703C7C3
:100978000700058B11C723820700A3820700828026
:1009880003C71700058B65D3FDB783A741C699CB6D
:10099800944BD04B9842518F98C294439C479842AD
:1009A800D98F9CC283A781C6B7C60040A8CBC145D2
:1009B8006546138741F483A78620C18393F7F7031D
:1009C80063FDF50083A78620C18393F7F703636669
:1009D800F60083474700858BF9DF828003A781C52E
:1009E800AA87185F1583058B25EF034515001505A4
:1009F8001377C51F19C6B386E70083C626002300F0
:100A0800D60085C583C6A1F4094593F60604B1CA84
:100A1800B386E70083C63600054693F5F60663926B
:100A2800C504E206E18663CE06023385E700834704
:100A3800150003470500A20793F70770D98F93960F
:100A48000701C18213F60640138701C619C693E64B
:100A580006802310D700014582802310F700E5BFE8
:100A68000545828001113EC42ECC83A581C636C8B7
:100A78003AC694452ACE32CA1397060142C246C0E6
:100A8800418393F81620138881C63A86938741F4E8
:100A9800638F080293F60620DDCE83C62700B708C9
:100AA800001093E616002381D70093060019B4D1ED
:100AB800930600F82382D70083A581C5D455F19AFF
:100AC80093E62600D4D59441B3E6160194C19376F3
:100AD800261081CE1376061051CA83C641F493E6D8
:100AE80016002382D1F42394070003C64700134756
:100AF800F7FF420762066186418383260800635F29
:100B0800060013161701635A0606AC520D466367B2
:100B1800B60005462382C700BC52FDFF8387C1D1BA
:100B280063DD070093170701C18763DC0704F052F0
:100B3800894763E4C700FC52FDFF9C467245E245C5
:100B48007D8F98C65246C2463247A247124882480D
:100B580005617300203083C617002394070093E6CD
:100B68001600A380D7002382070095B783C63700F5
:100B780093E61600A381D700BDB705462382C700B8
:100B880071BFDC4613960701635C0600B7071000C7
:100B9800FD17FCD2938741D4904F050690CF71BFC3
:100BA800A1675D8F59BF938701F8138601F6034645
:100BB800B60183C75701938601F8138701F6B297E8
:100BC80093F7F70F7D466361F604A300F7008347A8
:100BD8001700484B05463316F600A38AF600698EBF
:100BE80005EE03C6960113080002814633F6C702D4
:100BF8008147B355F500858993F8F70F99C96317AD
:100C0800D600A300170182808117C1B7850693F625
:100C1800F60F8507E39F07FD828003A701C7B75733
:100C280002009387079F8326070913965600635887
:100C38000600832607091396660063440600FD171D
:040C4800FDF38280B6
:100C4C0083A581D0938781D01386052223ACC1B4B0
:100C5C0003D74700938785FFBA97056523A8F1B49E
:100C6C001D05930600206364E50093563700330797
:100C7C00D60023AAE1B423A0E522E1162312D60064
:100C8C00231306001CC3998FE1172312F7002313BB
:100C9C000700828083A781B503A701B501456313C3
:100CAC00F700828083D6670081E683D647003695AD
:100CBC009C43F5B783A781B583A601B50145639322
:100CCC00F600828003D7670011E703D747006373F0
:100CDC00E5003A859C43E5B783A781B503A601B52A
:100CEC002A87B305B5406314F6003A8529A8938684
:100CFC0087009C43E369D7FEE377F7FE2E85E3E498
:100D0C00D5FEE3F2F5FE828023AC05FE1C4191E793
:100D1C00010001000CC18280BA8703A787FF6DFF19
:100D2C0023ACB7FE82801DC18346E5FF1307F00F8D
:100D3C009147639EE600411106C69730FF1FE7807E
:100D4C0020B7B24081473E854101828095473E8560
:100D5C00828001E9014582800145B2402244410173
:100D6C008280411122C42A84210542059305D004B6
:100D7C00418106C69730FF1FE78080AA71DDFD57C1
:100D8C0023200500231285002303F5002105F1B76C
:100D9C00411126C222C44AC083A7C1B506C601446C
:100DAC0001499384C1B589E7A165CD2B05C401A880
:100DBC0003C7E7FF6317A70215C8A165512E98401A
:100DCC00832784FF6316E4029CC0FD57232C04FE8A
:100DDC00230FF4FE2285B240224492440249410181
:100DEC00828011E03E8983A787FF75BF3E84E5BFF3
:100DFC00232CF9FED9BFB9C583C751D4411122C4E4
:100E0C0006C62A842E856368F400313F0D45B24036
:100E1C0022444101828083A785FF99E703C7E5FF40
:100E2C009307F00F6305F700FD3D1545CDB7238FF4
:100E3C0085FE1385C1B5C93D22852244B240A1650A
:100E4C00410139A61545828023AE01B4828083A767
:100E5C0001B799E33E85828003D727006316B7005C
:100E6C0003C70700E308A7FEDC47E5B741119397DA
:100E7C0005014AC006C622C426C2C1872E8963DE7C
:100E8C000700393711C1453521653345A900B240FA
:100E9C0022449244024941018280AA860145E5D947
:100EAC0001443D47B3578940858B8DCB83A481B6D4
:100EBC00BD4791E28147A2978E070545BE94331535
:100ECC008500131405019C40C8404180829723A0E3
:100EDC00040023A204003345240155BF0504E31389
:100EEC00E4FC0144CDBF83A781D2411122C406C6C4
:100EFC00138401B185C7829708C00840B747030027
:100F0C009387D73F3305F502B7A72600938737ECB5
:100F1C00B2403E9508C0224441018280184083A70C
:100F2C0041D5BA971CC0D1BF797126D2938741D4D1
:100F3C0006D622D44AD04ECE83C6170003A601B6DD
:100F4C00938441D4814713F7F70F6363D7089387D2
:100F5C0041F403C777009147138941F463E1E70833
:100F6C0083C741F9918BA5EF6800EFE0503F7D57A7
:100F7C00630AE50C938781D003C43701B247938988
:100F8C0081D0637EF404C44483C749016386E406BC
:100F9C00858BA9CFD147B384F40263729404973044
:100FAC00FF1FE780E0BCB24763F3F400A68703C4DD
:100FBC003901818F3384A7008387490163C40704F7
:100FCC00B707C0A86360F404B70740573E941DA848
:100FDC0085071397170032970357E7FF2DD7B250A9
:100FEC00225492540259F24945618280930790022F
:100FFC00B384F402858055B7E207E18763DC07020E
:10100C003304854003D561B69730FF1FE780A0936A
:10101C0019E03704C0A883A7C1D22285829761F159
:10102C0083278901CDDFEF502115EF50A17BEF50C5
:10103C00410875B7E37685FCB707C0A833848740B1
:10104C002A94C9B7DC44E38CA7F8138781D00347F3
:10105C004701938481D0058B1DC35144338487028F
:10106C0083C73401E3FD87F69730FF1FE78040B05C
:10107C0083C734011D8C2A948387440181B71304E0
:10108C009002338487020580E1BF2A9609E58280AD
:10109C000505A30FB5FEE31DC5FED5BF814733077C
:1010AC00F5000307070019E33E8582808507C5BF5D
:1010BC0001112E8626CAAA84131506019305F00485
:1010CC00418122CC06CE32C69720FF1FE7804075A7
:1010DC002A8419C53246A6859730FF1FE780A08861
:1010EC002285F2406244D2440561828081476314B8
:1010FC00F600054582803307F5008507B386F500B9
:10110C000347070083C6F6FFE383E6FE01458280B2
:10111C009307F6FFBE952A966313C5008280FD15D2
:10112C0083C715000505A30FF5FEFDB7814711E92F
:10113C00014582803307F50003470700E31AB7FE29
:10114C008507E319F6FE0545828003A541D582800B
:10115C0083C751D4637EF5009317150003A501B620
:10116C003E9583570500DD8D2310B5000145828027
:10117C000D458280011126CA938741D422CC4AC8DE
:10118C004EC652C456C206CE5AC07D57D8C703A409
:10119C0001B72A8A0149938441D4938A01B7938970
:1011AC0081D0184481476374EA00B307474103A711
:1011BC0049021CC409C7D84463F3E700DCC4B1E39B
:1011CC00835524008DE95C446316090423A0FA00BE
:1011DC00032BC40022859720FF1FE780606D5A8483
:1011EC0069F0F2406244D2444249B249224A924ADE
:1011FC00024B0561828003450400993F5C4081CB22
:10120C001CC483572400E1D322894044D1BF1C4421
:10121C00DDDBC5BF2326F90065BF83C751D46370DE
:10122C00F5029317150003A501B693C5F5FF3E957E
:10123C0083570500FD8D2310B500014582800D45B7
:10124C00828083C751D46364F500014582804111CB
:10125C0022C426C24AC006C62A842E89B284C53E40
:10126C0001C504C5054515A0936504F0C205C181EF
:10127C0041459720FF1FE780A05A11ED83A781D32A
:10128C0081C7A285114582970145B2402244924400
:10129C00024941018280138701B71C4385E308C3CF
:1012AC0085472326050004C523112501230085004D
:1012BC00A300F5002322050075B7BA87D84775FF40
:1012CC00C8C7F9BF5DC1397122DC26DA4AD84ED6BF
:1012DC0052D45AD05ECE66CA6AC806DE56D262CCEA
:1012EC006EC63689328AAE89AA840144394D854B43
:1012FC00F94C03A781B6131C3400937AF40F629750
:10130C001C43938D81B6A9EF13B5FA001345150054
:10131C00B3978B0063765D01930714FFB397FB00C3
:10132C0093950701C1815286293F1DC983A70D00E2
:10133C000145E29784C323A237016304090023000B
:10134C005901F2506254D2544259B259225A925A0B
:10135C00025BF24B624CD24C424DB24D2161828009
:10136C000504E31894F92145E9BF09458280411130
:10137C0022C426C24AC006C6AA842E893284D1351C
:10138C00CA852685E93409C940C10145B2402244C9
:10139C0092440249410182802145CDBF411122C4B2
:1013AC0026C24AC006C6AA842E8955342A8419C17D
:1013BC0023110500CA8526858D35014511E0194597
:1013CC00B240224492440249410182807547636BCA
:1013DC00A70483A681B6411126C293143500A696A4
:1013EC00944222C406C6AA87138481B6094595C6C1
:1013FC0013B5F7003947134515006373F700C5178C
:10140C008545B395F500C205C181493F1C40014596
:10141C00A69723A0070023A20700B24022449244BF
:10142C004101828009458280411106C60D3409C5EF
:10143C000845B240410182800145E5BFF54763ECA8
:10144C00A70483A781B613173500BA979843894729
:10145C0021C7011126CA06CE9334F50022CCB94718
:10146C0093C4140063F3A700451505443314A4007A
:10147C00420441802EC62685A2857D378947324697
:10148C0009C5A2852685753B8147F2406244D2444A
:10149C003E850561828089473E8582802392A1B674
:1014AC002393B1B68280411106C623A6A1B602953C
:1014BC00B24023ACA1D4014541018280994763E835
:1014CC00B70093972500938541D6BE9588C182803D
:1014DC00411106C622C426C2EFF08FF67146814533
:1014EC00138541D65D36138441D413060002814521
:1014FC00138541D4593E23A801B623A601B683C750
:10150C0041D29305101013D527008D8B3E958D4736
:10151C003305F5029947938441B735051375F50FDB
:10152C002301A4003305F5021305050F9720FF1FB7
:10153C00E780002F23A4A1B6834724001305050FD1
:10154C0088C08A073E9523A0A1B6EFF0FF8FD12C5F
:10155C00834714009840B7160100139627003A965B
:10156C00938686E714C213862700850793F7F70F37
:10157C00A300C400B24022448A07BA9794C3924491
:10158C0041018280138741D483471700834627008B
:10159C0063FED70083A641B713861700A300C700CC
:1015AC0013972700369708C33E8582809307F00F68
:1015BC00E5BF1C41638C070E41777D8FB706002079
:1015CC0089476316D70E0357450075C3411126C2D0
:1015DC001946AA849305F00F590506C622C44AC0C1
:1015EC00B13605478D47630CE50A1306C0038145E8
:1015FC00138581D0593C1306C003A685138581D071
:10160C009720FF1FE7802036138981D00357C9002C
:10161C00938781D009E7130700202396E70003C7BF
:10162C00E70001E705472387E70003C7F70001E759
:10163C006D47A387E70003C7070101E71547238818
:10164C00E70003C7170101E70547A388E70003C7B5
:10165C00570109E703C70701A38AE70003C727015E
:10166C0001E751472389E70003C7E70109E713079F
:10167C008002238FE70003C7370109E71307D00265
:10168C00A389E70003C7D40101E70947A38EE7004C
:10169C009C5781C782972395A1D41D3D8147B240A9
:1016AC002244924402493E854101828089473E850D
:1016BC008280011122CC06CE2A842EC6EFF0BF8286
:1016CC00B245F240818D33A5A50222956244137573
:1016DC00F50F05618280011122CC06CE2A842EC61C
:1016EC00EFF07F80B245F240818D33A5A5022295A3
:1016FC0062444205418105618280011122CC06CEF3
:10170C002A842EC6EFF02FFEB245F240818D33B500
:10171C00A5022295624405618280138781D01857F7
:10172C00011122CC06CE26CA4AC84EC6138441F4F7
:10173C0031CF138981D00297138741D403576700A7
:10174C00AA84938941D42DCFBA876373A700AA8743
:10175C00C207C183BA8663F3E400A686C206C182BF
:10176C00958F5147635EF7048327C90291C3829713
:10177C0085472304F400EF40117523939900F24040
:10178C006244D2444249B249056182808347840055
:10179C008DE783479400850793F7F70FA304F400B4
:1017AC00A18BF1DF85472314F4006244F240D2444C
:1017BC004249B24905616F409176A3040400F5B724
:1017CC0083478400CDDFD5B7138781D058570111DB
:1017DC0022CC06CE138481D001C72AC6029732458B
:1017EC00938781B701CD88C337450020130505B910
:1017FC005D39F24062440145056182800307440172
:10180C00635C0700138741D4232C07003747002063
:10181C00130707B498C3C9BF37470020130787B70E
:10182C00D5BF011122CC138481D0084406CE26CA20
:10183C0019E50545F2406244D244056182805C584A
:10184C00EDDB185C7DD77000854582971844B24754
:10185C00E301F7FE0345E4008357C4009305E0045D
:10186C003305F502938441D4420541819720FF1F33
:10187C00E78000FBC8CC55DD8357C4000346E40069
:10188C009305F00F3306F602EFF03F80D04C08447E
:10189C008357C40008C28345E400B385F5021C5C81
:1018AC0089818297C84C9720FF1FE7806000014513
:1018BC0023AE040041B7411122C4938781D09C47C9
:1018CC0026C206C6938441D4B1CF138481D01C5C4C
:1018DC00B1CBDC4C85E30345E4008357C40093058E
:1018EC00E0043305F502420541819720FF1FE78094
:1018FC0020F3C8CCC84C1DC58357C4000346E40074
:10190C009305F00F3306F602EFF02FF8D04C084495
:10191C008357C40008C28345E400B385F5021C5C00
:10192C0089818297C84C19C59720FF1FE78040F822
:10193C0023AE0400B240224492440145410182800E
:10194C0001114AC8938741D422CCC04F4EC652C411
:10195C0056C206CE26CAAA8AAE89328A138941D4C7
:10196C0039E0938481D09C4499E3A944BDA803C574
:10197C00E40083D7C4009305E0043305F502420567
:10198C0041819720FF1FE780A0E92A8441C1DC58E0
:10199C00B5CF83C5E40003D7C4002A868844B38539
:1019AC00E5028981829791451307A0058981939758
:1019BC002500A29783C607006396E60483C617002A
:1019CC00639F560385058A054E86A29552859720FE
:1019DC00FF1FE78040F98327C90181446387870093
:1019EC0022859720FF1FE780A0ECF24062442685F9
:1019FC004249D244B249224A924A0561828083D537
:101A0C0027006DB78327C901E38187F622859720CC
:101A1C00FF1FE780E0E991BF938781D09447A9C26B
:101A2C00985F1DCF0546631DC502411122C4138466
:101A3C0041D4504C06C60DC283C5E70083D7C700FE
:101A4C003685B385F50289810297484C9720FF1F94
:101A5C00E78000E6232E0400B2402244410182803C
:101A6C00828001114EC6938741D4DC4F22CC4AC8E8
:101A7C0052C406CE26CA2A8A2E893284938941D42E
:101A8C00B1EB938481D003C5E40083D7C4009305E4
:101A9C00E0043305F502420541819720FF1FE780E2
:101AAC0020D823AEA9002A8611E92945F2406244C8
:101ABC00D2444249B249224A05618280884419C9FC
:101ACC00DC5889CB83C5E40003D7C400B385E50299
:101ADC008981829703A5C90191461308A005FD557C
:101AEC0093D72600C207C183139727002A97034672
:101AFC000700631B060383481700035627006393F4
:101B0C004803B306D64063CD260185078A073E9568
:101B1C004A86A2859720FF1FE780E0E4014579B74C
:101B2C00A300B700B2866DBF138681D08345E60053
:101B3C000356C600B385C502338626011106E3E6BB
:101B4C00C5F613063900719A1106B29623000701E7
:101B5C00A30047012311D7004DBF83A601D68DCE1C
:101B6C0091471306A0059305F00F89838A07B69752
:101B7C0003D7270003C5070009830A073697631D9F
:101B8C00C500034517006316B500035727002391C2
:101B9C00E70083D72700D1BF0145828083C70500AA
:101BAC002300F50083D72500A300F50083D725007B
:101BBC00A1832301F50083C74500A301F50011455E
:101BCC00828023A001B823AE01B6828029C14111C5
:101BDC0026C206C622C4AA8401458DC52E84B7E54B
:101BEC000200228541469385858F9720FF1FE78051
:101BFC0080D783C7040005452306F40083C714006F
:101C0C00A306F400B2402244924441018280014573
:101C1C008280011122CC26CA06CE0947AA843284BE
:101C2C006381E50441468147639BC500638FE600F1
:101C3C006397B6000DA841478147638EE600F240DA
:101C4C006244D2443E85056182808A852285BD3FEF
:101C5C0041468A8519A88A85953F41468A85228501
:101C6C0031A0E39AB6FC2E86A2852685EFF00FC82C
:101C7C00AA87F1B723AEA1B6828023A0A1B8828037
:101C8C00011122CC0354650006CE26CA4AC84EC6A2
:101C9C0041C083298500AE842A8803C90900814785
:101CAC0013178901618763550702B147054563FA2C
:101CBC00870451144204035528004180338789005E
:101CCC00A2864E868545EFB0901FB337A0008507DE
:101CDC007D1413556900420405891379F903418079
:101CEC002380F400A380A400238124012392840088
:101CFC00014719C01387190098C409476383E7008B
:101D0C000145F2406244D2444249B24905618280A5
:101D1C000545C5BFC167F917630AF502D94763F7D3
:101D2C00B702011122CC2EC606CE2A84EF70501CAD
:101D3C00B2456368B50022856244F24005616F903C
:101D4C00601FF24062440545056182800545828032
:101D5C00C167F9176314F5006F709019411106C62D
:101D6C00EF90400D11E15D45B240410182809147F9
:101D7C006394F502834705002300F6008347250092
:101D8C0003471500A207D98F2311F60083473500AE
:101D9C0001452302F6008280114582804111814564
:101DAC0022C426C206C6AA84312D2A8419E583A72B
:101DBC00C1B781C7F945268582972285B240224456
:101DCC0092444101828039714ED656D25AD006DEE9
:101DDC0022DC26DA4AD852D4AA8A2E8BB28941EF59
:101DEC0036C6BD379145EF701020AA844D492DC9D8
:101DFC00B246054A238034010544630A0B00B685BC
:101E0C0013851400029B0505131405014180E2099A
:101E1C0093D9894163D30902C1455685EF90800E51
:101E2C00654905E933868400A2852685EFB0A04D6F
:101E3C002A8905E131044204418091472C085685DA
:101E4C00231CF10026CE231D8100EF8010252A894A
:101E5C0001C963070A0026859720FF1FE78040A56C
:101E6C00F25062544A85D2544259B259225A925A6B
:101E7C00025B21618280BA84014AADBF011122CC80
:101E8C0026CA4AC84EC606CE2A893284B689253F50
:101E9C00AA8419ED83A701B881CF05476317E40025
:101EAC0003C4090005041374F40FA2854A858297B4
:101EBC00F240624426854249D244B249056182808F
:101ECC00AE86B725010001470546938585BA7DB7D7
:101EDC0083D705002300F50083D70500A183A30059
:101EEC00F5000945828083D705002300F50083D7D0
:101EFC000500A183A300F50083D725002301F5007D
:101F0C0083D72500A183A301F5001145828083D7D7
:101F1C0005002300F50083D70500A183A300F5007D
:101F2C0083D725002301F50083D72500A183A301C6
:101F3C00F50083C755002302F50083C76500A30293
:101F4C00F50003D58500190542054181828083D7B0
:101F5C0005002300F50083D70500A183A300F5003D
:101F6C000945828083D705002300F50083D705003F
:101F7C00A183A300F50083D725002301F50083D7A7
:101F8C002500A183A301F5001145828003D54500EE
:101F9C00060542054181828083D705002300F500A8
:101FAC0083D70500A183A300F50003D525000905FF
:101FBC0042054181828083D705002300F50083D739
:101FCC000500A183A300F50083D725002301F500AC
:101FDC0083D72500A183A301F50003D54500110586
:101FEC0042054181828083C705002300F500054529
:101FFC00828083D70500411122C406C62300F50058
:10200C0083D705002E841105A183A30EF5FE83D77B
:10201C0025009505230FF5FE83D7D5FFA183A30FCC
:10202C00F5FE03C6F5FF9720FF1FE780C09303451D
:10203C004400B24022441105410182808947639CCF
:10204C00F50083471500034705000145A207D98F0A
:10205C002310F60082801145828003D70500D947F2
:10206C0063FEE702011122CC06CE2EC62A84EF7045
:10207C002068B24683D70600636DF5002285624462
:10208C00F240B7250100014709469385C5ED05616E
:10209C001DBBF2406244094505618280094582807E
:1020AC0091479DC583460500FD15C2058547C18135
:1020BC006392F60213D725008D89914791E99147D8
:1020CC0001CB05052301D6002310E60048C2814749
:1020DC003E85828009479147E39CE6FEC94733D78A
:1020EC00F502B3F5F502D1BFAE86B7250100014765
:1020FC001146938525EFC1B993F7350091EB898192
:10210C00914789C52310B60048C281473E8582801D
:10211C009147EDBF03C745008947631AF7020111C8
:10212C0022CC2A84C84506CEAE86014719C52EC6D8
:10213C009D45EFE07FBAB2462A8722856244F24081
:10214C00B725010019469385A5F10561ADB909457F
:10215C00828099E111458280834705000547231150
:10216C00F600E379F7FEFD1593F5F50F33D7F5027D
:10217C00B387E702E390F5FE050548C22310E6009D
:10218C000145828083C745000947AE866385E70019
:10219C0041476399E700B725010001472146938524
:1021AC00E5FF15B1094582802310B60091E1014588
:1021BC0048C201458280AE86B725010001472946F9
:1021CC009385A5F509B12310B60091E1014548C2EC
:1021DC0001458280AE86B7250100014731469385C3
:1021EC0005F7D5B62310B60091E1014548C201456B
:1021FC00828003D74500854763FDE702011122CC9D
:10220C002A84884106CE0DC12EC68545EFE0DFAC91
:10221C002A8722856244B246F240B725010039462E
:10222C00938585F9056145B6F2406244094505611F
:10223C0082800945828091479DC5034705008D46E4
:10224C00914763F2E602FD15C205C181B3C6E502F2
:10225C003308D7026399050105052310D600231115
:10226C00E60048C281473E85828083C74500094706
:10227C00AE866385E70041476399E700B725010007
:10228C00014741469385E5FF3DBE09458280B33544
:10229C00B000139525008280011122CC26CA06CEEF
:1022AC0003C785008547AA842E8449466310F7022C
:1022BC0045348357240049151306200963C8A70029
:1022CC00F2406244D2440945056182800347940080
:1022DC0085476314F70013660604484011C58D4505
:1022EC0032C6EFE07F9F3246A2866244F2402A87D4
:1022FC002685D244B7250100938545FA0561E1B4E2
:10230C008D4763FFB7028347150003470500F1159E
:10231C00A207D98F2310F600834735000347250009
:10232C00C205A207C181D98F2311F6002312B60072
:10233C0089C5110508C60145828023240600E5BF26
:10234C0011458280011122CC2A84884506CEAE86A6
:10235C0011C52EC69545EFE03F98B2462A872285D7
:10236C006244F240B72501005946938525FC05616E
:10237C006FF07FA5B335B000139525008280AE8633
:10238C00B725010001476146938525FF6FF0BFA378
:10239C008547114563F4D702834716008345060031
:1023AC00A207CD8F2310F7009387E6FF2311F700C8
:1023BC0089476386F600090650C3014582802322B3
:1023CC000700E5BF01478146794681456FF0BF9F05
:1023DC0083D705002300F50083D70500A183A30054
:1023EC00F5000945828083C7250005472300F500C9
:1023FC0003D505006397E7000A05050542054181F1
:10240C008280C9473305F502CDBF03D505000A0507
:10241C0042054181828083D725002300F50003D536
:10242C00050083D725003305F502050542054181DA
:10243C00828003D50500828003D50500828003D5F8
:10244C000500828083D725002300F50003D5050005
:10245C0083D725003305F5020505420541818280AD
:10246C0083D705002300F50083D70500A183A300C3
:10247C00F50083D725002301F50083D72500A18320
:10248C00A301F50003D54500110542054181828069
:10249C0083D705002300F50083D70500A183A30093
:1024AC00F50003D525000905420541818280894745
:1024BC001145639BF60083471600834606000145D1
:1024CC00A207D58F2310F700828003D70500D947C8
:1024DC00AE8663FAE700B725010001470D469385E8
:1024EC00C53D6FF0BF990945828011456393A602E3
:1024FC0083471600834606000145A207D58F23109B
:10250C00F7008347360083462600A207D58F231198
:10251C00F700828083C725000547FD1793F7F70F57
:10252C006361F70483D705008DCF011122CC2A8477
:10253C00C84106CE15C12EC68945EFE0EFF92A87B2
:10254C0022856244B246F240B725010015469385B8
:10255C00253F05616FF09F92F24062440945056189
:10256C008280094582809547114563F9D706411150
:10257C0022C426C24AC006C683471600BA84034743
:10258C000600A2073284D98F2390F40083473600CB
:10259C000347260093054400A207D98F2391F4002A
:1025AC0089472382F4000946138554003689971015
:1025BC00FF1FE780403B9307A9FF2394F400994742
:1025CC00631BF90023A60400B24022449244024942
:1025DC000145410182801904C0C4FDB7828083D7B4
:1025EC0005008DCF011122CC2A84C84106CE15C11D
:1025FC002EC68545EFE04FEE2A8722856244B2460F
:10260C00F240B72501001D469385654105616FF0C9
:10261C00FF86F2406244094505618280094582804B
:10262C0099476395F6048947411106C62302F700C2
:10263C008347160083460600B285A207D58F231068
:10264C00F700834736008346260003464700A2075F
:10265C00D58F130557002311F70091059710FF1F15
:10266C00E7806030B240014541018280D14711457D
:10267C006394F600C1474DBF828083D705008DCF90
:10268C00011122CC2A84C84106CE15C12EC689451B
:10269C00EFE08FE42A8722856244B246F240B725E8
:1026AC00010025469385254205616FF02FFDF24010
:1026BC00624409450561828009458280894711453C
:1026CC00639BF60083471600834606000145A2076C
:1026DC00D58F2310F7008280011122CC2A84C841A7
:1026EC0006CEAE86014719C52EC68545EFE0CFDE76
:1026FC00B2462A8722856244F240B72501002D4656
:10270C009385E54305616FF06FF711456393A6025E
:10271C0083471600834606000145A207D58F231078
:10272C00F7008347360083462600A207D58F231176
:10273C00F7008280011122CC2A84C84106CEAE86D5
:10274C0011C52EC68545EFE02FD9B2462A872285C2
:10275C006244F240B7250100354693854544056136
:10276C006FF0CFF193F71600114589EB894763871A
:10277C00F60085822312D70010C301458280011117
:10278C0022CC2A84C84106CE15C12EC68545EFE061
:10279C00AFD42A8722856244B246F240B7250100A5
:1027AC003D469385A54405616FF04FEDF2406244C0
:1027BC0009450561828083D705008DCF011122CC9C
:1027CC002A84C84106CE15C12EC68945EFE0CFD06C
:1027DC002A8722856244B246F240B725010045465D
:1027EC009385054505616FF06FE9F2406244094538
:1027FC000561828009458280854763FCD7022304EA
:10280C00A700A304B7008347160083450600A20760
:10281C00CD8F2310F7009387E6FF2311F70089472C
:10282C006386F600090650C3014582802322070007
:10283C00E5BF11458280014781464D4681456FF0C9
:10284C00EFE38D47114563FBD702834716008345A1
:10285C000600A207CD8F2310F7008347360083456F
:10286C002600A207CD8F2311F7009387C6FF2312F2
:10287C00F7006386A600110610C701458280232449
:10288C000700E5BF011122CC2A84884506CEAE860E
:10289C0011C52EC69545EFE02FC4B2462A87228576
:1028AC006244F240B72501005D469385C54605613B
:1028BC006FF0CFDC854711456397F6008347060020
:1028CC0001452300F700828001478146654681451A
:1028DC006FF0CFDA011122CC2A84C84106CEAE8625
:1028EC00014719C52EC68D45EFE00FBFB2462A87AA
:1028FC0022856244F240B72501006D469385C54997
:10290C0005616FF04FCC011122CC2A84C84106CE50
:10291C00AE86014719C52EC68D45EFE0EFBBB2461A
:10292C002A8722856244F240B725010075469385BB
:10293C00C54905616FF02FC9011106CE2EC6EF8077
:10294C00004C01C9B245F2400355250005616FB03A
:10295C00007EF240494505618280A38601BA238638
:10296C0001BA23AA01B823AC01B823AE01B823A045
:10297C0001BA23A801B823A601B8938701D8370759
:10298C00B40098C33747A000D8C33707100093068C
:10299C00070A94C7B7065000C106D4C793060705AB
:1029AC004107D8CB3707D007410798CF37070F001F
:1029BC0098D337C70700130707B8D8D3416794CB10
:1029CC0093060701130717F8D8D7417723AE0700F2
:1029DC0094D798DB8280011126CAAA84214522CC87
:1029EC0006CE2E8432C636C43AC2EFE08FB61DC96D
:1029FC00A24612473246930700FD2300F500994783
:102A0C00A30095002301F5002303D500A303E500E3
:102A1C002312C500AA8522856244F240D244056186
:102A2C006FE06FBDF2406244D2440561828023AAFC
:102A3C00A1B8828023ACA1B8828023AEA1B88280D9
:102A4C0023A0A1BA8280011122CC4AC806CE26CA84
:102A5C002A890144B30489006368B400F2406244DB
:102A6C00D2444249056182802EC6EFE0CFC793174E
:102A7C000501C183A183B2452380F40093071400A0
:102A8C0093F7F70F850463F9B700CA9709042380FD
:102A9C00A7001374F40F7DBF3E847DBF411122C487
:102AAC00138441DB03556400C16706C6FD17630B35
:102ABC00F50003C601C4938541BAEF80001FFD5792
:102ACC002313F400B24022444101828009C9251528
:102ADC001375F50F1335850E1345150082800145CE
:102AEC00828023800500F94763E2C708797122D4FC
:102AFC0026D24ECE56CA5AC806D64AD052CC5EC63C
:102B0C003684B289AE8A2A8B814463FF3405B307BD
:102B1C00940003CA0700138914001379F90F630595
:102B2C000A04B3072A0163C1F904B307240183CB58
:102B3C0007005E85613F0DC99307FAFF2380FA00F9
:102B4C0063906B03130519002295B25022549254D2
:102B5C000259F249624AD24A424BB24B45618280D9
:102B6C00D29493F4F40F55B70145C5B70145828053
:102B7C00011122CC26CA4AC84EC6938741DB06CE29
:102B8C002E89D0CB8CCBC8C7AA8441469305F00FB5
:102B9C004A85EFE0AFD98549138441DB63173503D0
:102BAC000848C1454D3541469305F00F2685EFE0A9
:102BBC00EFD705496313250348446244F240D244DD
:102BCC004249B249C1450561BDBD414681454A8571
:102BDC00EFE0CFD5E31935FDE1B7414681452685B8
:102BEC00EFE0CFD4E30A25FDF2406244D2444249DF
:102BFC00B24905618280011122CC26CA4EC6AE8430
:102C0C00AA8913060002138541DB814506CE4AC80A
:102C1C00EFE0AFC7138941DBA38191C4A301390154
:102C2C00EFB06052138441DB854719C18147494598
:102C3C002300F400F2406244D2444249B249056197
:102C4C008280814781CD19C98547631BF50083C7F5
:102C5C00550093E707FCA382F50085473E858280EB
:102C6C0089476317F50083C7550093F7F703E5B75A
:102C7C000D478547E314E5FE03C755001377F703AB
:102C8C0013670704A382E500D1BF81478DC105C13D
:102C9C0003C755009306000C85471377070C630890
:102CAC00D700930600048D476303D70089473E8500
:102CBC008280411122C4005D06C626C21DC8AA84AA
:102CCC00085009C59710FF1FE78080BE485009C502
:102CDC009710FF1FE780C0BD085409C59710FF1F50
:102CEC00E78000BD22859710FF1FE78060BC23ACF6
:102CFC000402B2402244924441018280938741DB1A
:102D0C0009E903C727001385870111C7138541B84B
:102D1C00828013858701828003C561DB828003A5D5
:102D2C0001DC828003A541DC828083A781DC88439F
:102D3C008280938741DBD44B9842050798C203C528
:102D4C0037009307F00F6305F50091656FE04FC0F6
:102D5C008280011122CC06CE2E8432C6EF8000195F
:102D6C009147B245631EF50083A701BA85C303A33F
:102D7C000700630D030022856244F2400561028363
:102D8C0083A781B981C703A34700E5B7F24062442A
:102D9C00054505618280011122CC2A84035545002A
:102DAC0006CE26CA4AC84EC6EF70107D35C52A8994
:102DBC00834405008349C500ED3D4A85EF80506B87
:102DCC0003554400EF80000E1389C1BA83470900F4
:102DDC00A1CB6397970483C5D1BA2685EFF0DFB5F5
:102DEC0019E12300090003554400EF80201091479E
:102DFC00631DF500938741DB8356440003D76700BE
:102E0C006395E6007D572393E700F2406244D24479
:102E1C004249B2490561828081499304F00F6DB734
:102E2C009307F00FE381F4FC8346640003564400DF
:102E3C00034524004E87A685EFF0FFB96DB7797175
:102E4C005EC6AA8B2E8552CC56CA5AC806D622D438
:102E5C0026D24AD04ECEAE8A328B368AEF70D071E3
:102E6C0079CD045D2A89E1CC9C50614599C3130549
:102E7C0040039C5481C751054205418163050A00FA
:102E8C00710542054181DC5081C7590542054181DC
:102E9C00EFD03FEC2A8445C561468145EFE0EF9EBB
:102EAC0083C901DB6394090083490900930700FD82
:102EBC002300F400A947A30074012301F4002303A9
:102ECC0064018C50231254011305840191C908C468
:102EDC007146930A44039710FF1FE780C0A85685DC
:102EEC008C5491C948C45146930A45019710FF1F51
:102EFC00E78060A75685630C0A0008C87146D28526
:102F0C00930AC5019710FF1FE780E0A55685CC50AA
:102F1C0099C548C859469710FF1FE780C0A4A285E1
:102F2C004E85EFD05FED2254B2509254F249624A72
:102F3C00D24A424BB24B4A85025945619DBBB250B5
:102F4C00225492540259F249624AD24A424BB24B31
:102F5C004561828001114EC6AA892E854AC806CECB
:102F6C0022CC26CA2E89EF70306121C583C401DBC7
:102F7C0099E0834405001945EFD0BFDD2A8415C9BB
:102F8C0081451946EFE06F90930700FD2300F40094
:102F9C00B947A30034012301F40023122401A285B4
:102FAC006244F2404249B2492685D24405616FD051
:102FBC009FE4F2406244D2444249B24905618280A6
:102FCC0039715ECEAA8B2E8526DA4ED652D456D2C5
:102FDC005AD006DE22DC4AD8AE84328BB68A3A8AC4
:102FEC00BE8942C6EF70505921C92A894145EFD09C
:102FFC005FD62A8431C141468145EFE00F8903C574
:10300C0001DB19E103450900930700FD2300F400DF
:10301C00BD472301F400B247A300740123129400AE
:10302C0023046401A304540123054401A3053401C2
:10303C005CC4A285EFD03FDCF2506254D2544259AA
:10304C00B259225A925A025BF24B216182807971F9
:10305C0026D2AA8439454AD04ECE06D622D42EC6C4
:10306C00B2893689EFD0FFCE21C1B2459307000D4E
:10307C002310F500B1472A842312B5002301F50073
:10308C00CE85190519469710FF1FE780C08D2306C2
:10309C002401A2852254B2500259F24913F5F40FBF
:1030AC00925445616FD03FD5B2502254925402597C
:1030BC00F24945618280411126C2938441DB03C7EA
:1030CC00340006C622C44AC09307F00F630AF70403
:1030DC002A893945EFD0FFC72A8439C1930700FDEF
:1030EC002300F500A300250123010500938584012D
:1030FC000D0519469710FF1FE780E08683D78400E3
:10310C00A28503C534002315F40083C714002306DD
:10311C00F4002244B2409244024941016FD0BFCD29
:10312C00B24022449244024941018280011156C2AC
:10313C00AA8A314526CA4AC84EC652C406CE22CCEB
:10314C00AE84328AB6893A89EFD0BFC039C52A8499
:10315C002685EF7070421DCD03450500930700FDD9
:10316C002300F4009D47A30054012301F400231213
:10317C009400231344012314340123152401A28544
:10318C006244F240D2444249B249224A924A056111
:10319C006FD07FC603C571DBD1B7F2406244D24415
:1031AC004249B249224A924A05618280397162CC05
:1031BC002A8C594526DA4AD84ED652D456D25AD0F1
:1031CC005ECE06DE22DCAE8432C636C4BA8B3E8BB3
:1031DC00C28A468A8359010403494104EFD07FB760
:1031EC0035C53246930700FDA2462300F5009547EE
:1031FC00A301C500A30085012301F5002A8419460B
:10320C001105A9C2B6859700FF1FE780C07523067C
:10321C006401230A24012315740123175401231874
:10322C00440123193401A2856254F2504259B25917
:10323C00225A925A025BF24B624C2685D25421617F
:10324C006FD07FBB8145EFD05FE4D1B7F2506254B1
:10325C00D2544259B259225A925A025BF24B624CE6
:10326C0021618280411122C4138441DB83472400F5
:10327C0006C626C29DC7AA851946138541B8970074
:10328C00FF1FE780406E03452400938541B8EFF0A3
:10329C005F9B2244B240138541B8924441016FA018
:1032AC00506BB2402244924401454101828041114D
:1032BC0026C2938741DB06C622C44AC003C7370027
:1032CC009307F00F938441DB6302F7042A892945A5
:1032DC00EFD03FA82A841DC9930700FD2300F500F9
:1032EC00A147A30025012301F50083C72400938582
:1032FC0041B8A301F500194611059700FF1FE7809F
:10330C00806603C53400A285EFD0FFAE03C744002E
:10331C0085476315F70283A7C1B981C79C4791C341
:10332C0082972244B2409244024903C501C45D66AF
:10333C0013060670914541016FE06F83B240224441
:10334C009244024941018280797122D406D626D258
:10335C004AD04ECE52CC56CA09445DC92A8903556F
:10336C000500AE895144EF703021AA8455C1938772
:10337C0001C483C737008546BA8AFD1793F7F70F48
:10338C00494463F7F6080347C500A1476314F700E7
:10339C00639009089C5C4544A5EF91659385457144
:1033AC001305C0029700FF1FE780804788DC2A8A3C
:1033BC004D4439CD1306C0028145EFD01FCD835744
:1033CC00090093064A0036852311FA0071469305CD
:1033DC00490036C69700FF1FE780E0588947230055
:1033EC00FA0003C5C400B2460356090083C501C4E4
:1033FC00611513351500EFA0C01F2A8463860900E0
:10340C00CE852685EF80B03101C42685EFF07F8A0A
:10341C002285B250225492540259F249624AD24A3D
:10342C004561828083C731C40547FD1793F7F70FB9
:10343C006378F708894751C6011122CC26CA4AC8BD
:10344C004EC652C406CEAA89368AB2842E89EF7033
:10345C00B0122A84D14729C9485509C59700FF1FC6
:10346C00E7800045F1452685EFD09FC448D4CD4771
:10347C0005CD8346C40021478147639FE600630D59
:10348C000A000347A5010356050193062501AA85E9
:10349C004E85EF802021AA8703474400630F090063
:1034AC00136767002302E400F2406244D2444249AD
:1034BC00B249224A3E850561828013674700DDB719
:1034CC00C9473E858280E14763EAA7009317150040
:1034DC00138501D83E9503550500828041657D1505
:1034EC008280011122CC2A842E8526CA06CEAE8477
:1034FC00EF7090080DCDB7470F009387F723094560
:10350C0063E2870281450A854146EFD01FB8A68544
:10351C00231081000A85418023018100A301010051
:10352C00EF90B06FF2406244D2440561828049450D
:10353C00D5BFA380A1C482806FA0C004797152CC86
:10354C002A8A328522D426D24AD04ECE56CA5AC89E
:10355C005EC606D662C4AE8BB28A368BBA843E89FE
:10356C00C2894684EF70500115C92A8C63140A0273
:10357C0013774B008347450015CF93E727012302B0
:10358C00FC008DEC631C0902639A090205E8ED9BB3
:10359C002302FC00832B8C03639F0B06B250225436
:1035AC0092540259F249624AD24A424BB24B224CD3
:1035BC0045618280F59B93E70701D1B793E74700FC
:1035CC002302FC0001CC1C484146A2852324FC02AA
:1035DC0013058C019700FF1FE780E03863910B0205
:1035EC00D5D80325CC0209C59700FF1FE780402CD6
:1035FC00F1452685EFD0DFAB2326AC0261BFE30B90
:10360C0009F80325CC0209C59700FF1FE780402A63
:10361C00F1454A85C5B79DC483A70B0299EB91650B
:10362C009385357171459700FF1FE780601F23A0BC
:10363C00AB0203A50B0219C57146A6859700FF1FA7
:10364C00E78060326388090283A74B0299EB91658E
:10365C009385257159459700FF1FE780601C23A2B5
:10366C00AB0203A54B0219C55946CE859700FF1F27
:10367C00E780602F1DC483A78B0299EB916593851E
:10368C00157151459700FF1FE780801923A4AB02E9
:10369C0003A58B0219C55146A2859700FF1FE78031
:1036AC00802C2254B2509254F249B24B224CCA860E
:1036BC005A860259424BD6855285D24A624A456196
:1036CC006FF0EFF7011126CA52C406CE22CC4AC8BD
:1036DC004EC62A8AAE84EF70206A35C1AA89394554
:1036EC00EFD02FE72A8421CD03C901DB6314090035
:1036FC0003C909009307000D2310F400AD47230103
:10370C00F400938569001305340019469700FF1FD8
:10371C00E780602593F71400858085882306F400E4
:10372C00A306940023154401A2856244F240D244BE
:10373C00B249224A4A85424905616FD0CFEBF2402B
:10374C006244D2444249B249224A05618280411105
:10375C0022C41384C1B8084006C619C59700FF1FC0
:10376C00E780001523200400B240224441018280EE
:10377C00011106CE22CC26CA4AC82EC6EF70C05FF5
:10378C0029CDB24503C901DB0CD5AA846314090009
:10379C00034905004145EFD0CFDB2A841DCD9307AB
:1037AC00000D2310F500A5472301F50083C7540035
:1037BC00938564001105A30FF5FE19469700FF1FB2
:1037CC00E780601A9C54A285F2405CC46244D244E7
:1037DC004A85424905616FD00FE2F2406244D244FF
:1037EC00424905618280797122D406D62A842EC67C
:1037FC00EF7080580DCD8346C5001147AA87494507
:10380C006393E6029C5FB24599C383C567010808C0
:10381C00EF80C079B7D60100938666801008894581
:10382C002285EF70D06CB250225445618280514594
:10383C00DDBF83C731C40547FD1793F7F70F637AD4
:10384C00F704894721CA411122C426C24AC006C6C0
:10385C00B2842E89EF7040522A84D14705C5630883
:10386C0009008347450093E727002302F5004146F2
:10387C00A685130584019700FF1FE780C00E9C48A6
:10388C001CD48147B2402244924402493E854101F6
:10389C008280C9473E858280797122D406D62A84DB
:1038AC002EC6EF70604D01CDB2452285230EB100BE
:1038BC006C08EF804063B2502254456182805145C0
:1038CC00DDBF6F70A058C1671387E7FF6393E502F4
:1038DC0083A781B991EB494582804945B240224486
:1038EC00924402494101828003A30700E30503FED1
:1038FC000283411122C426C24AC006C6FD172A897A
:10390C002E84B2846394F50283A781B991CB9C4336
:10391C0081CB829711E5238621BBA38691BA7DBF0B
:10392C00A6854A85EFF04F8155F9F5B72E85EF70D6
:10393C00A04445D5834705000D45E39127FB22851F
:10394C002244B2400249A685924441016FA0207ED8
:10395C00E14763E6A70441677D1789476382E50465
:10396C00411122C426C206C6C547AE842A84631AF6
:10397C00F5001305C0033385A50242054181EFA074
:10398C00D00413151400138401D82295B24022449C
:10399C0023109500814792443E85410182808947DE
:1039AC003E858280011106CE2AC6EFE01FFBEF1088
:1039BC0080154D2DEF904145938741DB130700F0A7
:1039CC002391E700238207003245138701C4FD567B
:1039DC00A300D700F2402380A1C4954505616F5028
:1039EC00D05C1D7193970501CAC886CEA2CCA6CA1D
:1039FC00CEC6D2C4D6C2DAC05EDE62DC66DA6AD863
:103A0C006ED6C1872E8963D9074603C501C4EFD092
:103A1C002FB82A84138A81E5938441DB1DE021654C
:103A2C003345A900F6406644D6444649B649264A71
:103A3C00964A064BF25B625CD25C425DB25D2561DC
:103A4C008280834704001307200A639CE70083CB22
:103A5C00340003552400C1652286FD15EFF06FAFCD
:103A6C0031AA138701C4834B170013071009639302
:103A7C00E714834714001547639EE7002285EFF097
:103A8C008FB12285EFD02FAA03C501C4EFD04FB060
:103A9C002A8469B739476393E71403554400856753
:103AAC00A5076313F5040C4403CD0500631B0D003F
:103ABC00850581C919461385C1DC9700FF1FE78076
:103ACC0080EA03C7040085476316F70E63080D00F0
:103ADC00238004006A85EFF00FDE65B789472380E9
:103AEC00F400EFA0C06671BF096793072700631C41
:103AFC00F504032D8400630F0D0A83470D0089EF35
:103B0C0083472D0003471D00A207D98F2394F4008F
:103B1C0083473D00A380F40003C704008947631B5F
:103B2C00F70883470D0091C72380040003450D005F
:103B3C005DB783C5140003D584008D472380F40042
:103B4C00EF507049E5B7930757006318F5001C4414
:103B5C0003C50700EFF0AFF52DB7F977E917AA9772
:103B6C00C207C183914663EEF60083A7C1B9E38A0D
:103B7C0007F09C43E38707F022858297E31305F057
:103B8C0015A82D07631EE50083A741B9E38B07EE4B
:103B9C009C43E38807EE0965A2852D058297F9BF42
:103BAC0089671387C7006310E5021C4483C70700AD
:103BBC00E38907EC9307F00FE385FBECA2855E85A8
:103BCC00EFD06FA3D1B5B907E316F5FE83A781B982
:103BDC00E38907EADC43A285F1F365B53D476397BA
:103BEC00E7040355440089671387D700E300E5FE1B
:103BFC0013879701E30CE5FCCD07E31DF5FA03D71A
:103C0C006400C167FD17631DF70083A781B9E38AC0
:103C1C0007E6DC43E38707E60965A2854D05BDBFD2
:103C2C0083A701BAE38F07E49C43EDB71307E003C6
:103C3C00E392E7F88347240005476393E70E834735
:103C4C006400938DC1B8F1E383A70D00C5CF03CDFC
:103C5C000700A14B03457400930C8400E685EFF03C
:103C6C00CF8283474401A303A40083580401035863
:103C7C00E400035744002A86034534003EC28357B0
:103C8C002401E686EA853EC0DE87EFF02FD283471B
:103C9C00340095E7DD47835804010358E40083465C
:103CAC007400835544003EC2835724013EC066878E
:103CBC00DE8705466A85EF70A038A301A40083A7B0
:103CCC000D0081C71145EFF09FA8138DC1BA0345B4
:103CDC000D00E30805DA83C5D1BAEFE0FFC5E302B6
:103CEC0005DA8346340093071003638AF600035603
:103CFC00440083450D005E873685EFE0DFCD2386DB
:103D0C0001BA41B303CD3400A9B783A7C1B903CD20
:103D1C003400914BA1D3DC4395DF014582971DBF45
:103D2C0029476398E70883476400938DC1B8BDE7C2
:103D3C0083A70D00ADC303CD0700A14B0345740051
:103D4C00930C4401E685EFE05FF483470402A30380
:103D5C00A4008358C4010358A401035744002A86C5
:103D6C00034534003EC28357E401E686EA853EC033
:103D7C00DE87EFF0AFC383473400B1F3DD478358E0
:103D8C00C4010358A40183467400835544003EC209
:103D9C008357E40121BF03CD340045B783A7C1B9D4
:103DAC0003CD3400914BD9DBDC43C9DB0145829751
:103DBC0071B70947639CE70083A741B9E38307CC3C
:103DCC00DC43E38007CC2285829765B92D47639845
:103DDC00E70083A741B9E38607CA9C47DDB70D47C7
:103DEC006397E70022868D450355440085B9194732
:103DFC006395E7069305610113051031EF90810B74
:103E0C002C0813052031EF90E10A03566400835708
:103E1C0081010355440063E8C700835684000357AF
:103E2C00610163F7E60093050002EFA0003991B938
:103E3C006374E6002313E40063F4D7002314F40046
:103E4C000357C4008356A4000356840083556400B2
:103E5C0001488147EFA020362DB11D47E39CE7D4E4
:103E6C0003574400E3E8E7D48357640006075297EE
:103E7C00F1172310F7003DBB93F7150099CB83A7DF
:103E8C0041B989C7DC4399C3014582971345190091
:103E9C0051BE93F7250099CB83A7C1B989C7DC43E1
:103EAC0099C30545829713452900ADBE93F745008C
:103EBC000145E38907B6938741DB83C75700138419
:103ECC0041DBA1C7FD1793F7F70FA302F40095EFA1
:103EDC0083A701B999CB85472302F40083A7C1B905
:103EEC0089C7DC4399C30545829748442C08EF9059
:103EFC00403C2808EFF00FB783D721DA9145A30295
:103F0C00F40003C501C4EFD06FC91345490019BEB5
:103F1C00411122C42A84554506C6EFF0CFDAB335D9
:103F2C00A00022852244B24041016FA00024797187
:103F3C0022D406D68D472E84631FF50003D7A50027
:103F4C0083D6850003D665000345340083D5450030
:103F5C00EFF0CF9D09A889671387D700631FE5028F
:103F6C0003C5250019E58547B25022543E854561AD
:103F7C00828083A6C1B8E5DA03C6360083C5060085
:103F8C00814802C202C00148814701479106EFF007
:103F9C00EFA10545EFF0AFFBF9B71387E700E3049A
:103FAC00E5FC13873701631AE50003C5250045DDE1
:103FBC00014781460146814561BFE507E305F5FAF6
:103FCC0041677D178147E311E5FA03C75500C947DF
:103FDC00E31BF7F883D6E50003D6C5000355840030
:103FEC0083D5A500EFA0E01E21C15D45EFF0AFCD5C
:103FFC003335A000231EA100834544000355240043
:10400C007008EF60F04B8357C101B1FF0357E40018
:10401C008356C4000356A400835584000355240022
:10402C000148EFA0401781B78547231EF100E9B77F
:10403C00C1671387E7FF639CE50083A7C1B88DC3F5
:10404C0083C707000D47639BA7006FA00014FD17E3
:10405C0049476395F50083A7C1B8E5FB3A85828093
:10406C004947EDBF238C01BA23A001BC23AE01BA92
:10407C0037470100938741DD1307272C98C3374737
:10408C0001001307A72FD8C3374701001307476355
:10409C0098C737470100938701BB1307C70398C321
:1040AC00374701001307A7F3D8C38280011122CC34
:1040BC0083A701BC06CE26CA4AC84EC652C48DC3BD
:1040CC00138401BC2E8AAA84014908406312990208
:1040DC00630C0A0497F0FE1FE780807D2320040008
:1040EC00F2406244D2444249B249224A056182807C
:1040FC0093194900B3073501884709C997F0FE1F8A
:10410C00E780007B1C40CE9723A407001C40CE9771
:10411C00C84709C997F0FE1FE78080791C40BE99FB
:10412C0023A60900050955B745DD139644008145C2
:10413C00EFC0BFF5144081477D5613F7F70FE371BD
:10414C0097FA1397470036972300C7008507F5B7F2
:10415C0079714AD083A7C1BB06D622D426D24ECEC3
:10416C0052CC56CA5AC85EC6D1CFAA891389C1BBD4
:10417C00938A81BB014411ED83A601BC99CA03C685
:10418C000A002A8481479305F00F13F7F70F636633
:10419C00C708131534002105EFC0BFBBAA8401E981
:1041AC002145EFC01FBBAA8431C10144CD499307FF
:1041BC0000FD2380F4008547A38034012381F400A3
:1041CC00A381840055C49389840023A23401014A3D
:1041DC00930BF00F83C70A006373FA0039E8832747
:1041EC000900A68503C50700EFC0FFC003C50A0080
:1041FC0081456D3D0325090097F0FE1FE780406B5C
:10420C0023200900B250225492540259F249624AB6
:10421C00D24A424BB24B4561828013974700369786
:10422C00034707006305B70005041374F40F8507F3
:10423C00A9BF83A701BC93154A00BE9583C705008F
:10424C00638477032380F90083C715001385290045
:10425C007D14A380F900194689051374F40F97F0A7
:10426C00FE1FE7804070A109050A137AFA0F9DB76B
:10427C0023A20400ADB7411122C406C62A8405E16D
:10428C000945EFF04FA42A8611C503C501C4854525
:10429C00EFC03FFB0545EFF0BFC72A8401C903C53A
:1042AC0001C48545EFD08F8F22855D35B240224405
:1042BC0005454101828089671387B7006319E500C2
:1042CC0083A7C1BB95C39C4503C507006DB7138776
:1042DC00C7008147631BE5009C4503C50700854764
:1042EC0009C583A7C1BBFDF381473E8582801D7143
:1042FC0086CEA2CCA6CACAC8CEC6D2C4D6C2DAC092
:10430C005EDE62DC66DA6AD86ED6630E05268347FB
:10431C003500AA8985C7404115C05945EFF0AF9AC1
:10432C0093178501E187116C3EC20149930BF00F85
:10433C00930DEC7183C739006361F902F640664452
:10434C00D6444649B649264A964A064BF25B625C0D
:10435C00D25C425DB25D2561828083078402124784
:10436C0063CEE72A83A7C1BB138AC1BB938401BC6C
:10437C00ADCB0347040085476309F7060346840069
:10438C00930694009305F1010545EFE08FF5814705
:10439C0019C1834705008346040011476381E60277
:1043AC0003270A008D4603471700630AD70081CB09
:1043BC0019C705C98546631DD7028D8B9DC303455F
:1043CC001400930C2400E685EFE03F8CA300A400BE
:1043DC009C40AA86014D95E7034604009147631F54
:1043EC00F60C9C40639C072215A48147014565B7D8
:1043FC008946E318D7FE858BD1B713071D00137DB3
:10440C00F70F83C781BB8840E378FDFC93174D0001
:10441C003E9503460500E30276FF03461500E31EB6
:10442C00D6FC1946E68509053EC636C4EFC01FCC3E
:10443C00A246B24779D1984083460400330DF70069
:10444C00E30C0DF81147639EE6080325CD000DC55E
:10445C0003478400034605006308E608834604000E
:10446C0011476391E60A0325CD0019C597F0FE1F8D
:10447C00E780004423260D0003458400EE850505E6
:10448C0097F0FE1FE780C0390DC583460400114725
:10449C006394E6082326AD008347840093059400BB
:1044AC000505A30FF5FE0346840097F0FE1FE78079
:1044BC00804B834784006397071425B79C4095D3A2
:1044CC0083C581BB8146E38EB6F03E87C10703C529
:1044DC0007FF6304750D850693F6F60FEDB708C755
:1044EC00EDA803258D00A5B7930594000505EFC035
:1044FC00FFBF0547E314E5F65545EFE0DFFC63032A
:10450C000510C5B503258D0025D997F0FE1FE78052
:10451C00203A23240D008DB72324AD00B5BF93079B
:10452C00000D2310F500B5472301F5008347040067
:10453C00194693052400A301F50083078402150591
:10454C002303F50083471400A30FF5FE97F0FE1F1D
:10455C00E7806041034684002386C40015C213859E
:10456C00440188C89305940097F0FE1FE780A03F94
:10457C0083270A00A68503C50700EFC0DF8779A84B
:10458C0023A80400F5B783A7C1BBE38907DAEFF0D2
:10459C003FBC0145EFF0DF9755B32300C7008347BD
:1045AC001400130527001946A300F700E6853AC44A
:1045BC0097F0FE1FE780203B034584009305FC71B8
:1045CC00050597F0FE1FE780A025224705C5834609
:1045DC0004009147E395F6F048C7834784009305A0
:1045EC0094000505A30FF5FE0346840097F0FE1F0B
:1045FC00E78060378347840091E7034704008547D1
:10460C00E311F7DE83270A00E38D07DC0345840002
:10461C005105EFC00FF4AA84E31305F00509130448
:10462C0094021379F90F39B3797106D622D426D2B4
:10463C004AD04ECE52CC56CA5AC85EC662C479C154
:10464C0083473500AA8995C3444185C05945EFE09D
:10465C009FE7931A850193DA8A410149930B00FD78
:10466C00414C83C73900636EF900B2502254925406
:10467C000259F249624AD24A424BB24B224C456132
:10468C0082808387F40063CA5707138AC1BB8327D0
:10469C000A00A5C75145EFC0CFEB2A8439CD2300C2
:1046AC007501A30005002301850183C70400194689
:1046BC0093852400A301F5008387F4001505A30658
:1046CC00F50083C71400A30FF5FE97F0FE1FE780DB
:1046DC00802983C78400938594001305C400A30527
:1046EC00F400194697F0FE1FE780E02783270A00A5
:1046FC00A28503C50700EFC00FF00509C1041379AB
:10470C00F90F85B783A7C1BBADD3EFF07FA42254BB
:10471C00B25092540259F249624AD24A424BB24BBD
:10472C00224C014545616FF0AFFE83A7C1BB95C715
:10473C0003C707008D476313A70203C501C44111CA
:10474C00854506C6EFC09FC513050003EFF05FA0BB
:10475C00B240014541016FF0AFFBC9473E858280F5
:10476C00011126CA9384C1BB9C4006CE22CCB9EF62
:10477C0083C731C4A98BADC391652A849385D57148
:10478C00114597F0FE1FE780A00988C021C9A285BA
:10479C00114697F0FE1FE780001D1545EFE0BFD2D4
:1047AC002AC61945EFE03FD20347340083C661DBCC
:1047BC002A86034524006244B245F240D244333782
:1047CC00E000B336D00005616F90F0194545F2401A
:1047DC006244D244056182804945D5BF4D45C5BF71
:1047EC0083C731C4397122DC06DE26DA4AD84ED6AC
:1047FC0052D456D25AD0A18B4944638D070C83A74F
:10480C00C1BB41446398070C2A89EFF08F8B83C797
:10481C00C1C255446370F50C83A7C1B84544DDEBA8
:10482C0091659385C571294597F0FE1FE78040FF80
:10483C0023A6A1B84D4459CD2946CA8597F0FE1F31
:10484C00E780601283A7C1B883C71700D9CF2D4565
:10485C00EFE07FC72A843145EFE0FFC683C761DBF9
:10486C002A894145B337F0003ECEEFE0DFC52A8BF5
:10487C003D45EFE05FC5AA8A3545EFE0DFC42A8AE3
:10488C003945EFE05FC4AA892145EFE0DFC32ACCAC
:10489C001D45EFE05FC303A7C1B82ACA0345370023
:1048AC0093054700EFE0EFB903A7C1B8E2485248BF
:1048BC0003462700F247AA865AC6228556C452C21E
:1048CC004EC01107CA85EF90900A2A8401C50D4588
:1048DC00EFE0FFE72285F2506254D2544259B259AC
:1048EC00225A925A025B216182802545EFE0BFBDBE
:1048FC002A84294595B783C731C40145A18B99C337
:10490C00138501BB6FE00F93411122C4138481BB4B
:10491C0026C2AA8403450400854506C6EFF00FF9AC
:10492C0083C731C4A98BB5C723009400138541DD1F
:10493C00EFE0EF8F938401BC9C4099C74D45B2408A
:10494C0022449244410182800345040019E101454F
:10495C00FDB791659385B571120597F0FE1FE78041
:10496C0020EC88C061DD0346040081451206EFC0CF
:10497C00CFF18346040090408147FD5513F7F70FA4
:10498C00E377D7FC1397470032972300B7008507CE
:10499C00F5B7014523000400EFE06F894DBF4111CD
:1049AC0022C403A501B906C619C597F0FE1FE780FE
:1049BC0020F023A801B8B2402244410182800111A9
:1049CC0022CC06CE26CA8D472E846313F50603C768
:1049DC003500E94703D54500938441DB6316F700A6
:1049EC0083D764006382A706EF60003909C583573B
:1049FC0064002317F5000357A40083568400035664
:104A0C0064008355440003453400EFE02FF2035754
:104A1C00440083D764006309F7008547F240624481
:104A2C00D2443E8505618280FD572393F400F5B78F
:104A3C008967CD07631DF50083C725003147638562
:104A4C00E7004547E39BE7FCEFE04F85F9B741678B
:104A5C007D178147E314E5FC83C655004947E39F66
:104A6C00E6FA83C5450003552400300023140100E9
:104A7C00EF60E01F5DB7797122D483A701B906D628
:104A8C0026D24AD00545ADC70D45EFE0DFA3AA8479
:104A9C001145EFE05FA32A899305F1011305F0415D
:104AAC00EF60516A0347F101938741DB21CB83C748
:104ABC0027000D4789466384E700B336F00083A7CF
:104ACC0001B936C603C5370093854700EFE06F97F1
:104ADC0003A601B9B2462A878348B6000348A6004C
:104AEC009307460003462600CA852685EF90A066EC
:104AFC00B2502254925402594561828083C62700D9
:104B0C00B336D0006DBF7D57238AE1B0239201BC30
:104B1C0023A601BC23A801BC23AA01BC3757010062
:104B2C00938701DE130787BA98C337570100130721
:104B3C0067E8D8C337570100130727A898C7B7579A
:104B4C0001009387A79C23A4F1BC8280411126C24B
:104B5C0083A701B906C622C48DCF2A840D45EFC0A8
:104B6C004F9FAA8505C1930700FD2300F5008D47D3
:104B7C00A30085002301F50083A701B903C5070035
:104B8C00EFC06FA719C42244B240924441016FF0A8
:104B9C001FE1B2402244924441018280797122D4B7
:104BAC0003544500896706D626D24AD04ECE52CC45
:104BBC0056CA13876700631FE40283A701B98144B7
:104BCC0089CF1845034507001DE10547A380E70081
:104BDC000545EF90005901ED8544B25022542685CD
:104BEC0002599254F249624AD24A45618280EFF0EE
:104BFC00FFF5DDB71387970063678704938441B192
:104C0C0003C704009307F00FE308F7FC1C4511459C
:104C1C0003C90700EFC0EF93AA855DDD930700FD84
:104C2C002300F50089472301F500F977E1173E943D
:104C3C0013341400A3002501A301850003C504004F
:104C4C00EFC06F9B51BFA9078144E318F4F883A709
:104C5C0001B9CE8AD9D3184583C417008547034AB6
:104C6C000700138941DB638CF40283474900ADF7DD
:104C7C000D45EFC00F8EAA8505C1930700FD2300DB
:104C8C00F5009147A30045012301F50083A701B965
:104C9C0003C50700EFC02F96EFF07FD035BF83A779
:104CAC00C1BC91EF0145EFE01F822A8611C603C5F6
:104CBC0001C48945EFC0EFD883A701B9A9A003C6E9
:104CCC000700938617009305F1000545EFD07FE1AF
:104CDC0071D983470500858BF1D70545EFE0AFFE11
:104CEC009307B0032A8463F9A70203C501C45D6668
:104CFC00130606708945EFC08FE7130444FC23921A
:104D0C0081BC83A701B90947A380E7008347490009
:104D1C0089CB23020900D1B5130600643306C50202
:104D2C0071B75285EFF09FE24DBD79714ECE83A7DE
:104D3C0001B922D406D626D24AD052CC454489EBAE
:104D4C00938701C483C7370013F7570019EB494405
:104D5C002285B250225492540259F249624A45615A
:104D6C00828003A7C1BC414465D7034707006DD3BC
:104D7C00858B2E892A8AC1C7834709000547F917F5
:104D8C0093F7F70FE365F7FC9165938575713145E2
:104D9C0097F0FE1FE780C0A823A8A1B84D444DD9B9
:104DAC0023004501A30005002946CA85090597F093
:104DBC00FE1FE78040BB138441DB034724008D4773
:104DCC006317F704EFD0BFF52C00EF80804E28005E
:104DDC00EFE04FC9854745452302F400EFE0AFEE05
:104DEC001375F50FA302A40001443DD103C501C402
:104DFC005D66130606709145EFC06FD791BFEFE06B
:104E0C005FAC2A84EF604007E378A4F6B5BFEFF0FF
:104E1C009FC62A8415DDEFF09FB81DBF411126C235
:104E2C0083A701B906C622C44AC0A1C383C7070021
:104E3C000D44639DA70203C501C48945EFC00FD67D
:104E4C0003C501C49145239201BCEFC02FD5A38C9F
:104E5C0001DA83A701B90145A38087002244B2403F
:104E6C009244024941016F90C02F49442285B240BF
:104E7C0022449244024941018280411106C622C457
:104E8C0026C285476315F506138441BC835704007D
:104E9C00A1C703C781DB29E31307B0036369F702DA
:104EAC0003C501C48945EFC06FCF035604009307B7
:104EBC00006403C501C43306F6028945EFC06FB820
:104ECC0023100400B2402244924441018280938713
:104EDC0047FC2310F400FDB783A701B9E5D72244A2
:104EEC00B240924403C5070041016FF03FF383A722
:104EFC0001B9E9DB938701C483C73700918BF9D3E0
:104F0C0003C501C48945EFC06FC92244B240924425
:104F1C00239201BC41016FF09FA883C731C4958BCC
:104F2C00D9CFB9CD83A7C1BCD9CBFD4763EBC7089B
:104F3C0011C2C1CA411122C44AC006C626C2238A64
:104F4C00A1B036893284A1C19384C1BC88407D460E
:104F5C0081450505EFC06F938840CA8522860505FB
:104F6C0097F0FE1FE78020A08C40228523808500CF
:104F7C002244B24092440249850541016F90E01DE4
:104F8C0083A741BD55B7938441BD88407D4681457B
:104F9C000505EFC08F8F8840CA852286050597F0DE
:104FAC00FE1FE780409C8C40228523808500224494
:104FBC00B24092440249850541016F90401A49451F
:104FCC00828009458280797106D622D426D24AD0B5
:104FDC004ECE52CC8D4763FCA70009442285B250BB
:104FEC00225492540259F249624A4561828003C7A5
:104FFC0041DB4144E314F7FE938741DB83C927006F
:10500C009307F5FF93F7F70F85462E842A8993842F
:10501C0041DB63E4F60695E199452800EFD0BFA289
:10502C0003C501C4914523812401EFC02FB7A3828E
:10503C00040029CC2381340155B719468145280039
:10504C00EFC0AF8419462C002285EFC02F8A51F592
:10505C0019469305F00F2800EFC02F8319462C003A
:10506C002285EFC0AF8835F9A2851946280097F044
:10507C00FE1FE780408F014465B70144E312E5FA57
:10508C00C8442C00EF80E0222A8459BF6314090025
:10509C000144A9B72800EFE0EF9C2A8441FD8D471D
:1050AC00E318F9FE4545EFE00FC21375F50FA38227
:1050BC00A40079DD03C501C45D6613060670914535
:1050CC00EFC0EFAA21BF83C731C4918B89CF4111A7
:1050DC00138581BC06C6EFD0BF96B2407D57239D89
:1050EC00E1DA4101828001456FD09F95411122C4C4
:1050FC0003A5C1BC06C626C24AC01384C1BC19C5CF
:10510C0097E0FE1FE780C07A2320040003A541BD71
:10511C00938441BD19C597E0FE1FE780607923A0F9
:10512C000400138901C483473900958BADCB1385DB
:10513C0001DEEFD09F9083473900958B81EB4D4575
:10514C00B240224492440249410182801169930584
:10515C0069711305000297E0FE1FE780606C08C0C0
:10516C0079DD130600028145EFB03FF293055971CA
:10517C001305000297E0FE1FE780806A88C001C912
:10518C00130600028145EFB05FF0014555BF0840A2
:10519C0097E0FE1FE780C071232004004DB7014546
:1051AC00EFD0BF89DDB703C7050093762500937751
:1051BC00D70F99C29367270013188501135888419C
:1051CC0013F7F7076354080013E707089376850075
:1051DC009377770F99C2936787001377050293F63D
:1051EC00F70D19C393E607022380D5006345080029
:1051FC009377A50281CB8347060093E7C700230072
:10520C00F60082807DFD83470600CD9BCDBF2D45EA
:10521C006317071403C805000947631EE812C84149
:10522C0003471500034505002207498F42070D650A
:10523C004187930825A06309170B011122CC26CABC
:10524C004AC84EC606CEBE89B68432842E8963CE39
:10525C00E800930705A0630DF702130515A0630E74
:10526C00A704239004000545A5A0930745A0630758
:10527C00F7086346F706130565AAE314A7FE8547EE
:10528C002390F600DC4583C707002300F60081A0BD
:10529C00C845EFB0BFE0420541814E8663733501CE
:1052AC002A862390C400420641828325C9002285A8
:1052BC0097E0FE1FE780206B19A8DC4583D7070019
:1052CC00239006012300F600A183A300F6000145FC
:1052DC00F2406244D2444249B24905618280994706
:1052EC002390F6001946D1B785472390F600DC458C
:1052FC00014583C707002300F6008280DC45A9CB5B
:10530C0021472390E60003D707002300E60003D7CC
:10531C0007002183A300E60003D727002301E60042
:10532C0003D727002183A301E60003D747002302FC
:10533C00E60003D747002183A302E60003D76700EA
:10534C002303E60083D76700A183A303F60041B7CC
:10535C0023900600ADBF2390060005458280828015
:10536C0083C8050089476391F814DC41797122D414
:10537C0006D626D24AD04ECE52CC03C8170083C7CD
:10538C0007002E8422083368F80042088D671358F2
:10539C000841138327A0630A680E2A8A3A89B684C7
:1053AC00B285634C0301138707A0630AE802938755
:1053BC0017A06303F808854711A8138737A0630368
:1053CC00E80A138767AA8D47E317E8FEB250225408
:1053DC0092540259F249624A3E85456182804844A2
:1053EC0032C6EFB0BFCB420541819D47E36025FF3C
:1053FC00B3099900D547B24563D43701B547F9B71E
:10540C0048442686C2094A9597E0FE1FE780A055BE
:10541C00484493D9090159463306364181454E9586
:10542C00EFB0BFC683A7C1BD99E3814745B79C4385
:10543C008145E5DF52852DA0AD47E31909F8E39FBF
:10544C0016FB83471600834606005844A207D58FE7
:10545C002310F70083A7C1BDE9DB9C438545F1D739
:10546C008297E1B7AD47E31309F69947E398F6F84D
:10547C004844194697E0FE1FE780E04E83A7C1BD64
:10548C00CDD79C43DDD38D4575B7AD4721F385470B
:10549C00E396F6F60347060093070008E3E8E6F206
:1054AC00DC452380E70051B785473E85828023AEDB
:1054BC0001BC8947238CF1B0138F81B18147938E46
:1054CC00C1DE5947B386FE00238006008507E39BA7
:1054DC00E7FEB707A0009385C1B1938707059CC170
:1054EC00B707E803DCC1238D01BC37E602009387C4
:1054FC00C1A0130646DDD0C337E602000947138E60
:10550C0051B1130686DA2300EE00D0C723AEE701B3
:10551C0023AEC70337E6020037EF020037EE020076
:10552C008546130686DB938891B1138381BD13885E
:10553C0071B1138561B1130F0FDC130E0EDB2380D9
:10554C00E8002380E7002388E7002380E702238814
:10555C00E7022380E7042300E8002384D700239587
:10556C000700D0CB238CD700239D070023A2E70391
:10557C002384D7022395070223A6D703D0DB238CE1
:10558C00D702239D070223A2C7052384D7042395A2
:10559C000704231003002300D50023A667042388E7
:1055AC00E70423AE17052380E7062388E70623804C
:1055BC00E708B7E8020037E70200130747DB9388D8
:1055CC0008DD23A2E708F0CB238CD704239D070426
:1055DC0023A217072384D70623950706ECD7F0DB05
:1055EC00238CD706239D070623AE07072384D708F1
:1055FC002395070823A6A708375701009387C1A94D
:10560C001307A72198C3375701001307C736D8C310
:10561C0023A407008280A54763E1A70CB7E702002B
:10562C00938787900A053E951C41411122C426C2DE
:10563C0006C64AC0B2842E848287D547614563E191
:10564C00B702594681451385C1DEEFB01FA42286EF
:10565C00A6851385C1DE97E0FE1FE780C0300145AB
:10566C00B2402244924402494101828089476145FB
:10567C00E398F5FE03570600239CE1BCCDB7A14788
:10568C006145E39FF5FC2146A6851385C1B1EF80EA
:10569C00811AF1B785476145E394F5FC9385C1A068
:1056AC00D04D9385850203C50400EFF0DFAF45BFF5
:1056BC0085476145E396F5FA9385C1A0D05D938546
:1056CC008504D5B785476145E39CF5F8034706008B
:1056DC00238BE1B069B7094561B70945828005475D
:1056EC00630AE5024111AA8706C62E8599CB11479C
:1056FC006388E7022547638BE7020945B240410105
:10570C00828055469385C1DE97E0FE1FE780A02579
:10571C000145EDB783D781BD01452390F50082800B
:10572C0021469385C1B1EF800111DDB783C761B10B
:10573C002380F500F1BF9387A1BD03C7070011EFCC
:10574C0005472380E700058909C99386C1A941460D
:10575C00A5451385C1A06F304058014582800111C9
:10576C001388F5FF06CE22CC26CA4AC84EC652C4B0
:10577C001378F80FAD4563ED050BB7E502000A0889
:10578C00938505932E983E8A83270800BA8936891B
:10579C00B28482878545EFD00FC62A8419E1EFF0D9
:1057AC00FF942285F2406244D2444249B249224AD3
:1057BC00056182808945EFD00FC42A847DF126854E
:1057CC00EFF08F94F9BF9145EFD0EFC22A8471F9B5
:1057DC005286CE854A85EFD0AFB9EFF03F91EFF00E
:1057EC009F8EEF70D05F75BFA145EFD0CFC02A84DC
:1057FC004DF95286CE854A85EFD08FB72685EFF0CE
:10580C00AF90EFF04F8FEF70104061BFB145EFD00C
:10581C008FBE2A8459F55286CE854A85EFD04FB576
:10582C002685EFF06F8EEFF00F8DEF70D03D75B7D2
:10583C00094485BF79714ECEAE896C0022D426D234
:10584C004AD006D62A89B284EF0070752A840DE1FD
:10585C00CE854A85EFC03F962A8419E93245B72692
:10586C00010026879386461B2D468145EF10000EBE
:10587C002285B250225492540259F24945618280D9
:10588C0079714ECEAE896C0022D426D24AD006D67F
:10589C002A89B284EF00B0702A840DE1CE854A8546
:1058AC00EFC09F9F2A8419E93245B726010026874D
:1058BC009386A6294D468145EF1040092285B250AA
:1058CC00225492540259F24945618280397126DA88
:1058DC00AE844C0022DC4AD84ED652D406DEAA89BD
:1058EC003289368AEF00B06B2A8431EDA6856303CA
:1058FC00090283D704002C002314F10083D7240061
:10590C002315F100930720302316F1009307800232
:10591C002307F1004E85EFC0FF862A840DE559461A
:10592C00A6851305A1002304210197E0FE1FE78043
:10593C0080031245B726010052879386E61525464B
:10594C002C00EF10A0002285F2506254D254425920
:10595C00B259225A21618280797126D2AE846C00B0
:10596C0022D44AD04ECE06D6AA893289EF003063B3
:10597C002A840DE1A6854E85EFC0DF852A8419E9BE
:10598C003245B72601004A879386261D3546A685E3
:10599C00EF00D07B2285B250225492540259F24926
:1059AC0045618280BD47638CF50663E9B702A54764
:1059BC006387F50663EDB7009947638CF5049D4743
:1059CC00638FF5049547638CF50401458280B547D8
:1059DC006387F50463E1B704AD47F5B7DD47638E24
:1059EC00F50263EAB700C947638BF502D9476386B2
:1059FC00F502C547C9BFF5476383F50263E4B700F9
:105A0C00ED47D1B793072005638BF5009307200D65
:105A1C005DBF4845828008418280084582804841AC
:105A2C0082809307F00F630CF506011126CAAA8435
:105A3C001305000222CC4AC84EC652C456C206CE2A
:105A4C003A89B689B28A2E8AEFB0AFB02A844D4516
:105A5C0015C8930700FB2300F400A3005401231185
:105A6C0044012302340113058400614663050902D5
:105A7C00CA8597E0FE1FE78000EFA2852685EFB070
:105A8C008FB70145F2406244D2444249B249224A9E
:105A9C00924A056182808145EFB02FDFF9BF09453D
:105AAC008280011122CC06CE2A842306B100A306E3
:105ABC00C100EF50602C19CD0347C500A147631FEF
:105ACC00F70003C541B278009306E0070146A285B2
